{
  "contractName": "AirDrop",
  "abi": [
    {
      "inputs": [
        {
          "internalType": "address",
          "name": "wallet",
          "type": "address"
        },
        {
          "internalType": "uint256",
          "name": "endContest",
          "type": "uint256"
        }
      ],
      "stateMutability": "nonpayable",
      "type": "constructor"
    },
    {
      "anonymous": false,
      "inputs": [
        {
          "indexed": true,
          "internalType": "address",
          "name": "previousOwner",
          "type": "address"
        },
        {
          "indexed": true,
          "internalType": "address",
          "name": "newOwner",
          "type": "address"
        }
      ],
      "name": "OwnershipTransferred",
      "type": "event"
    },
    {
      "inputs": [],
      "name": "owner",
      "outputs": [
        {
          "internalType": "address",
          "name": "",
          "type": "address"
        }
      ],
      "stateMutability": "view",
      "type": "function",
      "constant": true
    },
    {
      "inputs": [],
      "name": "renounceOwnership",
      "outputs": [],
      "stateMutability": "nonpayable",
      "type": "function"
    },
    {
      "inputs": [
        {
          "internalType": "address",
          "name": "newOwner",
          "type": "address"
        }
      ],
      "name": "transferOwnership",
      "outputs": [],
      "stateMutability": "nonpayable",
      "type": "function"
    },
    {
      "stateMutability": "payable",
      "type": "receive",
      "payable": true
    },
    {
      "inputs": [
        {
          "internalType": "address[]",
          "name": "addresses",
          "type": "address[]"
        },
        {
          "internalType": "uint256[]",
          "name": "ratios",
          "type": "uint256[]"
        }
      ],
      "name": "initContest",
      "outputs": [],
      "stateMutability": "nonpayable",
      "type": "function"
    },
    {
      "inputs": [],
      "name": "claimBNBs",
      "outputs": [],
      "stateMutability": "payable",
      "type": "function",
      "payable": true
    },
    {
      "inputs": [],
      "name": "stopAirDrop",
      "outputs": [],
      "stateMutability": "nonpayable",
      "type": "function"
    },
    {
      "inputs": [],
      "name": "getAddresses",
      "outputs": [
        {
          "internalType": "address[]",
          "name": "",
          "type": "address[]"
        }
      ],
      "stateMutability": "view",
      "type": "function",
      "constant": true
    },
    {
      "inputs": [
        {
          "internalType": "address",
          "name": "hisAddress",
          "type": "address"
        }
      ],
      "name": "getAttenders",
      "outputs": [
        {
          "internalType": "address",
          "name": "",
          "type": "address"
        },
        {
          "internalType": "uint256",
          "name": "",
          "type": "uint256"
        },
        {
          "internalType": "uint256",
          "name": "",
          "type": "uint256"
        }
      ],
      "stateMutability": "view",
      "type": "function",
      "constant": true
    },
    {
      "inputs": [],
      "name": "getActivated",
      "outputs": [
        {
          "internalType": "bool",
          "name": "",
          "type": "bool"
        }
      ],
      "stateMutability": "view",
      "type": "function",
      "constant": true
    },
    {
      "inputs": [],
      "name": "getEndContest",
      "outputs": [
        {
          "internalType": "uint256",
          "name": "",
          "type": "uint256"
        }
      ],
      "stateMutability": "view",
      "type": "function",
      "constant": true
    },
    {
      "inputs": [],
      "name": "getRemaining",
      "outputs": [
        {
          "internalType": "address[]",
          "name": "",
          "type": "address[]"
        }
      ],
      "stateMutability": "view",
      "type": "function",
      "constant": true
    }
  ],
  "bytecode": "0x6080604052600060055534801561001557600080fd5b5060405161131d38038061131d8339810160408190526100349161018f565b61003d3361013f565b6001600160a01b0382166100b15760405162461bcd60e51b815260206004820152603060248201527f41495244524f503a2057616c6c657420616464726573732063616e277420626560448201526f2061207a65726f20616464726573732160801b60648201526084015b60405180910390fd5b6000811161010c5760405162461bcd60e51b815260206004820152602260248201527f41495244524f503a20456e6420636f6e746573742063616e2774206265207a65604482015261726f60f01b60648201526084016100a8565b600180546001600160a01b0319166001600160a01b0393909316929092179091556006805460ff191690556005556101c9565b600080546001600160a01b038381166001600160a01b0319831681178455604051919092169283917f8be0079c531659141344cd1fd0a4f28419497f9722a3daafe3b4186f6b6457e09190a35050565b600080604083850312156101a257600080fd5b82516001600160a01b03811681146101b957600080fd5b6020939093015192949293505050565b611145806101d86000396000f3fe60806040526004361061009f5760003560e01c8063a39fac1211610064578063a39fac1214610145578063b2aa963d14610167578063b350c22e146101d6578063d6a022b8146101de578063f2fde38b146101f3578063fe08a7391461021357600080fd5b8062d412ae146100ab578063715018a6146100c2578063872888be146100d75780638893eb13146100fa5780638da5cb5b1461011d57600080fd5b366100a657005b600080fd5b3480156100b757600080fd5b506100c0610233565b005b3480156100ce57600080fd5b506100c06102ab565b3480156100e357600080fd5b506005546040519081526020015b60405180910390f35b34801561010657600080fd5b5060065460ff1660405190151581526020016100f1565b34801561012957600080fd5b506000546040516001600160a01b0390911681526020016100f1565b34801561015157600080fd5b5061015a6102df565b6040516100f19190610d80565b34801561017357600080fd5b506101b1610182366004610de9565b6001600160a01b0390811660009081526002602081905260409091208054600182015491909201549190921692565b604080516001600160a01b0390941684526020840192909252908201526060016100f1565b6100c0610341565b3480156101ea57600080fd5b5061015a610493565b3480156101ff57600080fd5b506100c061020e366004610de9565b61051e565b34801561021f57600080fd5b506100c061022e366004610eda565b6105b6565b60065460ff1615156001146102635760405162461bcd60e51b815260040161025a90610f9a565b60405180910390fd5b6000600554118015610276575060055442105b6102925760405162461bcd60e51b815260040161025a90610f9a565b60006005556006805460ff191690556102a9610a58565b565b6000546001600160a01b031633146102d55760405162461bcd60e51b815260040161025a90610fe0565b6102a96000610bf9565b6060600380548060200260200160405190810160405280929190818152602001828054801561033757602002820191906000526020600020905b81546001600160a01b03168152600190910190602001808311610319575b5050505050905090565b60065460ff1615156001146103685760405162461bcd60e51b815260040161025a90610f9a565b600060055411801561037b575060055442105b6103975760405162461bcd60e51b815260040161025a90610f9a565b60035433901561045d576001600160a01b03811660009081526002602052604090206003015460ff166104325760405162461bcd60e51b815260206004820152603960248201527f41495244524f503a2043757272656e742075736572206973206e6f742061206d60448201527f656d626572206f6620636f6e7465737420616e796d6f72652100000000000000606482015260840161025a565b6001600160a01b0381166000908152600260208190526040909120015461045a908290610c49565b50565b6000471161047d5760405162461bcd60e51b815260040161025a90611015565b60015461045a906001600160a01b031647610c49565b6000546060906001600160a01b031633146104c05760405162461bcd60e51b815260040161025a90610fe0565b6004805480602002602001604051908101604052809291908181526020018280548015610337576020028201919060005260206000209081546001600160a01b03168152600190910190602001808311610319575050505050905090565b6000546001600160a01b031633146105485760405162461bcd60e51b815260040161025a90610fe0565b6001600160a01b0381166105ad5760405162461bcd60e51b815260206004820152602660248201527f4f776e61626c653a206e6577206f776e657220697320746865207a65726f206160448201526564647265737360d01b606482015260840161025a565b61045a81610bf9565b6000546001600160a01b031633146105e05760405162461bcd60e51b815260040161025a90610fe0565b60065460ff161561063e5760405162461bcd60e51b815260206004820152602260248201527f41495244524f503a20436c61696d20686173206265656e206163746976617465604482015261642160f01b606482015260840161025a565b426005541061068f5760405162461bcd60e51b815260206004820181905260248201527f41495244524f503a20436c61696d20686173206265656e206578706972656421604482015260640161025a565b80518251146107185760405162461bcd60e51b815260206004820152604960248201527f41697244524f503a20617474656e6465722061646472657373657320616e642060448201527f726174696f73206172726179732073686f756c642068617665207468652073616064820152680daca40d8cadccee8d60bb1b608482015260a40161025a565b600047116107385760405162461bcd60e51b815260040161025a90611015565b60008251116107995760405162461bcd60e51b815260206004820152602760248201527f41495244524f503a204e6f20617474656e6465727320666f72207468697320636044820152666f6e746573742160c81b606482015260840161025a565b6000805b83518110156108765760006001600160a01b03168482815181106107c3576107c3611058565b60200260200101516001600160a01b0316141561083d5760405162461bcd60e51b815260206004820152603260248201527f41495244524f503a20417474656e64657220416464726573732063616e27742060448201527162652061207a65726f20616464726573732160701b606482015260840161025a565b82818151811061084f5761084f611058565b6020026020010151826108629190611084565b91508061086e8161109c565b91505061079d565b5060004781805b8651841015610a11576108bc856108b688878151811061089f5761089f611058565b602002602001015186610d6190919063ffffffff16565b90610d74565b91506108c88282611084565b905060405180608001604052808886815181106108e7576108e7611058565b60200260200101516001600160a01b0316815260200187868151811061090f5761090f611058565b60200260200101518152602001838152602001600115158152506002600089878151811061093f5761093f611058565b6020908102919091018101516001600160a01b039081168352828201939093526040918201600020845181546001600160a01b0319169416939093178355830151600183015582015160028201556060909101516003909101805460ff191691151591909117905586518790859081106109bb576109bb611058565b6020026020010151600385815481106109d6576109d6611058565b600091825260209091200180546001600160a01b0319166001600160a01b039290921691909117905583610a098161109c565b94505061087d565b6000610a1d82856110b7565b1115610a4257600154610a42906001600160a01b0316610a3d83866110b7565b610c49565b50506006805460ff191660011790555050505050565b6000546001600160a01b03163314610a825760405162461bcd60e51b815260040161025a90610fe0565b6000805b600354811015610bdc5760006002600060038481548110610aa957610aa9611058565b60009182526020808320909101546001600160a01b031683528201929092526040019020600201541115610bca576002600060038381548110610aee57610aee611058565b60009182526020808320909101546001600160a01b03168352820192909252604001902060020154610b209083611084565b915060006002600060038481548110610b3b57610b3b611058565b60009182526020808320909101546001600160a01b031683528201929092526040019020600201556003805482908110610b7757610b77611058565b600091825260209091200154600480546001600160a01b0390921691610b9b611058565b9060005260206000200160006101000a8154816001600160a01b0302191690836001600160a01b031602179055505b80610bd48161109c565b915050610a86565b50801561045a5760015461045a906001600160a01b031682610c49565b600080546001600160a01b038381166001600160a01b0319831681178455604051919092169283917f8be0079c531659141344cd1fd0a4f28419497f9722a3daafe3b4186f6b6457e09190a35050565b60065460ff161515600114610c705760405162461bcd60e51b815260040161025a90610f9a565b6000600554118015610c83575060055442105b610c9f5760405162461bcd60e51b815260040161025a90610f9a565b6000826001600160a01b03168260405160006040518083038185875af1925050503d8060008114610cec576040519150601f19603f3d011682016040523d82523d6000602084013e610cf1565b606091505b5050905080610d425760405162461bcd60e51b815260206004820152601a60248201527f57495448445241573a205472616e73666572206661696c65642e000000000000604482015260640161025a565b50506001600160a01b0316600090815260026020819052604082200155565b6000610d6d82846110ce565b9392505050565b6000610d6d82846110ed565b6020808252825182820181905260009190848201906040850190845b81811015610dc15783516001600160a01b031683529284019291840191600101610d9c565b50909695505050505050565b80356001600160a01b0381168114610de457600080fd5b919050565b600060208284031215610dfb57600080fd5b610d6d82610dcd565b634e487b7160e01b600052604160045260246000fd5b604051601f8201601f1916810167ffffffffffffffff81118282101715610e4357610e43610e04565b604052919050565b600067ffffffffffffffff821115610e6557610e65610e04565b5060051b60200190565b600082601f830112610e8057600080fd5b81356020610e95610e9083610e4b565b610e1a565b82815260059290921b84018101918181019086841115610eb457600080fd5b8286015b84811015610ecf5780358352918301918301610eb8565b509695505050505050565b60008060408385031215610eed57600080fd5b823567ffffffffffffffff80821115610f0557600080fd5b818501915085601f830112610f1957600080fd5b81356020610f29610e9083610e4b565b82815260059290921b84018101918181019089841115610f4857600080fd5b948201945b83861015610f6d57610f5e86610dcd565b82529482019490820190610f4d565b96505086013592505080821115610f8357600080fd5b50610f9085828601610e6f565b9150509250929050565b60208082526026908201527f41495244524f503a20436c61696d20686173206e6f74206265656e206163746960408201526576617465642160d01b606082015260800190565b6020808252818101527f4f776e61626c653a2063616c6c6572206973206e6f7420746865206f776e6572604082015260600190565b60208082526023908201527f41495244524f503a2054686520636f6e747261637420686173206e6f206d6f6e60408201526265792160e81b606082015260800190565b634e487b7160e01b600052603260045260246000fd5b634e487b7160e01b600052601160045260246000fd5b600082198211156110975761109761106e565b500190565b60006000198214156110b0576110b061106e565b5060010190565b6000828210156110c9576110c961106e565b500390565b60008160001904831182151516156110e8576110e861106e565b500290565b60008261110a57634e487b7160e01b600052601260045260246000fd5b50049056fea26469706673582212204cfe6d4156da41d3942c001555f979ca0f5742eb1f90a05666825b8915ed13af64736f6c63430008090033",
  "immutableReferences": {},
  "source": "// SPDX-License-Identifier: MIT\r\n\r\n/**\r\n *      &&&     &&&&& &&&&&&&&   &&&&&&&&   &&&&&&&&    &&&&&   &&&&&&&&\r\n *     &&&&&     &&&  &&&   &&&  &&&   &&&  &&&   &&&  &&&&&&&  &&&   &&&\r\n *    &&& &&&    &&&  &&&   &&&  &&&    &&& &&&   &&& &&&   &&& &&&   &&&\r\n *    &&& &&&    &&&  &&&&&&&&   &&&    &&& &&&&&&&&  &&&   &&& &&&&&&&&\r\n *   &&&   &&&   &&&  &&&   &&&  &&&    &&& &&&   &&& &&&   &&& &&&\r\n *   &&&&&&&&&   &&&  &&&   &&&  &&&   &&&  &&&   &&&  &&&&&&&  &&&\r\n *  &&&     &&& &&&&& &&&    &&& &&&&&&&&   &&&    &&&  &&&&&   &&&\r\n */\r\n\r\npragma solidity ^0.8.7;\r\n\r\nimport \"@openzeppelin/contracts/utils/Context.sol\";\r\nimport \"@openzeppelin/contracts/utils/Address.sol\";\r\nimport \"@openzeppelin/contracts/interfaces/IERC20.sol\";\r\nimport \"@openzeppelin/contracts/utils/math/SafeMath.sol\";\r\nimport \"@openzeppelin/contracts/access/Ownable.sol\";\r\n\r\n// DemoGreen Airdrop & Claim Feature\r\ncontract AirDrop is Context, Ownable {\r\n  using SafeMath for uint256;\r\n  using Address for address;\r\n  struct Attender {\r\n    address addr;\r\n    uint256 ratio;\r\n    uint256 amount;\r\n    bool flag;\r\n  }\r\n\r\n  address private _rewardWallet;\r\n  mapping (address => Attender) private _attenders;\r\n  address[] private _addresses;\r\n  address[] private _remainingAddresses;\r\n  uint256 private _endContest = 0;\r\n  bool private _claimActivated;\r\n\r\n  modifier claimActive() {\r\n    require(_claimActivated == true, \"AIRDROP: Claim has not been activated!\");\r\n    require(_endContest > 0 && block.timestamp < _endContest , \"AIRDROP: Claim has not been activated!\");\r\n\r\n    _;\r\n  }\r\n\r\n  modifier claimNotActive() {\r\n    require(_claimActivated == false, \"AIRDROP: Claim has been activated!\");\r\n    require(_endContest < block.timestamp, \"AIRDROP: Claim has been expired!\");\r\n\r\n    _;\r\n  }\r\n\r\n  constructor (address wallet, uint256 endContest) {\r\n    require(wallet != address(0), \"AIRDROP: Wallet address can't be a zero address!\");\r\n    require(endContest > 0, \"AIRDROP: End contest can't be zero\");\r\n\r\n    _rewardWallet = wallet;\r\n    _claimActivated = false;\r\n    _endContest = endContest;\r\n  }\r\n\r\n  function initContest(address[] memory addresses, uint256[] memory ratios) public onlyOwner claimNotActive {\r\n    require(addresses.length == ratios.length, \"AirDROP: attender addresses and ratios arrays should have the same length\");\r\n    require(address(this).balance > 0, \"AIRDROP: The contract has no money!\");\r\n    require(addresses.length > 0, \"AIRDROP: No attenders for this contest!\");\r\n    uint256 totalRatios = 0;\r\n    uint256 i = 0;\r\n    for (i = 0; i < addresses.length; i++) {\r\n      require(addresses[i] != address(0), \"AIRDROP: Attender Address can't be a zero address!\");\r\n      totalRatios += ratios[i];\r\n    }\r\n\r\n    uint256 totalAmount = address(this).balance;\r\n    uint256 tmpAmount = 0;\r\n    uint256 realTotalAmount = 0;\r\n    for (i = 0; i < addresses.length; i++) {\r\n      tmpAmount = totalAmount.mul(ratios[i]).div(totalRatios);\r\n      realTotalAmount += tmpAmount;\r\n      _attenders[addresses[i]] = Attender(addresses[i], ratios[i], tmpAmount, true);\r\n      _addresses[i] = addresses[i];\r\n    }\r\n\r\n    if (totalAmount - realTotalAmount > 0) {\r\n      _withdraw(_rewardWallet, totalAmount - realTotalAmount);\r\n    }\r\n\r\n    _claimActivated = true;\r\n  }\r\n\r\n  function claimBNBs() public payable claimActive {\r\n    address attender = _msgSender();\r\n    if (_addresses.length > 0) {\r\n      require(_attenders[attender].flag, \"AIRDROP: Current user is not a member of contest anymore!\");\r\n\r\n      _withdraw(attender, _attenders[attender].amount);\r\n    } else {\r\n      require(address(this).balance > 0, \"AIRDROP: The contract has no money!\");\r\n\r\n      _withdraw(_rewardWallet, address(this).balance);\r\n    }\r\n  }\r\n\r\n  function stopAirDrop() public claimActive {\r\n    _endContest = 0;\r\n    _claimActivated = false;\r\n    _withdrawRemaining();\r\n  }\r\n  function _withdrawRemaining() private onlyOwner {\r\n    uint256 totalRemaining = 0;\r\n    for (uint256 i = 0; i < _addresses.length; i++) {\r\n      if (_attenders[_addresses[i]].amount > 0) {\r\n        totalRemaining += _attenders[_addresses[i]].amount;\r\n        _attenders[_addresses[i]].amount = 0;\r\n        _remainingAddresses[_remainingAddresses.length] = _addresses[i];\r\n      }\r\n    }\r\n    if (totalRemaining > 0)\r\n      _withdraw(_rewardWallet, totalRemaining);\r\n  }\r\n  function _withdraw(address hisAddress, uint256 amount) private claimActive {\r\n    (bool success, ) = hisAddress.call{value: amount}(\"\");\r\n\r\n    require(success, \"WITHDRAW: Transfer failed.\");\r\n    _attenders[hisAddress].amount = 0;\r\n  }\r\n\r\n  function getAddresses() public view returns(address[] memory) {\r\n    return _addresses;\r\n  }\r\n\r\n  function getAttenders(address hisAddress) public view returns(address, uint256, uint256)  {\r\n    return (_attenders[hisAddress].addr, _attenders[hisAddress].ratio, _attenders[hisAddress].amount);\r\n  }\r\n\r\n  function getActivated() public view returns(bool) {\r\n    return _claimActivated;\r\n  }\r\n\r\n  function getEndContest() public view returns(uint256) {\r\n    return _endContest;\r\n  }\r\n\r\n  function getRemaining() public view onlyOwner returns(address[] memory)  {\r\n    return _remainingAddresses;\r\n  }\r\n  //to recieve ETH from uniswapV2Router when swaping\r\n  receive() external payable {}\r\n}",
  "sourcePath": "E:\\Blockchain\\Greentoken-presale-project\\contracts\\DemoGreenClaimAirdrop.sol",
  "compiler": {
    "name": "solc",
    "version": "0.8.9+commit.e5eed63a.Emscripten.clang"
  },
  "schemaVersion": "3.4.2",
  "updatedAt": "2021-10-02T08:10:45.271Z",
  "networkType": "ethereum",
  "devdoc": {
    "kind": "dev",
    "methods": {
      "owner()": {
        "details": "Returns the address of the current owner."
      },
      "renounceOwnership()": {
        "details": "Leaves the contract without owner. It will not be possible to call `onlyOwner` functions anymore. Can only be called by the current owner. NOTE: Renouncing ownership will leave the contract without an owner, thereby removing any functionality that is only available to the owner."
      },
      "transferOwnership(address)": {
        "details": "Transfers ownership of the contract to a new account (`newOwner`). Can only be called by the current owner."
      }
    },
    "version": 1
  },
  "userdoc": {
    "kind": "user",
    "methods": {},
    "version": 1
  }
}