{
  "contractName": "AirDrop",
  "abi": [
    {
      "inputs": [
        {
          "internalType": "address",
          "name": "wallet",
          "type": "address"
        }
      ],
      "stateMutability": "nonpayable",
      "type": "constructor"
    },
    {
      "anonymous": false,
      "inputs": [
        {
          "indexed": false,
          "internalType": "address[]",
          "name": "addresses",
          "type": "address[]"
        },
        {
          "indexed": false,
          "internalType": "uint256[]",
          "name": "ratios",
          "type": "uint256[]"
        }
      ],
      "name": "Event1",
      "type": "event"
    },
    {
      "anonymous": false,
      "inputs": [
        {
          "indexed": false,
          "internalType": "uint256",
          "name": "totalRatios",
          "type": "uint256"
        }
      ],
      "name": "Event2",
      "type": "event"
    },
    {
      "anonymous": false,
      "inputs": [
        {
          "indexed": false,
          "internalType": "uint256",
          "name": "totalAmount",
          "type": "uint256"
        }
      ],
      "name": "Event3",
      "type": "event"
    },
    {
      "anonymous": false,
      "inputs": [
        {
          "indexed": false,
          "internalType": "uint256",
          "name": "i",
          "type": "uint256"
        },
        {
          "indexed": false,
          "internalType": "uint256",
          "name": "tmpAmount",
          "type": "uint256"
        }
      ],
      "name": "Event4",
      "type": "event"
    },
    {
      "anonymous": false,
      "inputs": [
        {
          "indexed": false,
          "internalType": "address[]",
          "name": "_addresses",
          "type": "address[]"
        }
      ],
      "name": "Event5",
      "type": "event"
    },
    {
      "anonymous": false,
      "inputs": [
        {
          "indexed": false,
          "internalType": "bool",
          "name": "success",
          "type": "bool"
        }
      ],
      "name": "Event6",
      "type": "event"
    },
    {
      "anonymous": false,
      "inputs": [
        {
          "indexed": true,
          "internalType": "address",
          "name": "previousOwner",
          "type": "address"
        },
        {
          "indexed": true,
          "internalType": "address",
          "name": "newOwner",
          "type": "address"
        }
      ],
      "name": "OwnershipTransferred",
      "type": "event"
    },
    {
      "inputs": [],
      "name": "owner",
      "outputs": [
        {
          "internalType": "address",
          "name": "",
          "type": "address"
        }
      ],
      "stateMutability": "view",
      "type": "function",
      "constant": true
    },
    {
      "inputs": [],
      "name": "renounceOwnership",
      "outputs": [],
      "stateMutability": "nonpayable",
      "type": "function"
    },
    {
      "inputs": [
        {
          "internalType": "address",
          "name": "newOwner",
          "type": "address"
        }
      ],
      "name": "transferOwnership",
      "outputs": [],
      "stateMutability": "nonpayable",
      "type": "function"
    },
    {
      "stateMutability": "payable",
      "type": "receive",
      "payable": true
    },
    {
      "inputs": [
        {
          "internalType": "address[]",
          "name": "addresses",
          "type": "address[]"
        },
        {
          "internalType": "uint256[]",
          "name": "ratios",
          "type": "uint256[]"
        },
        {
          "internalType": "uint256",
          "name": "endContest",
          "type": "uint256"
        }
      ],
      "name": "initContest",
      "outputs": [],
      "stateMutability": "nonpayable",
      "type": "function"
    },
    {
      "inputs": [],
      "name": "claimBNBs",
      "outputs": [],
      "stateMutability": "payable",
      "type": "function",
      "payable": true
    },
    {
      "inputs": [],
      "name": "getAddresses",
      "outputs": [
        {
          "internalType": "address[]",
          "name": "",
          "type": "address[]"
        }
      ],
      "stateMutability": "view",
      "type": "function",
      "constant": true
    },
    {
      "inputs": [
        {
          "internalType": "address",
          "name": "hisAddress",
          "type": "address"
        }
      ],
      "name": "getAttenders",
      "outputs": [
        {
          "internalType": "address",
          "name": "",
          "type": "address"
        },
        {
          "internalType": "uint256",
          "name": "",
          "type": "uint256"
        },
        {
          "internalType": "uint256",
          "name": "",
          "type": "uint256"
        }
      ],
      "stateMutability": "view",
      "type": "function",
      "constant": true
    },
    {
      "inputs": [],
      "name": "getActivated",
      "outputs": [
        {
          "internalType": "bool",
          "name": "",
          "type": "bool"
        }
      ],
      "stateMutability": "view",
      "type": "function",
      "constant": true
    },
    {
      "inputs": [],
      "name": "getEndContest",
      "outputs": [
        {
          "internalType": "uint256",
          "name": "",
          "type": "uint256"
        }
      ],
      "stateMutability": "view",
      "type": "function",
      "constant": true
    },
    {
      "inputs": [],
      "name": "getRemaining",
      "outputs": [
        {
          "internalType": "address[]",
          "name": "",
          "type": "address[]"
        }
      ],
      "stateMutability": "view",
      "type": "function",
      "constant": true
    },
    {
      "inputs": [],
      "name": "stopAirDrop",
      "outputs": [],
      "stateMutability": "nonpayable",
      "type": "function"
    }
  ],
  "bytecode": "0x6080604052600060055534801561001557600080fd5b506040516114e93803806114e98339810160408190526100349161012f565b61003d336100df565b6001600160a01b0381166100b05760405162461bcd60e51b815260206004820152603060248201527f41495244524f503a2057616c6c657420616464726573732063616e277420626560448201526f2061207a65726f20616464726573732160801b606482015260840160405180910390fd5b600180546001600160a01b0319166001600160a01b03929092169190911790556006805460ff1916905561015f565b600080546001600160a01b038381166001600160a01b0319831681178455604051919092169283917f8be0079c531659141344cd1fd0a4f28419497f9722a3daafe3b4186f6b6457e09190a35050565b60006020828403121561014157600080fd5b81516001600160a01b038116811461015857600080fd5b9392505050565b61137b8061016e6000396000f3fe60806040526004361061009f5760003560e01c80638da5cb5b116100645780638da5cb5b1461013d578063a39fac1214610165578063b2aa963d14610187578063b350c22e146101f6578063d6a022b8146101fe578063f2fde38b1461021357600080fd5b8062d412ae146100ab5780635473e37c146100c2578063715018a6146100e2578063872888be146100f75780638893eb131461011a57600080fd5b366100a657005b600080fd5b3480156100b757600080fd5b506100c0610233565b005b3480156100ce57600080fd5b506100c06100dd366004610fee565b6102ab565b3480156100ee57600080fd5b506100c061088d565b34801561010357600080fd5b506005546040519081526020015b60405180910390f35b34801561012657600080fd5b5060065460ff166040519015158152602001610111565b34801561014957600080fd5b506000546040516001600160a01b039091168152602001610111565b34801561017157600080fd5b5061017a6108c1565b60405161011191906110fb565b34801561019357600080fd5b506101d16101a236600461110e565b6001600160a01b0390811660009081526002602081905260409091208054600182015491909201549190921692565b604080516001600160a01b039094168452602084019290925290820152606001610111565b6100c0610923565b34801561020a57600080fd5b5061017a610a75565b34801561021f57600080fd5b506100c061022e36600461110e565b610b00565b60065460ff1615156001146102635760405162461bcd60e51b815260040161025a90611129565b60405180910390fd5b6000600554118015610276575060055442105b6102925760405162461bcd60e51b815260040161025a90611129565b60006005556006805460ff191690556102a9610b98565b565b6000546001600160a01b031633146102d55760405162461bcd60e51b815260040161025a9061116f565b60065460ff16156103335760405162461bcd60e51b815260206004820152602260248201527f41495244524f503a20436c61696d20686173206265656e206163746976617465604482015261642160f01b606482015260840161025a565b42600554106103845760405162461bcd60e51b815260206004820181905260248201527f41495244524f503a20436c61696d20686173206265656e206578706972656421604482015260640161025a565b60058190556040517f85231068e387d13a10fbac2ce817475731df2e3236039a632c34e3d19bde738e906103bb90859085906111a4565b60405180910390a1815183511461044c5760405162461bcd60e51b815260206004820152604960248201527f41697244524f503a20617474656e6465722061646472657373657320616e642060448201527f726174696f73206172726179732073686f756c642068617665207468652073616064820152680daca40d8cadccee8d60bb1b608482015260a40161025a565b6000471161046c5760405162461bcd60e51b815260040161025a906111fb565b60008351116104cd5760405162461bcd60e51b815260206004820152602760248201527f41495244524f503a204e6f20617474656e6465727320666f72207468697320636044820152666f6e746573742160c81b606482015260840161025a565b6000805b84518110156105aa5760006001600160a01b03168582815181106104f7576104f761123e565b60200260200101516001600160a01b031614156105715760405162461bcd60e51b815260206004820152603260248201527f41495244524f503a20417474656e64657220416464726573732063616e27742060448201527162652061207a65726f20616464726573732160701b606482015260840161025a565b818482815181106105845761058461123e565b6020026020010151610596919061126a565b9150806105a281611282565b9150506104d1565b6040518281527f06df6fb2d6d0b17a870decb858cc46bf7b69142ab7b9318f7603ed3fd4ad240e9060200160405180910390a160405147808252907f38ee5a08acae32a0ccec0eef68b73ba44f4b09e2f3df37062af8e885a7fd23af9060200160405180910390a1600080600093505b875184101561080d5760018851610631919061129d565b84146106745761066d856106678987815181106106505761065061123e565b602002602001015186610d3a90919063ffffffff16565b90610d4d565b9150610681565b61067e818461129d565b91505b60408051858152602081018490527f4e3bd531145446316521cf99492736e926384e06119e5c5a12f6fbd93bb8e9e6910160405180910390a16106c4818361126a565b905060405180608001604052808986815181106106e3576106e361123e565b60200260200101516001600160a01b0316815260200188868151811061070b5761070b61123e565b6020026020010151815260200183815260200160011515815250600260008a878151811061073b5761073b61123e565b6020908102919091018101516001600160a01b039081168352828201939093526040918201600020845181546001600160a01b0319169416939093178355830151600183015582015160028201556060909101516003909101805460ff191691151591909117905587518890859081106107b7576107b761123e565b6020026020010151600385815481106107d2576107d261123e565b600091825260209091200180546001600160a01b0319166001600160a01b03929092169190911790558361080581611282565b94505061061a565b7ff432762674910141437817ba5d426148059828b8bdb4fdc81132ab65ddbc37c9600360405161083d91906112b4565b60405180910390a16000610851828561129d565b111561087657600154610876906001600160a01b0316610871838661129d565b610d59565b50506006805460ff19166001179055505050505050565b6000546001600160a01b031633146108b75760405162461bcd60e51b815260040161025a9061116f565b6102a96000610eac565b6060600380548060200260200160405190810160405280929190818152602001828054801561091957602002820191906000526020600020905b81546001600160a01b031681526001909101906020018083116108fb575b5050505050905090565b60065460ff16151560011461094a5760405162461bcd60e51b815260040161025a90611129565b600060055411801561095d575060055442105b6109795760405162461bcd60e51b815260040161025a90611129565b600354339015610a3f576001600160a01b03811660009081526002602052604090206003015460ff16610a145760405162461bcd60e51b815260206004820152603960248201527f41495244524f503a2043757272656e742075736572206973206e6f742061206d60448201527f656d626572206f6620636f6e7465737420616e796d6f72652100000000000000606482015260840161025a565b6001600160a01b03811660009081526002602081905260409091200154610a3c908290610d59565b50565b60004711610a5f5760405162461bcd60e51b815260040161025a906111fb565b600154610a3c906001600160a01b031647610d59565b6000546060906001600160a01b03163314610aa25760405162461bcd60e51b815260040161025a9061116f565b6004805480602002602001604051908101604052809291908181526020018280548015610919576020028201919060005260206000209081546001600160a01b031681526001909101906020018083116108fb575050505050905090565b6000546001600160a01b03163314610b2a5760405162461bcd60e51b815260040161025a9061116f565b6001600160a01b038116610b8f5760405162461bcd60e51b815260206004820152602660248201527f4f776e61626c653a206e6577206f776e657220697320746865207a65726f206160448201526564647265737360d01b606482015260840161025a565b610a3c81610eac565b6000546001600160a01b03163314610bc25760405162461bcd60e51b815260040161025a9061116f565b6000805b600354811015610d1d5760006002600060038481548110610be957610be961123e565b60009182526020808320909101546001600160a01b031683528201929092526040019020600201541115610d0b57816002600060038481548110610c2f57610c2f61123e565b60009182526020808320909101546001600160a01b03168352820192909252604001902060020154610c61919061126a565b915060006002600060038481548110610c7c57610c7c61123e565b60009182526020808320909101546001600160a01b031683528201929092526040019020600201556003805482908110610cb857610cb861123e565b600091825260209091200154600480546001600160a01b0390921691610cdc61123e565b9060005260206000200160006101000a8154816001600160a01b0302191690836001600160a01b031602179055505b80610d1581611282565b915050610bc6565b508015610a3c57600154610a3c906001600160a01b031682610d59565b6000610d468284611304565b9392505050565b6000610d468284611323565b60065460ff161515600114610d805760405162461bcd60e51b815260040161025a90611129565b6000600554118015610d93575060055442105b610daf5760405162461bcd60e51b815260040161025a90611129565b6000826001600160a01b03168260405160006040518083038185875af1925050503d8060008114610dfc576040519150601f19603f3d011682016040523d82523d6000602084013e610e01565b606091505b505090507f2b015129c23d79a799b78a0a912d56151f458c5e974d4f75f4862950a8320b3681604051610e38911515815260200190565b60405180910390a180610e8d5760405162461bcd60e51b815260206004820152601a60248201527f57495448445241573a205472616e73666572206661696c65642e000000000000604482015260640161025a565b50506001600160a01b0316600090815260026020819052604082200155565b600080546001600160a01b038381166001600160a01b0319831681178455604051919092169283917f8be0079c531659141344cd1fd0a4f28419497f9722a3daafe3b4186f6b6457e09190a35050565b634e487b7160e01b600052604160045260246000fd5b604051601f8201601f1916810167ffffffffffffffff81118282101715610f3b57610f3b610efc565b604052919050565b600067ffffffffffffffff821115610f5d57610f5d610efc565b5060051b60200190565b80356001600160a01b0381168114610f7e57600080fd5b919050565b600082601f830112610f9457600080fd5b81356020610fa9610fa483610f43565b610f12565b82815260059290921b84018101918181019086841115610fc857600080fd5b8286015b84811015610fe35780358352918301918301610fcc565b509695505050505050565b60008060006060848603121561100357600080fd5b833567ffffffffffffffff8082111561101b57600080fd5b818601915086601f83011261102f57600080fd5b8135602061103f610fa483610f43565b82815260059290921b8401810191818101908a84111561105e57600080fd5b948201945b838610156110835761107486610f67565b82529482019490820190611063565b9750508701359250508082111561109957600080fd5b506110a686828701610f83565b925050604084013590509250925092565b600081518084526020808501945080840160005b838110156110f05781516001600160a01b0316875295820195908201906001016110cb565b509495945050505050565b602081526000610d4660208301846110b7565b60006020828403121561112057600080fd5b610d4682610f67565b60208082526026908201527f41495244524f503a20436c61696d20686173206e6f74206265656e206163746960408201526576617465642160d01b606082015260800190565b6020808252818101527f4f776e61626c653a2063616c6c6572206973206e6f7420746865206f776e6572604082015260600190565b6040815260006111b760408301856110b7565b82810360208481019190915284518083528582019282019060005b818110156111ee578451835293830193918301916001016111d2565b5090979650505050505050565b60208082526023908201527f41495244524f503a2054686520636f6e747261637420686173206e6f206d6f6e60408201526265792160e81b606082015260800190565b634e487b7160e01b600052603260045260246000fd5b634e487b7160e01b600052601160045260246000fd5b6000821982111561127d5761127d611254565b500190565b600060001982141561129657611296611254565b5060010190565b6000828210156112af576112af611254565b500390565b6020808252825482820181905260008481528281209092916040850190845b818110156112f85783546001600160a01b0316835260019384019392850192016112d3565b50909695505050505050565b600081600019048311821515161561131e5761131e611254565b500290565b60008261134057634e487b7160e01b600052601260045260246000fd5b50049056fea26469706673582212202911901708fed260b51b08bc562556123a156b2dc47f8ef376bde25253f1f25464736f6c63430008090033",
  "immutableReferences": {},
  "source": "// SPDX-License-Identifier: MIT\r\n\r\n/**\r\n *      &&&     &&&&& &&&&&&&&   &&&&&&&&   &&&&&&&&    &&&&&   &&&&&&&&\r\n *     &&&&&     &&&  &&&   &&&  &&&   &&&  &&&   &&&  &&&&&&&  &&&   &&&\r\n *    &&& &&&    &&&  &&&   &&&  &&&    &&& &&&   &&& &&&   &&& &&&   &&&\r\n *    &&& &&&    &&&  &&&&&&&&   &&&    &&& &&&&&&&&  &&&   &&& &&&&&&&&\r\n *   &&&   &&&   &&&  &&&   &&&  &&&    &&& &&&   &&& &&&   &&& &&&\r\n *   &&&&&&&&&   &&&  &&&   &&&  &&&   &&&  &&&   &&&  &&&&&&&  &&&\r\n *  &&&     &&& &&&&& &&&    &&& &&&&&&&&   &&&    &&&  &&&&&   &&&\r\n */\r\n\r\npragma solidity ^0.8.7;\r\n\r\nimport \"@openzeppelin/contracts/utils/Context.sol\";\r\nimport \"@openzeppelin/contracts/utils/Address.sol\";\r\nimport \"@openzeppelin/contracts/interfaces/IERC20.sol\";\r\nimport \"@openzeppelin/contracts/utils/math/SafeMath.sol\";\r\nimport \"@openzeppelin/contracts/access/Ownable.sol\";\r\n\r\n// DemoGreen Airdrop & Claim Feature\r\ncontract AirDrop is Context, Ownable {\r\n  using SafeMath for uint256;\r\n  using Address for address;\r\n  event Event1(address[] addresses, uint256[] ratios); \r\n  event Event2(uint256 totalRatios);\r\n  event Event3(uint256 totalAmount);\r\n  event Event4(uint256 i, uint256 tmpAmount);\r\n  event Event5(address[] _addresses);\r\n  event Event6(bool success);\r\n  struct Attender {\r\n    address addr;\r\n    uint256 ratio;\r\n    uint256 amount;\r\n    bool flag;\r\n  }\r\n\r\n  address private _rewardWallet;\r\n  mapping (address => Attender) private _attenders;\r\n\r\n  address[] private _addresses;\r\n  address[] private _remainingAddresses;\r\n\r\n  uint256 private _endContest = 0;\r\n  bool private _claimActivated;\r\n\r\n  modifier claimActive() {\r\n    require(_claimActivated == true, \"AIRDROP: Claim has not been activated!\");\r\n    require(_endContest > 0 && block.timestamp < _endContest , \"AIRDROP: Claim has not been activated!\");\r\n\r\n    _;\r\n  }\r\n\r\n  modifier claimNotActive() {\r\n    require(_claimActivated == false, \"AIRDROP: Claim has been activated!\");\r\n    require(_endContest < block.timestamp, \"AIRDROP: Claim has been expired!\");\r\n\r\n    _;\r\n  }\r\n\r\n  constructor (address wallet) {\r\n    require(wallet != address(0), \"AIRDROP: Wallet address can't be a zero address!\");\r\n\r\n    _rewardWallet = wallet;\r\n    _claimActivated = false;\r\n  }\r\n\r\n  function initContest(address[] memory addresses, uint256[] memory ratios, uint256 endContest) public onlyOwner claimNotActive {\r\n    _endContest = endContest;\r\n    emit Event1(addresses, ratios);\r\n    require(addresses.length == ratios.length, \"AirDROP: attender addresses and ratios arrays should have the same length\");\r\n    require(address(this).balance > 0, \"AIRDROP: The contract has no money!\");\r\n    require(addresses.length > 0, \"AIRDROP: No attenders for this contest!\");\r\n\r\n    uint256 totalRatios = 0;\r\n    uint256 i = 0;\r\n\r\n    for (i = 0; i < addresses.length; i++) {\r\n      require(addresses[i] != address(0), \"AIRDROP: Attender Address can't be a zero address!\");\r\n      totalRatios = ratios[i] + totalRatios;\r\n    }\r\n    emit Event2(totalRatios);\r\n    uint256 totalAmount = address(this).balance;\r\n    emit Event3(totalAmount);\r\n    uint256 tmpAmount = 0;\r\n    uint256 realTotalAmount = 0;\r\n    \r\n    for (i = 0; i < addresses.length; i++) {\r\n      if (i != addresses.length - 1) {\r\n        tmpAmount = totalAmount.mul(ratios[i]).div(totalRatios);\r\n      } else {\r\n        tmpAmount = totalAmount - realTotalAmount;\r\n      }\r\n      emit Event4(i, tmpAmount);\r\n      realTotalAmount = tmpAmount + realTotalAmount;\r\n      _attenders[addresses[i]] = Attender(addresses[i], ratios[i], tmpAmount, true);\r\n      _addresses[i] = addresses[i];\r\n    }\r\n    emit Event5(_addresses);\r\n    if (totalAmount - realTotalAmount > 0) {\r\n      _withdraw(_rewardWallet, totalAmount - realTotalAmount);\r\n    }\r\n\r\n    _claimActivated = true;\r\n  }\r\n\r\n  function claimBNBs() public payable claimActive {\r\n    address attender = _msgSender();\r\n    if (_addresses.length > 0) {\r\n      require(_attenders[attender].flag, \"AIRDROP: Current user is not a member of contest anymore!\");\r\n\r\n      _withdraw(attender, _attenders[attender].amount);\r\n    } else {\r\n      require(address(this).balance > 0, \"AIRDROP: The contract has no money!\");\r\n\r\n      _withdraw(_rewardWallet, address(this).balance);\r\n    }\r\n  }\r\n\r\n  function _withdrawRemaining() private onlyOwner {\r\n    uint256 totalRemaining = 0;\r\n    for (uint256 i = 0; i < _addresses.length; i++) {\r\n      if (_attenders[_addresses[i]].amount > 0) {\r\n        totalRemaining = _attenders[_addresses[i]].amount + totalRemaining;\r\n        _attenders[_addresses[i]].amount = 0;\r\n        _remainingAddresses[_remainingAddresses.length] = _addresses[i];\r\n      }\r\n    }\r\n    if (totalRemaining > 0)\r\n      _withdraw(_rewardWallet, totalRemaining);\r\n  }\r\n  function _withdraw(address hisAddress, uint256 amount) private claimActive {\r\n    (bool success, ) = hisAddress.call{value: amount}(\"\");\r\n    emit Event6(success);\r\n    require(success, \"WITHDRAW: Transfer failed.\");\r\n    _attenders[hisAddress].amount = 0;\r\n  }\r\n\r\n  function getAddresses() public view returns(address[] memory) {\r\n    return _addresses;\r\n  }\r\n\r\n  function getAttenders(address hisAddress) public view returns(address, uint256, uint256)  {\r\n    return (_attenders[hisAddress].addr, _attenders[hisAddress].ratio, _attenders[hisAddress].amount);\r\n  }\r\n\r\n  function getActivated() public view returns(bool) {\r\n    return _claimActivated;\r\n  }\r\n\r\n  function getEndContest() public view returns(uint256) {\r\n    return _endContest;\r\n  }\r\n\r\n  function getRemaining() public view onlyOwner returns(address[] memory)  {\r\n    return _remainingAddresses;\r\n  }\r\n\r\n  function stopAirDrop() public claimActive {\r\n    _endContest = 0;\r\n    _claimActivated = false;\r\n    _withdrawRemaining();\r\n  }\r\n\r\n  receive() external payable {}\r\n}",
  "sourcePath": "E:\\Blockchain\\Greentoken-presale-project\\contracts\\DemoGreenClaimAirdrop.sol",
  "compiler": {
    "name": "solc",
    "version": "0.8.9+commit.e5eed63a.Emscripten.clang"
  },
  "schemaVersion": "3.4.2",
  "updatedAt": "2021-10-02T19:18:30.308Z",
  "networkType": "ethereum",
  "devdoc": {
    "kind": "dev",
    "methods": {
      "owner()": {
        "details": "Returns the address of the current owner."
      },
      "renounceOwnership()": {
        "details": "Leaves the contract without owner. It will not be possible to call `onlyOwner` functions anymore. Can only be called by the current owner. NOTE: Renouncing ownership will leave the contract without an owner, thereby removing any functionality that is only available to the owner."
      },
      "transferOwnership(address)": {
        "details": "Transfers ownership of the contract to a new account (`newOwner`). Can only be called by the current owner."
      }
    },
    "version": 1
  },
  "userdoc": {
    "kind": "user",
    "methods": {},
    "version": 1
  }
}