{
  "contractName": "AirDrop",
  "abi": [
    {
      "inputs": [
        {
          "internalType": "address",
          "name": "wallet",
          "type": "address"
        }
      ],
      "stateMutability": "nonpayable",
      "type": "constructor"
    },
    {
      "anonymous": false,
      "inputs": [
        {
          "indexed": false,
          "internalType": "uint256",
          "name": "length",
          "type": "uint256"
        },
        {
          "indexed": false,
          "internalType": "uint256",
          "name": "length1",
          "type": "uint256"
        }
      ],
      "name": "Event0",
      "type": "event"
    },
    {
      "anonymous": false,
      "inputs": [
        {
          "indexed": false,
          "internalType": "address[]",
          "name": "addresses",
          "type": "address[]"
        },
        {
          "indexed": false,
          "internalType": "uint256[]",
          "name": "ratios",
          "type": "uint256[]"
        }
      ],
      "name": "Event1",
      "type": "event"
    },
    {
      "anonymous": false,
      "inputs": [
        {
          "indexed": false,
          "internalType": "uint256",
          "name": "totalRatios",
          "type": "uint256"
        }
      ],
      "name": "Event2",
      "type": "event"
    },
    {
      "anonymous": false,
      "inputs": [
        {
          "indexed": false,
          "internalType": "uint256",
          "name": "totalAmount",
          "type": "uint256"
        }
      ],
      "name": "Event3",
      "type": "event"
    },
    {
      "anonymous": false,
      "inputs": [
        {
          "indexed": false,
          "internalType": "uint256",
          "name": "i",
          "type": "uint256"
        },
        {
          "indexed": false,
          "internalType": "uint256",
          "name": "tmpAmount",
          "type": "uint256"
        }
      ],
      "name": "Event4",
      "type": "event"
    },
    {
      "anonymous": false,
      "inputs": [
        {
          "indexed": false,
          "internalType": "address[]",
          "name": "_addresses",
          "type": "address[]"
        }
      ],
      "name": "Event5",
      "type": "event"
    },
    {
      "anonymous": false,
      "inputs": [
        {
          "indexed": false,
          "internalType": "bool",
          "name": "success",
          "type": "bool"
        }
      ],
      "name": "Event6",
      "type": "event"
    },
    {
      "anonymous": false,
      "inputs": [
        {
          "indexed": true,
          "internalType": "address",
          "name": "previousOwner",
          "type": "address"
        },
        {
          "indexed": true,
          "internalType": "address",
          "name": "newOwner",
          "type": "address"
        }
      ],
      "name": "OwnershipTransferred",
      "type": "event"
    },
    {
      "inputs": [],
      "name": "owner",
      "outputs": [
        {
          "internalType": "address",
          "name": "",
          "type": "address"
        }
      ],
      "stateMutability": "view",
      "type": "function",
      "constant": true
    },
    {
      "inputs": [],
      "name": "renounceOwnership",
      "outputs": [],
      "stateMutability": "nonpayable",
      "type": "function"
    },
    {
      "inputs": [
        {
          "internalType": "address",
          "name": "newOwner",
          "type": "address"
        }
      ],
      "name": "transferOwnership",
      "outputs": [],
      "stateMutability": "nonpayable",
      "type": "function"
    },
    {
      "stateMutability": "payable",
      "type": "receive",
      "payable": true
    },
    {
      "inputs": [
        {
          "internalType": "address[]",
          "name": "addresses",
          "type": "address[]"
        },
        {
          "internalType": "uint256[]",
          "name": "ratios",
          "type": "uint256[]"
        },
        {
          "internalType": "uint256",
          "name": "endContest",
          "type": "uint256"
        }
      ],
      "name": "initContest",
      "outputs": [],
      "stateMutability": "nonpayable",
      "type": "function"
    },
    {
      "inputs": [],
      "name": "claimBNBs",
      "outputs": [],
      "stateMutability": "payable",
      "type": "function",
      "payable": true
    },
    {
      "inputs": [],
      "name": "getAddresses",
      "outputs": [
        {
          "internalType": "address[]",
          "name": "",
          "type": "address[]"
        }
      ],
      "stateMutability": "view",
      "type": "function",
      "constant": true
    },
    {
      "inputs": [
        {
          "internalType": "address",
          "name": "hisAddress",
          "type": "address"
        }
      ],
      "name": "getAttenders",
      "outputs": [
        {
          "internalType": "address",
          "name": "",
          "type": "address"
        },
        {
          "internalType": "uint256",
          "name": "",
          "type": "uint256"
        },
        {
          "internalType": "uint256",
          "name": "",
          "type": "uint256"
        }
      ],
      "stateMutability": "view",
      "type": "function",
      "constant": true
    },
    {
      "inputs": [],
      "name": "getActivated",
      "outputs": [
        {
          "internalType": "bool",
          "name": "",
          "type": "bool"
        }
      ],
      "stateMutability": "view",
      "type": "function",
      "constant": true
    },
    {
      "inputs": [],
      "name": "getEndContest",
      "outputs": [
        {
          "internalType": "uint256",
          "name": "",
          "type": "uint256"
        }
      ],
      "stateMutability": "view",
      "type": "function",
      "constant": true
    },
    {
      "inputs": [],
      "name": "getRemaining",
      "outputs": [
        {
          "internalType": "address[]",
          "name": "",
          "type": "address[]"
        }
      ],
      "stateMutability": "view",
      "type": "function",
      "constant": true
    },
    {
      "inputs": [],
      "name": "stopAirDrop",
      "outputs": [],
      "stateMutability": "nonpayable",
      "type": "function"
    }
  ],
  "bytecode": "0x6080604052600060055534801561001557600080fd5b5060405161136d38038061136d8339810160408190526100349161012f565b61003d336100df565b6001600160a01b0381166100b05760405162461bcd60e51b815260206004820152603060248201527f41495244524f503a2057616c6c657420616464726573732063616e277420626560448201526f2061207a65726f20616464726573732160801b606482015260840160405180910390fd5b600180546001600160a01b0319166001600160a01b03929092169190911790556006805460ff1916905561015f565b600080546001600160a01b038381166001600160a01b0319831681178455604051919092169283917f8be0079c531659141344cd1fd0a4f28419497f9722a3daafe3b4186f6b6457e09190a35050565b60006020828403121561014157600080fd5b81516001600160a01b038116811461015857600080fd5b9392505050565b6111ff8061016e6000396000f3fe60806040526004361061009f5760003560e01c80638da5cb5b116100645780638da5cb5b1461013d578063a39fac1214610165578063b2aa963d14610187578063b350c22e146101f6578063d6a022b8146101fe578063f2fde38b1461021357600080fd5b8062d412ae146100ab5780635473e37c146100c2578063715018a6146100e2578063872888be146100f75780638893eb131461011a57600080fd5b366100a657005b600080fd5b3480156100b757600080fd5b506100c0610233565b005b3480156100ce57600080fd5b506100c06100dd366004610f23565b6102ab565b3480156100ee57600080fd5b506100c06107aa565b34801561010357600080fd5b506005546040519081526020015b60405180910390f35b34801561012657600080fd5b5060065460ff166040519015158152602001610111565b34801561014957600080fd5b506000546040516001600160a01b039091168152602001610111565b34801561017157600080fd5b5061017a6107de565b6040516101119190610fec565b34801561019357600080fd5b506101d16101a2366004611039565b6001600160a01b0390811660009081526002602081905260409091208054600182015491909201549190921692565b604080516001600160a01b039094168452602084019290925290820152606001610111565b6100c0610840565b34801561020a57600080fd5b5061017a610992565b34801561021f57600080fd5b506100c061022e366004611039565b610a1d565b60065460ff1615156001146102635760405162461bcd60e51b815260040161025a90611054565b60405180910390fd5b6000600554118015610276575060055442105b6102925760405162461bcd60e51b815260040161025a90611054565b60006005556006805460ff191690556102a9610ab5565b565b6000546001600160a01b031633146102d55760405162461bcd60e51b815260040161025a9061109a565b60065460ff16156103335760405162461bcd60e51b815260206004820152602260248201527f41495244524f503a20436c61696d20686173206265656e206163746976617465604482015261642160f01b606482015260840161025a565b42600554106103845760405162461bcd60e51b815260206004820181905260248201527f41495244524f503a20436c61696d20686173206265656e206578706972656421604482015260640161025a565b815183511461040d5760405162461bcd60e51b815260206004820152604960248201527f41495244524f503a20617474656e6465722061646472657373657320616e642060448201527f726174696f73206172726179732073686f756c642068617665207468652073616064820152680daca40d8cadccee8d60bb1b608482015260a40161025a565b6000471161042d5760405162461bcd60e51b815260040161025a906110cf565b600083511161048e5760405162461bcd60e51b815260206004820152602760248201527f41495244524f503a204e6f20617474656e6465727320666f72207468697320636044820152666f6e746573742160c81b606482015260840161025a565b42600554106104df5760405162461bcd60e51b815260206004820181905260248201527f41495244524f503a20436c61696d20686173206265656e207374617274656421604482015260640161025a565b6000805b84518110156105bc5760006001600160a01b031685828151811061050957610509611112565b60200260200101516001600160a01b031614156105835760405162461bcd60e51b815260206004820152603260248201527f41495244524f503a20417474656e64657220416464726573732063616e27742060448201527162652061207a65726f20616464726573732160701b606482015260840161025a565b83818151811061059557610595611112565b6020026020010151826105a8919061113e565b9150806105b481611156565b9150506104e3565b5047600080805b87518110156107915787516105d9906001610c57565b811461061c576106158561060f8984815181106105f8576105f8611112565b602002602001015187610c6a90919063ffffffff16565b90610c76565b9250610629565b6106268483610c57565b92505b6106338284610c82565b60408051838152602081018690529193507f4e3bd531145446316521cf99492736e926384e06119e5c5a12f6fbd93bb8e9e6910160405180910390a16000600260008a848151811061068757610687611112565b60200260200101516001600160a01b03166001600160a01b0316815260200190815260200160002090508882815181106106c3576106c3611112565b602090810291909101015181546001600160a01b0319166001600160a01b0390911617815587518890839081106106fc576106fc611112565b60209081029190910101516001808301919091556002820185905560038201805460ff19169091179055885189908390811061073a5761073a611112565b60200260200101516003838154811061075557610755611112565b600091825260209091200180546001600160a01b0319166001600160a01b0392909216919091179055508061078981611156565b9150506105c3565b50506006805460ff191660011790555050506005555050565b6000546001600160a01b031633146107d45760405162461bcd60e51b815260040161025a9061109a565b6102a96000610c8e565b6060600380548060200260200160405190810160405280929190818152602001828054801561083657602002820191906000526020600020905b81546001600160a01b03168152600190910190602001808311610818575b5050505050905090565b60065460ff1615156001146108675760405162461bcd60e51b815260040161025a90611054565b600060055411801561087a575060055442105b6108965760405162461bcd60e51b815260040161025a90611054565b60035433901561095c576001600160a01b03811660009081526002602052604090206003015460ff166109315760405162461bcd60e51b815260206004820152603960248201527f41495244524f503a2043757272656e742075736572206973206e6f742061206d60448201527f656d626572206f6620636f6e7465737420616e796d6f72652100000000000000606482015260840161025a565b6001600160a01b03811660009081526002602081905260409091200154610959908290610cde565b50565b6000471161097c5760405162461bcd60e51b815260040161025a906110cf565b600154610959906001600160a01b031647610cde565b6000546060906001600160a01b031633146109bf5760405162461bcd60e51b815260040161025a9061109a565b6004805480602002602001604051908101604052809291908181526020018280548015610836576020028201919060005260206000209081546001600160a01b03168152600190910190602001808311610818575050505050905090565b6000546001600160a01b03163314610a475760405162461bcd60e51b815260040161025a9061109a565b6001600160a01b038116610aac5760405162461bcd60e51b815260206004820152602660248201527f4f776e61626c653a206e6577206f776e657220697320746865207a65726f206160448201526564647265737360d01b606482015260840161025a565b61095981610c8e565b6000546001600160a01b03163314610adf5760405162461bcd60e51b815260040161025a9061109a565b6000805b600354811015610c3a5760006002600060038481548110610b0657610b06611112565b60009182526020808320909101546001600160a01b031683528201929092526040019020600201541115610c2857816002600060038481548110610b4c57610b4c611112565b60009182526020808320909101546001600160a01b03168352820192909252604001902060020154610b7e919061113e565b915060006002600060038481548110610b9957610b99611112565b60009182526020808320909101546001600160a01b031683528201929092526040019020600201556003805482908110610bd557610bd5611112565b600091825260209091200154600480546001600160a01b0390921691610bf9611112565b9060005260206000200160006101000a8154816001600160a01b0302191690836001600160a01b031602179055505b80610c3281611156565b915050610ae3565b50801561095957600154610959906001600160a01b031682610cde565b6000610c638284611171565b9392505050565b6000610c638284611188565b6000610c6382846111a7565b6000610c63828461113e565b600080546001600160a01b038381166001600160a01b0319831681178455604051919092169283917f8be0079c531659141344cd1fd0a4f28419497f9722a3daafe3b4186f6b6457e09190a35050565b60065460ff161515600114610d055760405162461bcd60e51b815260040161025a90611054565b6000600554118015610d18575060055442105b610d345760405162461bcd60e51b815260040161025a90611054565b6000826001600160a01b03168260405160006040518083038185875af1925050503d8060008114610d81576040519150601f19603f3d011682016040523d82523d6000602084013e610d86565b606091505b505090507f2b015129c23d79a799b78a0a912d56151f458c5e974d4f75f4862950a8320b3681604051610dbd911515815260200190565b60405180910390a180610e125760405162461bcd60e51b815260206004820152601a60248201527f57495448445241573a205472616e73666572206661696c65642e000000000000604482015260640161025a565b50506001600160a01b0316600090815260026020819052604082200155565b634e487b7160e01b600052604160045260246000fd5b604051601f8201601f1916810167ffffffffffffffff81118282101715610e7057610e70610e31565b604052919050565b600067ffffffffffffffff821115610e9257610e92610e31565b5060051b60200190565b80356001600160a01b0381168114610eb357600080fd5b919050565b600082601f830112610ec957600080fd5b81356020610ede610ed983610e78565b610e47565b82815260059290921b84018101918181019086841115610efd57600080fd5b8286015b84811015610f185780358352918301918301610f01565b509695505050505050565b600080600060608486031215610f3857600080fd5b833567ffffffffffffffff80821115610f5057600080fd5b818601915086601f830112610f6457600080fd5b81356020610f74610ed983610e78565b82815260059290921b8401810191818101908a841115610f9357600080fd5b948201945b83861015610fb857610fa986610e9c565b82529482019490820190610f98565b97505087013592505080821115610fce57600080fd5b50610fdb86828701610eb8565b925050604084013590509250925092565b6020808252825182820181905260009190848201906040850190845b8181101561102d5783516001600160a01b031683529284019291840191600101611008565b50909695505050505050565b60006020828403121561104b57600080fd5b610c6382610e9c565b60208082526026908201527f41495244524f503a20436c61696d20686173206e6f74206265656e206163746960408201526576617465642160d01b606082015260800190565b6020808252818101527f4f776e61626c653a2063616c6c6572206973206e6f7420746865206f776e6572604082015260600190565b60208082526023908201527f41495244524f503a2054686520636f6e747261637420686173206e6f206d6f6e60408201526265792160e81b606082015260800190565b634e487b7160e01b600052603260045260246000fd5b634e487b7160e01b600052601160045260246000fd5b6000821982111561115157611151611128565b500190565b600060001982141561116a5761116a611128565b5060010190565b60008282101561118357611183611128565b500390565b60008160001904831182151516156111a2576111a2611128565b500290565b6000826111c457634e487b7160e01b600052601260045260246000fd5b50049056fea2646970667358221220a230254da2b253b0cd45ae706e4c8f2cce80b1e35a664465527ccc5e1c97f80764736f6c63430008090033",
  "immutableReferences": {},
  "source": "// SPDX-License-Identifier: MIT\r\n\r\n/**\r\n *      &&&     &&&&& &&&&&&&&   &&&&&&&&   &&&&&&&&    &&&&&   &&&&&&&&\r\n *     &&&&&     &&&  &&&   &&&  &&&   &&&  &&&   &&&  &&&&&&&  &&&   &&&\r\n *    &&& &&&    &&&  &&&   &&&  &&&    &&& &&&   &&& &&&   &&& &&&   &&&\r\n *    &&& &&&    &&&  &&&&&&&&   &&&    &&& &&&&&&&&  &&&   &&& &&&&&&&&\r\n *   &&&   &&&   &&&  &&&   &&&  &&&    &&& &&&   &&& &&&   &&& &&&\r\n *   &&&&&&&&&   &&&  &&&   &&&  &&&   &&&  &&&   &&&  &&&&&&&  &&&\r\n *  &&&     &&& &&&&& &&&    &&& &&&&&&&&   &&&    &&&  &&&&&   &&&\r\n */\r\n\r\npragma solidity ^0.8.7;\r\n\r\nimport \"@openzeppelin/contracts/utils/Context.sol\";\r\nimport \"@openzeppelin/contracts/utils/Address.sol\";\r\nimport \"@openzeppelin/contracts/interfaces/IERC20.sol\";\r\nimport \"@openzeppelin/contracts/utils/math/SafeMath.sol\";\r\nimport \"@openzeppelin/contracts/access/Ownable.sol\";\r\n\r\n// DemoGreen Airdrop & Claim Feature\r\ncontract AirDrop is Context, Ownable {\r\n  using SafeMath for uint256;\r\n  using Address for address;\r\n  event Event1(address[] addresses, uint256[] ratios); \r\n  event Event0(uint256 length, uint256 length1);\r\n  event Event2(uint256 totalRatios);\r\n  event Event3(uint256 totalAmount);\r\n  event Event4(uint256 i, uint256 tmpAmount);\r\n  event Event5(address[] _addresses);\r\n  event Event6(bool success);\r\n  struct Attender {\r\n    address addr;\r\n    uint256 ratio;\r\n    uint256 amount;\r\n    bool flag;\r\n  }\r\n\r\n  address private _rewardWallet;\r\n  mapping (address => Attender) private _attenders;\r\n\r\n  address[] private _addresses;\r\n  address[] private _remainingAddresses;\r\n\r\n  uint256 private _endContest = 0;\r\n  bool private _claimActivated;\r\n\r\n  modifier claimActive() {\r\n    require(_claimActivated == true, \"AIRDROP: Claim has not been activated!\");\r\n    require(_endContest > 0 && block.timestamp < _endContest , \"AIRDROP: Claim has not been activated!\");\r\n\r\n    _;\r\n  }\r\n\r\n  modifier claimNotActive() {\r\n    require(_claimActivated == false, \"AIRDROP: Claim has been activated!\");\r\n    require(_endContest < block.timestamp, \"AIRDROP: Claim has been expired!\");\r\n\r\n    _;\r\n  }\r\n\r\n  constructor (address wallet) {\r\n    require(wallet != address(0), \"AIRDROP: Wallet address can't be a zero address!\");\r\n\r\n    _rewardWallet = wallet;\r\n    _claimActivated = false;\r\n  }\r\n\r\n  function initContest(address[] memory addresses, uint256[] memory ratios, uint256 endContest) public onlyOwner claimNotActive {\r\n    require(addresses.length == ratios.length, \"AIRDROP: attender addresses and ratios arrays should have the same length\");\r\n    require(address(this).balance > 0, \"AIRDROP: The contract has no money!\");\r\n    require(addresses.length > 0, \"AIRDROP: No attenders for this contest!\");\r\n    require(_endContest < block.timestamp, \"AIRDROP: Claim has been started!\");\r\n  \r\n    uint256 totalRatios = 0;\r\n\r\n    for (uint256 i = 0; i < addresses.length; i++) {\r\n      require(addresses[i] != address(0), \"AIRDROP: Attender Address can't be a zero address!\");\r\n      totalRatios = totalRatios + ratios[i];\r\n    }\r\n\r\n    uint256 totalAmount = address(this).balance;\r\n    uint256 tmpAmount = 0;\r\n    uint256 realTotalAmount = 0;\r\n    \r\n    for (uint256 i = 0; i < addresses.length; i++) {\r\n      if (i != addresses.length.sub(1)) {\r\n        tmpAmount = totalAmount.mul(ratios[i]).div(totalRatios);\r\n      } else {\r\n        tmpAmount = totalAmount.sub(realTotalAmount);\r\n      }\r\n\r\n      realTotalAmount = realTotalAmount.add(tmpAmount);\r\n\r\n      emit Event4(i,tmpAmount);\r\n      Attender storage attender = _attenders[addresses[i]];\r\n      attender.addr = addresses[i];\r\n      attender.ratio = ratios[i];\r\n      attender.amount = tmpAmount;\r\n      attender.flag = true;\r\n\r\n      _addresses[i] = addresses[i];\r\n    }\r\n    _claimActivated = true;\r\n    _endContest = endContest;\r\n  }\r\n\r\n  function claimBNBs() public payable claimActive {\r\n    address attender = _msgSender();\r\n    if (_addresses.length > 0) {\r\n      require(_attenders[attender].flag, \"AIRDROP: Current user is not a member of contest anymore!\");\r\n\r\n      _withdraw(attender, _attenders[attender].amount);\r\n    } else {\r\n      require(address(this).balance > 0, \"AIRDROP: The contract has no money!\");\r\n\r\n      _withdraw(_rewardWallet, address(this).balance);\r\n    }\r\n  }\r\n\r\n  function _withdrawRemaining() private onlyOwner {\r\n    uint256 totalRemaining = 0;\r\n    for (uint256 i = 0; i < _addresses.length; i++) {\r\n      if (_attenders[_addresses[i]].amount > 0) {\r\n        totalRemaining = _attenders[_addresses[i]].amount + totalRemaining;\r\n        _attenders[_addresses[i]].amount = 0;\r\n        _remainingAddresses[_remainingAddresses.length] = _addresses[i];\r\n      }\r\n    }\r\n    if (totalRemaining > 0)\r\n      _withdraw(_rewardWallet, totalRemaining);\r\n  }\r\n  function _withdraw(address hisAddress, uint256 amount) private claimActive {\r\n    (bool success, ) = hisAddress.call{value: amount}(\"\");\r\n    emit Event6(success);\r\n    require(success, \"WITHDRAW: Transfer failed.\");\r\n    _attenders[hisAddress].amount = 0;\r\n  }\r\n\r\n  function getAddresses() public view returns(address[] memory) {\r\n    return _addresses;\r\n  }\r\n\r\n  function getAttenders(address hisAddress) public view returns(address, uint256, uint256)  {\r\n    return (_attenders[hisAddress].addr, _attenders[hisAddress].ratio, _attenders[hisAddress].amount);\r\n  }\r\n\r\n  function getActivated() public view returns(bool) {\r\n    return _claimActivated;\r\n  }\r\n\r\n  function getEndContest() public view returns(uint256) {\r\n    return _endContest;\r\n  }\r\n\r\n  function getRemaining() public view onlyOwner returns(address[] memory)  {\r\n    return _remainingAddresses;\r\n  }\r\n\r\n  function stopAirDrop() public claimActive {\r\n    _endContest = 0;\r\n    _claimActivated = false;\r\n    _withdrawRemaining();\r\n  }\r\n\r\n  receive() external payable {}\r\n}",
  "sourcePath": "E:\\Blockchain\\Greentoken-presale-project\\contracts\\DemoGreenClaimAirdrop.sol",
  "compiler": {
    "name": "solc",
    "version": "0.8.9+commit.e5eed63a.Emscripten.clang"
  },
  "schemaVersion": "3.4.2",
  "updatedAt": "2021-10-02T21:43:43.256Z",
  "networkType": "ethereum",
  "devdoc": {
    "kind": "dev",
    "methods": {
      "owner()": {
        "details": "Returns the address of the current owner."
      },
      "renounceOwnership()": {
        "details": "Leaves the contract without owner. It will not be possible to call `onlyOwner` functions anymore. Can only be called by the current owner. NOTE: Renouncing ownership will leave the contract without an owner, thereby removing any functionality that is only available to the owner."
      },
      "transferOwnership(address)": {
        "details": "Transfers ownership of the contract to a new account (`newOwner`). Can only be called by the current owner."
      }
    },
    "version": 1
  },
  "userdoc": {
    "kind": "user",
    "methods": {},
    "version": 1
  }
}