{
  "contractName": "AirDrop",
  "abi": [
    {
      "inputs": [
        {
          "internalType": "address",
          "name": "wallet",
          "type": "address"
        }
      ],
      "stateMutability": "nonpayable",
      "type": "constructor"
    },
    {
      "anonymous": false,
      "inputs": [
        {
          "indexed": false,
          "internalType": "uint256",
          "name": "am",
          "type": "uint256"
        },
        {
          "indexed": false,
          "internalType": "address",
          "name": "addr",
          "type": "address"
        }
      ],
      "name": "Event1",
      "type": "event"
    },
    {
      "anonymous": false,
      "inputs": [
        {
          "indexed": false,
          "internalType": "address[]",
          "name": "addr",
          "type": "address[]"
        }
      ],
      "name": "Event2",
      "type": "event"
    },
    {
      "anonymous": false,
      "inputs": [
        {
          "indexed": true,
          "internalType": "address",
          "name": "previousOwner",
          "type": "address"
        },
        {
          "indexed": true,
          "internalType": "address",
          "name": "newOwner",
          "type": "address"
        }
      ],
      "name": "OwnershipTransferred",
      "type": "event"
    },
    {
      "inputs": [],
      "name": "owner",
      "outputs": [
        {
          "internalType": "address",
          "name": "",
          "type": "address"
        }
      ],
      "stateMutability": "view",
      "type": "function"
    },
    {
      "inputs": [],
      "name": "renounceOwnership",
      "outputs": [],
      "stateMutability": "nonpayable",
      "type": "function"
    },
    {
      "inputs": [
        {
          "internalType": "address",
          "name": "newOwner",
          "type": "address"
        }
      ],
      "name": "transferOwnership",
      "outputs": [],
      "stateMutability": "nonpayable",
      "type": "function"
    },
    {
      "stateMutability": "payable",
      "type": "receive"
    },
    {
      "inputs": [
        {
          "internalType": "address[]",
          "name": "addresses",
          "type": "address[]"
        },
        {
          "internalType": "uint256[]",
          "name": "ratios",
          "type": "uint256[]"
        },
        {
          "internalType": "uint256",
          "name": "endContest",
          "type": "uint256"
        }
      ],
      "name": "initContest",
      "outputs": [],
      "stateMutability": "nonpayable",
      "type": "function"
    },
    {
      "inputs": [],
      "name": "claimBNBs",
      "outputs": [],
      "stateMutability": "payable",
      "type": "function"
    },
    {
      "inputs": [],
      "name": "stopAirDrop",
      "outputs": [],
      "stateMutability": "nonpayable",
      "type": "function"
    },
    {
      "inputs": [],
      "name": "getAddresses",
      "outputs": [
        {
          "internalType": "address[]",
          "name": "",
          "type": "address[]"
        }
      ],
      "stateMutability": "view",
      "type": "function"
    },
    {
      "inputs": [
        {
          "internalType": "address",
          "name": "hisAddress",
          "type": "address"
        }
      ],
      "name": "getAttender",
      "outputs": [
        {
          "internalType": "address",
          "name": "",
          "type": "address"
        },
        {
          "internalType": "uint256",
          "name": "",
          "type": "uint256"
        },
        {
          "internalType": "uint256",
          "name": "",
          "type": "uint256"
        }
      ],
      "stateMutability": "view",
      "type": "function"
    },
    {
      "inputs": [],
      "name": "getActivated",
      "outputs": [
        {
          "internalType": "bool",
          "name": "",
          "type": "bool"
        }
      ],
      "stateMutability": "view",
      "type": "function"
    },
    {
      "inputs": [],
      "name": "getEndContest",
      "outputs": [
        {
          "internalType": "uint256",
          "name": "",
          "type": "uint256"
        }
      ],
      "stateMutability": "view",
      "type": "function"
    },
    {
      "inputs": [],
      "name": "getRemainingAddresses",
      "outputs": [
        {
          "internalType": "address[]",
          "name": "",
          "type": "address[]"
        }
      ],
      "stateMutability": "view",
      "type": "function"
    },
    {
      "inputs": [
        {
          "internalType": "address",
          "name": "hisAddress",
          "type": "address"
        }
      ],
      "name": "getRemainingAmount",
      "outputs": [
        {
          "internalType": "uint256",
          "name": "",
          "type": "uint256"
        }
      ],
      "stateMutability": "view",
      "type": "function"
    }
  ],
  "bytecode": "0x6080604052600060065534801561001557600080fd5b5060405161159e38038061159e8339810160408190526100349161012f565b61003d336100df565b6001600160a01b0381166100b05760405162461bcd60e51b815260206004820152603060248201527f41495244524f503a2057616c6c657420616464726573732063616e277420626560448201526f2061207a65726f20616464726573732160801b606482015260840160405180910390fd5b600180546001600160a01b0319166001600160a01b03929092169190911790556007805460ff1916905561015f565b600080546001600160a01b038381166001600160a01b0319831681178455604051919092169283917f8be0079c531659141344cd1fd0a4f28419497f9722a3daafe3b4186f6b6457e09190a35050565b60006020828403121561014157600080fd5b81516001600160a01b038116811461015857600080fd5b9392505050565b6114308061016e6000396000f3fe6080604052600436106100aa5760003560e01c80638da5cb5b116100645780638da5cb5b146101b8578063a39fac12146101e0578063b350c22e14610202578063c393f1f61461020a578063f2fde38b1461021f578063faf7eba61461023f57600080fd5b8062d412ae146100b657806321372f4b146100cd5780635473e37c14610141578063715018a614610161578063872888be146101765780638893eb131461019557600080fd5b366100b157005b600080fd5b3480156100c257600080fd5b506100cb610275565b005b3480156100d957600080fd5b506101176100e836600461103a565b6001600160a01b0390811660009081526002602081905260409091208054600182015491909201549190921692565b604080516001600160a01b0390941684526020840192909252908201526060015b60405180910390f35b34801561014d57600080fd5b506100cb61015c36600461112b565b610317565b34801561016d57600080fd5b506100cb610880565b34801561018257600080fd5b506006545b604051908152602001610138565b3480156101a157600080fd5b5060075460ff166040519015158152602001610138565b3480156101c457600080fd5b506000546040516001600160a01b039091168152602001610138565b3480156101ec57600080fd5b506101f56108b6565b60405161013891906111f4565b6100cb610918565b34801561021657600080fd5b506101f5610aed565b34801561022b57600080fd5b506100cb61023a36600461103a565b610b4d565b34801561024b57600080fd5b5061018761025a36600461103a565b6001600160a01b031660009081526005602052604090205490565b6000546001600160a01b031633146102a85760405162461bcd60e51b815260040161029f90611241565b60405180910390fd5b60075460ff1615156001146102cf5760405162461bcd60e51b815260040161029f90611276565b60006006541180156102e2575060065442105b6102fe5760405162461bcd60e51b815260040161029f90611276565b610306610be5565b60006006556007805460ff19169055565b6000546001600160a01b031633146103415760405162461bcd60e51b815260040161029f90611241565b60075460ff161561039f5760405162461bcd60e51b815260206004820152602260248201527f41495244524f503a20436c61696d20686173206265656e206163746976617465604482015261642160f01b606482015260840161029f565b42600654106103f05760405162461bcd60e51b815260206004820181905260248201527f41495244524f503a20436c61696d20686173206265656e206578706972656421604482015260640161029f565b81518351146104795760405162461bcd60e51b815260206004820152604960248201527f41495244524f503a20617474656e6465722061646472657373657320616e642060448201527f726174696f73206172726179732073686f756c642068617665207468652073616064820152680daca40d8cadccee8d60bb1b608482015260a40161029f565b600047116104995760405162461bcd60e51b815260040161029f906112bc565b60008351116104fa5760405162461bcd60e51b815260206004820152602760248201527f41495244524f503a204e6f20617474656e6465727320666f72207468697320636044820152666f6e746573742160c81b606482015260840161029f565b426006541061054b5760405162461bcd60e51b815260206004820181905260248201527f41495244524f503a20436c61696d20686173206265656e207374617274656421604482015260640161029f565b6003541561059b5760405162461bcd60e51b815260206004820152601a60248201527f41495244524f503a20416c72656164792046696e697368656421000000000000604482015260640161029f565b6000805b84518110156106785760006001600160a01b03168582815181106105c5576105c56112ff565b60200260200101516001600160a01b0316141561063f5760405162461bcd60e51b815260206004820152603260248201527f41495244524f503a20417474656e64657220416464726573732063616e27742060448201527162652061207a65726f20616464726573732160701b606482015260840161029f565b838181518110610651576106516112ff565b602002602001015182610664919061132b565b91508061067081611343565b91505061059f565b5047600080805b8751811015610867578751610695906001610e7f565b81146106d8576106d1856106cb8984815181106106b4576106b46112ff565b602002602001015187610e9290919063ffffffff16565b90610e9e565b92506106e5565b6106e28483610e7f565b92505b6106ef8284610eaa565b9150610727604051806080016040528060006001600160a01b0316815260200160008152602001600081526020016000151581525090565b888281518110610739576107396112ff565b60209081029190910101516001600160a01b0316815260408101849052875188908390811061076a5761076a6112ff565b6020908102919091018101519082015260016060820152885181906002906000908c908690811061079d5761079d6112ff565b6020908102919091018101516001600160a01b039081168352828201939093526040918201600020845181546001600160a01b0319169416939093178355830151600183015582015160028201556060909101516003918201805460ff191691151591909117905589518a9084908110610819576108196112ff565b60209081029190910181015182546001810184556000938452919092200180546001600160a01b0319166001600160a01b03909216919091179055508061085f81611343565b91505061067f565b50506007805460ff191660011790555050506006555050565b6000546001600160a01b031633146108aa5760405162461bcd60e51b815260040161029f90611241565b6108b46000610eb6565b565b6060600380548060200260200160405190810160405280929190818152602001828054801561090e57602002820191906000526020600020905b81546001600160a01b031681526001909101906020018083116108f0575b5050505050905090565b60075460ff16151560011461093f5760405162461bcd60e51b815260040161029f90611276565b6000600654118015610952575060065442105b61096e5760405162461bcd60e51b815260040161029f90611276565b334761098c5760405162461bcd60e51b815260040161029f906112bc565b60035415610ad7576001600160a01b03811660009081526002602052604090206003015460ff16610a255760405162461bcd60e51b815260206004820152603960248201527f41495244524f503a2043757272656e742075736572206973206e6f742061206d60448201527f656d626572206f6620636f6e7465737420616e796d6f72652100000000000000606482015260840161029f565b6001600160a01b03811660009081526002602081905260409091200154610aac5760405162461bcd60e51b815260206004820152603560248201527f41495244524f503a2043757272656e74207573657220686173206e6f2063727960448201527470746f63757272656e637920746f20636c61696d2160581b606482015260840161029f565b6001600160a01b03811660009081526002602081905260409091200154610ad4908290610f06565b50565b600154610ad4906001600160a01b031647610f06565b6060600480548060200260200160405190810160405280929190818152602001828054801561090e576020028201919060005260206000209081546001600160a01b031681526001909101906020018083116108f0575050505050905090565b6000546001600160a01b03163314610b775760405162461bcd60e51b815260040161029f90611241565b6001600160a01b038116610bdc5760405162461bcd60e51b815260206004820152602660248201527f4f776e61626c653a206e6577206f776e657220697320746865207a65726f206160448201526564647265737360d01b606482015260840161029f565b610ad481610eb6565b60005b600354811015610e62577f20b9cb2abee318e57978ac411ddbf17adf479329d51644f34b8ac290e59d15036002600060038481548110610c2a57610c2a6112ff565b60009182526020808320909101546001600160a01b031683528201929092526040019020600201546003805484908110610c6657610c666112ff565b600091825260209091200154604051610c9b92916001600160a01b0316909182526001600160a01b0316602082015260400190565b60405180910390a160006002600060038481548110610cbc57610cbc6112ff565b60009182526020808320909101546001600160a01b031683528201929092526040019020600201541115610e50576002600060038381548110610d0157610d016112ff565b9060005260206000200160009054906101000a90046001600160a01b03166001600160a01b03166001600160a01b03168152602001908152602001600020600201546005600060038481548110610d5a57610d5a6112ff565b60009182526020808320909101546001600160a01b0316835282019290925260400181209190915560038054600291839185908110610d9b57610d9b6112ff565b60009182526020808320909101546001600160a01b03168352820192909252604001902060020155600380546004919083908110610ddb57610ddb6112ff565b60009182526020808320909101548354600181018555938352912090910180546001600160a01b0319166001600160a01b039092169190911790556040517fbfd56c873cd973640612add3fd453a65fd775af18b7a2cdacdaccc3786ad710190610e479060049061135e565b60405180910390a15b80610e5a81611343565b915050610be8565b5047156108b4576001546108b4906001600160a01b031647610f06565b6000610e8b82846113a2565b9392505050565b6000610e8b82846113b9565b6000610e8b82846113d8565b6000610e8b828461132b565b600080546001600160a01b038381166001600160a01b0319831681178455604051919092169283917f8be0079c531659141344cd1fd0a4f28419497f9722a3daafe3b4186f6b6457e09190a35050565b60075460ff161515600114610f2d5760405162461bcd60e51b815260040161029f90611276565b6000600654118015610f40575060065442105b610f5c5760405162461bcd60e51b815260040161029f90611276565b6000826001600160a01b03168260405160006040518083038185875af1925050503d8060008114610fa9576040519150601f19603f3d011682016040523d82523d6000602084013e610fae565b606091505b5050905080610fff5760405162461bcd60e51b815260206004820152601a60248201527f57495448445241573a205472616e73666572206661696c65642e000000000000604482015260640161029f565b50506001600160a01b0316600090815260026020819052604082200155565b80356001600160a01b038116811461103557600080fd5b919050565b60006020828403121561104c57600080fd5b610e8b8261101e565b634e487b7160e01b600052604160045260246000fd5b604051601f8201601f1916810167ffffffffffffffff8111828210171561109457611094611055565b604052919050565b600067ffffffffffffffff8211156110b6576110b6611055565b5060051b60200190565b600082601f8301126110d157600080fd5b813560206110e66110e18361109c565b61106b565b82815260059290921b8401810191818101908684111561110557600080fd5b8286015b848110156111205780358352918301918301611109565b509695505050505050565b60008060006060848603121561114057600080fd5b833567ffffffffffffffff8082111561115857600080fd5b818601915086601f83011261116c57600080fd5b8135602061117c6110e18361109c565b82815260059290921b8401810191818101908a84111561119b57600080fd5b948201945b838610156111c0576111b18661101e565b825294820194908201906111a0565b975050870135925050808211156111d657600080fd5b506111e3868287016110c0565b925050604084013590509250925092565b6020808252825182820181905260009190848201906040850190845b818110156112355783516001600160a01b031683529284019291840191600101611210565b50909695505050505050565b6020808252818101527f4f776e61626c653a2063616c6c6572206973206e6f7420746865206f776e6572604082015260600190565b60208082526026908201527f41495244524f503a20436c61696d20686173206e6f74206265656e206163746960408201526576617465642160d01b606082015260800190565b60208082526023908201527f41495244524f503a2054686520636f6e747261637420686173206e6f206d6f6e60408201526265792160e81b606082015260800190565b634e487b7160e01b600052603260045260246000fd5b634e487b7160e01b600052601160045260246000fd5b6000821982111561133e5761133e611315565b500190565b600060001982141561135757611357611315565b5060010190565b6020808252825482820181905260008481528281209092916040850190845b818110156112355783546001600160a01b03168352600193840193928501920161137d565b6000828210156113b4576113b4611315565b500390565b60008160001904831182151516156113d3576113d3611315565b500290565b6000826113f557634e487b7160e01b600052601260045260246000fd5b50049056fea2646970667358221220d8c8d4adb2cf4a3dcd4c3dba68861f66af484e169b7bfb43fdfafb467256a84f64736f6c63430008090033",
  "immutableReferences": {},
  "source": "// SPDX-License-Identifier: MIT\r\n\r\n/**\r\n *      &&&     &&&&& &&&&&&&&   &&&&&&&&   &&&&&&&&    &&&&&   &&&&&&&&\r\n *     &&&&&     &&&  &&&   &&&  &&&   &&&  &&&   &&&  &&&&&&&  &&&   &&&\r\n *    &&& &&&    &&&  &&&   &&&  &&&    &&& &&&   &&& &&&   &&& &&&   &&&\r\n *    &&& &&&    &&&  &&&&&&&&   &&&    &&& &&&&&&&&  &&&   &&& &&&&&&&&\r\n *   &&&   &&&   &&&  &&&   &&&  &&&    &&& &&&   &&& &&&   &&& &&&\r\n *   &&&&&&&&&   &&&  &&&   &&&  &&&   &&&  &&&   &&&  &&&&&&&  &&&\r\n *  &&&     &&& &&&&& &&&    &&& &&&&&&&&   &&&    &&&  &&&&&   &&&\r\n */\r\n\r\npragma solidity ^0.8.7;\r\n\r\nimport \"@openzeppelin/contracts/utils/Context.sol\";\r\nimport \"@openzeppelin/contracts/utils/Address.sol\";\r\nimport \"@openzeppelin/contracts/interfaces/IERC20.sol\";\r\nimport \"@openzeppelin/contracts/utils/math/SafeMath.sol\";\r\nimport \"@openzeppelin/contracts/access/Ownable.sol\";\r\n\r\n// DemoGreen Airdrop & Claim Feature\r\ncontract AirDrop is Context, Ownable {\r\n  using SafeMath for uint256;\r\n  using Address for address;\r\n  struct Attender {\r\n    address addr;\r\n    uint256 ratio;\r\n    uint256 amount;\r\n    bool flag;\r\n  }\r\n\r\n  event Event1(uint256 am, address addr);\r\n  event Event2(address[] addr);\r\n  address private _rewardWallet;\r\n  mapping (address => Attender) private _attenders;\r\n\r\n  address[] private _addresses;\r\n  address[] private _remainingAddresses;\r\n  mapping (address => uint256) _remainingAmounts;\r\n\r\n  uint256 private _endContest = 0;\r\n  bool private _claimActivated;\r\n\r\n  modifier claimActive() {\r\n    require(_claimActivated == true, \"AIRDROP: Claim has not been activated!\");\r\n    require(_endContest > 0 && block.timestamp < _endContest , \"AIRDROP: Claim has not been activated!\");\r\n\r\n    _;\r\n  }\r\n\r\n  modifier claimNotActive() {\r\n    require(_claimActivated == false, \"AIRDROP: Claim has been activated!\");\r\n    require(_endContest < block.timestamp, \"AIRDROP: Claim has been expired!\");\r\n\r\n    _;\r\n  }\r\n\r\n  constructor (address wallet) {\r\n    require(wallet != address(0), \"AIRDROP: Wallet address can't be a zero address!\");\r\n\r\n    _rewardWallet = wallet;\r\n    _claimActivated = false;\r\n  }\r\n\r\n  function initContest(address[] memory addresses, uint256[] memory ratios, uint256 endContest) public onlyOwner claimNotActive {\r\n    require(addresses.length == ratios.length, \"AIRDROP: attender addresses and ratios arrays should have the same length\");\r\n    require(address(this).balance > 0, \"AIRDROP: The contract has no money!\");\r\n    require(addresses.length > 0, \"AIRDROP: No attenders for this contest!\");\r\n    require(_endContest < block.timestamp, \"AIRDROP: Claim has been started!\");\r\n    require( ! (_addresses.length > 0), \"AIRDROP: Already Finished!\");\r\n\r\n    uint256 totalRatios = 0;\r\n\r\n    for (uint256 i = 0; i < addresses.length; i++) {\r\n      require(addresses[i] != address(0), \"AIRDROP: Attender Address can't be a zero address!\");\r\n      totalRatios = totalRatios + ratios[i];\r\n    }\r\n\r\n    uint256 totalAmount = address(this).balance;\r\n    uint256 tmpAmount = 0;\r\n    uint256 realTotalAmount = 0;\r\n    for (uint256 i = 0; i < addresses.length; i++) {\r\n      if (i != addresses.length.sub(1)) {\r\n        tmpAmount = totalAmount.mul(ratios[i]).div(totalRatios);\r\n      } else {\r\n        tmpAmount = totalAmount.sub(realTotalAmount);\r\n      }\r\n\r\n      realTotalAmount = realTotalAmount.add(tmpAmount);\r\n\r\n      Attender memory newAttender;\r\n      newAttender.addr = addresses[i];\r\n      newAttender.amount = tmpAmount;\r\n      newAttender.ratio = ratios[i];\r\n      newAttender.flag = true;\r\n      _attenders[addresses[i]] = newAttender;\r\n      _addresses.push(addresses[i]);\r\n    }\r\n    _claimActivated = true;\r\n    _endContest = endContest;\r\n  }\r\n\r\n  function claimBNBs() public payable claimActive {\r\n    address attender = _msgSender();\r\n    require(address(this).balance > 0, \"AIRDROP: The contract has no money!\");\r\n    if (_addresses.length > 0) {\r\n      require(_attenders[attender].flag, \"AIRDROP: Current user is not a member of contest anymore!\");\r\n      require(_attenders[attender].amount > 0, \"AIRDROP: Current user has no cryptocurrency to claim!\");\r\n      _withdraw(attender, _attenders[attender].amount);\r\n    } else {\r\n      _withdraw(_rewardWallet, address(this).balance);\r\n    }\r\n  }\r\n\r\n  function stopAirDrop() public onlyOwner claimActive {\r\n    _withdrawRemaining();\r\n    _endContest = 0;\r\n    _claimActivated = false;\r\n  }\r\n\r\n  function _withdrawRemaining() private {\r\n    for (uint256 i = 0; i < _addresses.length; i++) {\r\n      emit Event1(_attenders[_addresses[i]].amount, _addresses[i]);\r\n      if (_attenders[_addresses[i]].amount > 0) {\r\n        _remainingAmounts[_addresses[i]] = _attenders[_addresses[i]].amount;\r\n        _attenders[_addresses[i]].amount = 0;\r\n        _remainingAddresses.push(_addresses[i]);\r\n        emit Event2(_remainingAddresses);\r\n      }\r\n    }\r\n    if (address(this).balance > 0)\r\n      _withdraw(_rewardWallet, address(this).balance);\r\n  }\r\n  function _withdraw(address hisAddress, uint256 amount) private claimActive {\r\n    (bool success, ) = hisAddress.call{value: amount}(\"\");\r\n    require(success, \"WITHDRAW: Transfer failed.\");\r\n    _attenders[hisAddress].amount = 0;\r\n  }\r\n\r\n  function getAddresses() public view returns(address[] memory) {\r\n    return _addresses;\r\n  }\r\n\r\n  function getAttender(address hisAddress) public view returns(address, uint256, uint256)  {\r\n    return (_attenders[hisAddress].addr, _attenders[hisAddress].ratio, _attenders[hisAddress].amount);\r\n  }\r\n\r\n  function getActivated() public view returns(bool) {\r\n    return _claimActivated;\r\n  }\r\n\r\n  function getEndContest() public view returns(uint256) {\r\n    return _endContest;\r\n  }\r\n\r\n  function getRemainingAddresses() public view returns(address[] memory) {\r\n    return _remainingAddresses;\r\n  }\r\n\r\n  function getRemainingAmount(address hisAddress) public view returns (uint256) {\r\n    return _remainingAmounts[hisAddress];\r\n  }\r\n\r\n  receive() external payable {}\r\n}",
  "sourcePath": "E:\\Blockchain\\Greentoken-presale-project\\contracts\\DemoGreenClaimAirdrop.sol",
  "compiler": {
    "name": "solc",
    "version": "0.8.9+commit.e5eed63a.Emscripten.clang"
  },
  "schemaVersion": "3.4.3",
  "updatedAt": "2021-10-08T19:35:07.476Z",
  "devdoc": {
    "kind": "dev",
    "methods": {
      "owner()": {
        "details": "Returns the address of the current owner."
      },
      "renounceOwnership()": {
        "details": "Leaves the contract without owner. It will not be possible to call `onlyOwner` functions anymore. Can only be called by the current owner. NOTE: Renouncing ownership will leave the contract without an owner, thereby removing any functionality that is only available to the owner."
      },
      "transferOwnership(address)": {
        "details": "Transfers ownership of the contract to a new account (`newOwner`). Can only be called by the current owner."
      }
    },
    "version": 1
  },
  "userdoc": {
    "kind": "user",
    "methods": {},
    "version": 1
  }
}