{
  "contractName": "NFT",
  "abi": [
    {
      "inputs": [
        {
          "internalType": "string",
          "name": "_name",
          "type": "string"
        },
        {
          "internalType": "string",
          "name": "_symbol",
          "type": "string"
        }
      ],
      "stateMutability": "nonpayable",
      "type": "constructor"
    },
    {
      "anonymous": false,
      "inputs": [
        {
          "indexed": true,
          "internalType": "address",
          "name": "owner",
          "type": "address"
        },
        {
          "indexed": true,
          "internalType": "address",
          "name": "approved",
          "type": "address"
        },
        {
          "indexed": true,
          "internalType": "uint256",
          "name": "tokenId",
          "type": "uint256"
        }
      ],
      "name": "Approval",
      "type": "event"
    },
    {
      "anonymous": false,
      "inputs": [
        {
          "indexed": true,
          "internalType": "address",
          "name": "owner",
          "type": "address"
        },
        {
          "indexed": true,
          "internalType": "address",
          "name": "operator",
          "type": "address"
        },
        {
          "indexed": false,
          "internalType": "bool",
          "name": "approved",
          "type": "bool"
        }
      ],
      "name": "ApprovalForAll",
      "type": "event"
    },
    {
      "anonymous": false,
      "inputs": [
        {
          "indexed": true,
          "internalType": "address",
          "name": "previousOwner",
          "type": "address"
        },
        {
          "indexed": true,
          "internalType": "address",
          "name": "newOwner",
          "type": "address"
        }
      ],
      "name": "OwnershipTransferred",
      "type": "event"
    },
    {
      "anonymous": false,
      "inputs": [
        {
          "indexed": true,
          "internalType": "address",
          "name": "from",
          "type": "address"
        },
        {
          "indexed": true,
          "internalType": "address",
          "name": "to",
          "type": "address"
        },
        {
          "indexed": true,
          "internalType": "uint256",
          "name": "tokenId",
          "type": "uint256"
        }
      ],
      "name": "Transfer",
      "type": "event"
    },
    {
      "inputs": [
        {
          "internalType": "address",
          "name": "to",
          "type": "address"
        },
        {
          "internalType": "uint256",
          "name": "tokenId",
          "type": "uint256"
        }
      ],
      "name": "approve",
      "outputs": [],
      "stateMutability": "nonpayable",
      "type": "function"
    },
    {
      "inputs": [
        {
          "internalType": "address",
          "name": "owner",
          "type": "address"
        }
      ],
      "name": "balanceOf",
      "outputs": [
        {
          "internalType": "uint256",
          "name": "",
          "type": "uint256"
        }
      ],
      "stateMutability": "view",
      "type": "function"
    },
    {
      "inputs": [
        {
          "internalType": "uint256",
          "name": "tokenId",
          "type": "uint256"
        }
      ],
      "name": "getApproved",
      "outputs": [
        {
          "internalType": "address",
          "name": "",
          "type": "address"
        }
      ],
      "stateMutability": "view",
      "type": "function"
    },
    {
      "inputs": [
        {
          "internalType": "address",
          "name": "owner",
          "type": "address"
        },
        {
          "internalType": "address",
          "name": "operator",
          "type": "address"
        }
      ],
      "name": "isApprovedForAll",
      "outputs": [
        {
          "internalType": "bool",
          "name": "",
          "type": "bool"
        }
      ],
      "stateMutability": "view",
      "type": "function"
    },
    {
      "inputs": [],
      "name": "name",
      "outputs": [
        {
          "internalType": "string",
          "name": "",
          "type": "string"
        }
      ],
      "stateMutability": "view",
      "type": "function"
    },
    {
      "inputs": [],
      "name": "owner",
      "outputs": [
        {
          "internalType": "address",
          "name": "",
          "type": "address"
        }
      ],
      "stateMutability": "view",
      "type": "function"
    },
    {
      "inputs": [
        {
          "internalType": "uint256",
          "name": "tokenId",
          "type": "uint256"
        }
      ],
      "name": "ownerOf",
      "outputs": [
        {
          "internalType": "address",
          "name": "",
          "type": "address"
        }
      ],
      "stateMutability": "view",
      "type": "function"
    },
    {
      "inputs": [],
      "name": "renounceOwnership",
      "outputs": [],
      "stateMutability": "nonpayable",
      "type": "function"
    },
    {
      "inputs": [
        {
          "internalType": "address",
          "name": "from",
          "type": "address"
        },
        {
          "internalType": "address",
          "name": "to",
          "type": "address"
        },
        {
          "internalType": "uint256",
          "name": "tokenId",
          "type": "uint256"
        }
      ],
      "name": "safeTransferFrom",
      "outputs": [],
      "stateMutability": "nonpayable",
      "type": "function"
    },
    {
      "inputs": [
        {
          "internalType": "address",
          "name": "from",
          "type": "address"
        },
        {
          "internalType": "address",
          "name": "to",
          "type": "address"
        },
        {
          "internalType": "uint256",
          "name": "tokenId",
          "type": "uint256"
        },
        {
          "internalType": "bytes",
          "name": "_data",
          "type": "bytes"
        }
      ],
      "name": "safeTransferFrom",
      "outputs": [],
      "stateMutability": "nonpayable",
      "type": "function"
    },
    {
      "inputs": [
        {
          "internalType": "address",
          "name": "operator",
          "type": "address"
        },
        {
          "internalType": "bool",
          "name": "approved",
          "type": "bool"
        }
      ],
      "name": "setApprovalForAll",
      "outputs": [],
      "stateMutability": "nonpayable",
      "type": "function"
    },
    {
      "inputs": [
        {
          "internalType": "bytes4",
          "name": "interfaceId",
          "type": "bytes4"
        }
      ],
      "name": "supportsInterface",
      "outputs": [
        {
          "internalType": "bool",
          "name": "",
          "type": "bool"
        }
      ],
      "stateMutability": "view",
      "type": "function"
    },
    {
      "inputs": [],
      "name": "symbol",
      "outputs": [
        {
          "internalType": "string",
          "name": "",
          "type": "string"
        }
      ],
      "stateMutability": "view",
      "type": "function"
    },
    {
      "inputs": [
        {
          "internalType": "address",
          "name": "from",
          "type": "address"
        },
        {
          "internalType": "address",
          "name": "to",
          "type": "address"
        },
        {
          "internalType": "uint256",
          "name": "tokenId",
          "type": "uint256"
        }
      ],
      "name": "transferFrom",
      "outputs": [],
      "stateMutability": "nonpayable",
      "type": "function"
    },
    {
      "inputs": [
        {
          "internalType": "address",
          "name": "newOwner",
          "type": "address"
        }
      ],
      "name": "transferOwnership",
      "outputs": [],
      "stateMutability": "nonpayable",
      "type": "function"
    },
    {
      "inputs": [
        {
          "internalType": "string",
          "name": "baseURI_",
          "type": "string"
        }
      ],
      "name": "setBaseURI",
      "outputs": [],
      "stateMutability": "nonpayable",
      "type": "function"
    },
    {
      "inputs": [
        {
          "internalType": "uint256",
          "name": "tokenId",
          "type": "uint256"
        },
        {
          "internalType": "string",
          "name": "_tokenURI",
          "type": "string"
        }
      ],
      "name": "setTokenURI",
      "outputs": [],
      "stateMutability": "nonpayable",
      "type": "function"
    },
    {
      "inputs": [
        {
          "internalType": "uint256[]",
          "name": "tokenIds",
          "type": "uint256[]"
        },
        {
          "internalType": "string[]",
          "name": "_tokenURIs",
          "type": "string[]"
        }
      ],
      "name": "setMultiTokenURIs",
      "outputs": [],
      "stateMutability": "nonpayable",
      "type": "function"
    },
    {
      "inputs": [
        {
          "internalType": "address",
          "name": "_to",
          "type": "address"
        },
        {
          "internalType": "uint256",
          "name": "amount",
          "type": "uint256"
        }
      ],
      "name": "mintMultiNFT",
      "outputs": [],
      "stateMutability": "nonpayable",
      "type": "function"
    },
    {
      "inputs": [
        {
          "internalType": "uint256",
          "name": "tokenId",
          "type": "uint256"
        }
      ],
      "name": "tokenURI",
      "outputs": [
        {
          "internalType": "string",
          "name": "",
          "type": "string"
        }
      ],
      "stateMutability": "view",
      "type": "function"
    },
    {
      "inputs": [
        {
          "internalType": "address",
          "name": "_to",
          "type": "address"
        },
        {
          "internalType": "string",
          "name": "tokenURI_",
          "type": "string"
        }
      ],
      "name": "mint",
      "outputs": [],
      "stateMutability": "nonpayable",
      "type": "function"
    }
  ],
  "bytecode": "0x608060405260006007556103e76008553480156200001c57600080fd5b5060405162001f2b38038062001f2b8339810160408190526200003f916200025c565b81518290829062000058906000906020850190620000e9565b5080516200006e906001906020840190620000e9565b5050506200008b620000856200009360201b60201c565b62000097565b505062000303565b3390565b600680546001600160a01b038381166001600160a01b0319831681179093556040519116919082907f8be0079c531659141344cd1fd0a4f28419497f9722a3daafe3b4186f6b6457e090600090a35050565b828054620000f790620002c6565b90600052602060002090601f0160209004810192826200011b576000855562000166565b82601f106200013657805160ff191683800117855562000166565b8280016001018555821562000166579182015b828111156200016657825182559160200191906001019062000149565b506200017492915062000178565b5090565b5b8082111562000174576000815560010162000179565b634e487b7160e01b600052604160045260246000fd5b600082601f830112620001b757600080fd5b81516001600160401b0380821115620001d457620001d46200018f565b604051601f8301601f19908116603f01168101908282118183101715620001ff57620001ff6200018f565b816040528381526020925086838588010111156200021c57600080fd5b600091505b8382101562000240578582018301518183018401529082019062000221565b83821115620002525760008385830101525b9695505050505050565b600080604083850312156200027057600080fd5b82516001600160401b03808211156200028857600080fd5b6200029686838701620001a5565b93506020850151915080821115620002ad57600080fd5b50620002bc85828601620001a5565b9150509250929050565b600181811c90821680620002db57607f821691505b60208210811415620002fd57634e487b7160e01b600052602260045260246000fd5b50919050565b611c1880620003136000396000f3fe608060405234801561001057600080fd5b50600436106101375760003560e01c8063715018a6116100b8578063b88d4fde1161007c578063b88d4fde14610280578063c87b56dd14610293578063d0def521146102a6578063e985e9c5146102b9578063eb7edf49146102f5578063f2fde38b1461030857600080fd5b8063715018a6146102395780637e2ec930146102415780638da5cb5b1461025457806395d89b4114610265578063a22cb4651461026d57600080fd5b806323b872dd116100ff57806323b872dd146101cc57806342842e0e146101df57806355f804b3146101f25780636352211e1461020557806370a082311461021857600080fd5b806301ffc9a71461013c57806306fdde0314610164578063081812fc14610179578063095ea7b3146101a4578063162094c4146101b9575b600080fd5b61014f61014a366004611489565b61031b565b60405190151581526020015b60405180910390f35b61016c61036d565b60405161015b91906114fe565b61018c610187366004611511565b6103ff565b6040516001600160a01b03909116815260200161015b565b6101b76101b2366004611546565b610499565b005b6101b76101c736600461162f565b6105af565b6101b76101da366004611676565b610647565b6101b76101ed366004611676565b610678565b6101b76102003660046116b2565b610693565b61018c610213366004611511565b6106d4565b61022b6102263660046116e7565b61074b565b60405190815260200161015b565b6101b76107d2565b6101b761024f366004611546565b610808565b6006546001600160a01b031661018c565b61016c6108b6565b6101b761027b366004611702565b6108c5565b6101b761028e36600461173e565b61098a565b61016c6102a1366004611511565b6109c2565b6101b76102b43660046117ba565b610aed565b61014f6102c73660046117f2565b6001600160a01b03918216600090815260056020908152604080832093909416825291909152205460ff1690565b6101b76103033660046118d9565b610b5e565b6101b76103163660046116e7565b610be3565b60006001600160e01b031982166380ac58cd60e01b148061034c57506001600160e01b03198216635b5e139f60e01b145b8061036757506301ffc9a760e01b6001600160e01b03198316145b92915050565b60606000805461037c90611988565b80601f01602080910402602001604051908101604052809291908181526020018280546103a890611988565b80156103f55780601f106103ca576101008083540402835291602001916103f5565b820191906000526020600020905b8154815290600101906020018083116103d857829003601f168201915b5050505050905090565b6000818152600260205260408120546001600160a01b031661047d5760405162461bcd60e51b815260206004820152602c60248201527f4552433732313a20617070726f76656420717565727920666f72206e6f6e657860448201526b34b9ba32b73a103a37b5b2b760a11b60648201526084015b60405180910390fd5b506000908152600460205260409020546001600160a01b031690565b60006104a4826106d4565b9050806001600160a01b0316836001600160a01b031614156105125760405162461bcd60e51b815260206004820152602160248201527f4552433732313a20617070726f76616c20746f2063757272656e74206f776e656044820152603960f91b6064820152608401610474565b336001600160a01b038216148061052e575061052e81336102c7565b6105a05760405162461bcd60e51b815260206004820152603860248201527f4552433732313a20617070726f76652063616c6c6572206973206e6f74206f7760448201527f6e6572206e6f7220617070726f76656420666f7220616c6c00000000000000006064820152608401610474565b6105aa8383610c7e565b505050565b6000828152600260205260409020546001600160a01b03166106285760405162461bcd60e51b815260206004820152602c60248201527f4552433732314d657461646174613a2055524920736574206f66206e6f6e657860448201526b34b9ba32b73a103a37b5b2b760a11b6064820152608401610474565b600082815260096020908152604090912082516105aa928401906113da565b6106513382610cec565b61066d5760405162461bcd60e51b8152600401610474906119c3565b6105aa838383610de3565b6105aa8383836040518060200160405280600081525061098a565b6006546001600160a01b031633146106bd5760405162461bcd60e51b815260040161047490611a14565b80516106d090600a9060208401906113da565b5050565b6000818152600260205260408120546001600160a01b0316806103675760405162461bcd60e51b815260206004820152602960248201527f4552433732313a206f776e657220717565727920666f72206e6f6e657869737460448201526832b73a103a37b5b2b760b91b6064820152608401610474565b60006001600160a01b0382166107b65760405162461bcd60e51b815260206004820152602a60248201527f4552433732313a2062616c616e636520717565727920666f7220746865207a65604482015269726f206164647265737360b01b6064820152608401610474565b506001600160a01b031660009081526003602052604090205490565b6006546001600160a01b031633146107fc5760405162461bcd60e51b815260040161047490611a14565b6108066000610f83565b565b6006546001600160a01b031633146108325760405162461bcd60e51b815260040161047490611a14565b60015b8181116105aa576000610846610fd5565b90506008548111156108915760405162461bcd60e51b8152602060048201526014602482015273546f6b656e2069732066756c6c20746f2039393960601b6044820152606401610474565b61089b8482610feb565b6108a3611005565b50806108ae81611a5f565b915050610835565b60606001805461037c90611988565b6001600160a01b03821633141561091e5760405162461bcd60e51b815260206004820152601960248201527f4552433732313a20617070726f766520746f2063616c6c6572000000000000006044820152606401610474565b3360008181526005602090815260408083206001600160a01b03871680855290835292819020805460ff191686151590811790915590519081529192917f17307eab39ab6107e8899845ad3d59bd9653f200f220920489ca2b5937696c31910160405180910390a35050565b6109943383610cec565b6109b05760405162461bcd60e51b8152600401610474906119c3565b6109bc8484848461101c565b50505050565b6000818152600260205260409020546060906001600160a01b0316610a415760405162461bcd60e51b815260206004820152602f60248201527f4552433732314d657461646174613a2055524920717565727920666f72206e6f60448201526e3732bc34b9ba32b73a103a37b5b2b760891b6064820152608401610474565b60008281526009602052604081208054610a5a90611988565b80601f0160208091040260200160405190810160405280929190818152602001828054610a8690611988565b8015610ad35780601f10610aa857610100808354040283529160200191610ad3565b820191906000526020600020905b815481529060010190602001808311610ab657829003601f168201915b505050505090506000610ae461104f565b50909392505050565b6000610af7610fd5565b9050600854811115610b425760405162461bcd60e51b8152602060048201526014602482015273546f6b656e2069732066756c6c20746f2039393960601b6044820152606401610474565b610b4c8382611145565b610b5681836105af565b6105aa611005565b6006546001600160a01b03163314610b885760405162461bcd60e51b815260040161047490611a14565b815160005b818110156109bc57610bd1848281518110610baa57610baa611a7a565b6020026020010151848381518110610bc457610bc4611a7a565b60200260200101516105af565b80610bdb81611a5f565b915050610b8d565b6006546001600160a01b03163314610c0d5760405162461bcd60e51b815260040161047490611a14565b6001600160a01b038116610c725760405162461bcd60e51b815260206004820152602660248201527f4f776e61626c653a206e6577206f776e657220697320746865207a65726f206160448201526564647265737360d01b6064820152608401610474565b610c7b81610f83565b50565b600081815260046020526040902080546001600160a01b0319166001600160a01b0384169081179091558190610cb3826106d4565b6001600160a01b03167f8c5be1e5ebec7d5bd14f71427d1e84f3dd0314c0f7b2291e5b200ac8c7c3b92560405160405180910390a45050565b6000818152600260205260408120546001600160a01b0316610d655760405162461bcd60e51b815260206004820152602c60248201527f4552433732313a206f70657261746f7220717565727920666f72206e6f6e657860448201526b34b9ba32b73a103a37b5b2b760a11b6064820152608401610474565b6000610d70836106d4565b9050806001600160a01b0316846001600160a01b03161480610dab5750836001600160a01b0316610da0846103ff565b6001600160a01b0316145b80610ddb57506001600160a01b0380821660009081526005602090815260408083209388168352929052205460ff165b949350505050565b826001600160a01b0316610df6826106d4565b6001600160a01b031614610e5e5760405162461bcd60e51b815260206004820152602960248201527f4552433732313a207472616e73666572206f6620746f6b656e2074686174206960448201526839903737ba1037bbb760b91b6064820152608401610474565b6001600160a01b038216610ec05760405162461bcd60e51b8152602060048201526024808201527f4552433732313a207472616e7366657220746f20746865207a65726f206164646044820152637265737360e01b6064820152608401610474565b610ecb600082610c7e565b6001600160a01b0383166000908152600360205260408120805460019290610ef4908490611a90565b90915550506001600160a01b0382166000908152600360205260408120805460019290610f22908490611aa7565b909155505060008181526002602052604080822080546001600160a01b0319166001600160a01b0386811691821790925591518493918716917fddf252ad1be2c89b69c2b068fc378daa952ba7f163c4a11628f55a4df523b3ef91a4505050565b600680546001600160a01b038381166001600160a01b0319831681179093556040519116919082907f8be0079c531659141344cd1fd0a4f28419497f9722a3daafe3b4186f6b6457e090600090a35050565b600754600090610fe6906001611287565b905090565b6106d082826040518060200160405280600081525061129a565b6007805490600061101583611a5f565b9190505550565b611027848484610de3565b611033848484846112cd565b6109bc5760405162461bcd60e51b815260040161047490611abf565b6060604051806060016040528060398152602001611baa60399139905090565b8115611095578061107f81611a5f565b915061108e9050600a83611b27565b915061106f565b60008167ffffffffffffffff8111156110b0576110b0611570565b6040519080825280601f01601f1916602001820160405280156110da576020820181803683370190505b5090505b8415610ddb576110ef600183611a90565b91506110fc600a86611b3b565b611107906030611aa7565b60f81b81838151811061111c5761111c611a7a565b60200101906001600160f81b031916908160001a90535061113e600a86611b27565b94506110de565b6001600160a01b03821661119b5760405162461bcd60e51b815260206004820181905260248201527f4552433732313a206d696e7420746f20746865207a65726f20616464726573736044820152606401610474565b6000818152600260205260409020546001600160a01b0316156112005760405162461bcd60e51b815260206004820152601c60248201527f4552433732313a20746f6b656e20616c7265616479206d696e746564000000006044820152606401610474565b6001600160a01b0382166000908152600360205260408120805460019290611229908490611aa7565b909155505060008181526002602052604080822080546001600160a01b0319166001600160a01b03861690811790915590518392907fddf252ad1be2c89b69c2b068fc378daa952ba7f163c4a11628f55a4df523b3ef908290a45050565b60006112938284611aa7565b9392505050565b6112a48383611145565b6112b160008484846112cd565b6105aa5760405162461bcd60e51b815260040161047490611abf565b60006001600160a01b0384163b156113cf57604051630a85bd0160e11b81526001600160a01b0385169063150b7a0290611311903390899088908890600401611b4f565b602060405180830381600087803b15801561132b57600080fd5b505af192505050801561135b575060408051601f3d908101601f1916820190925261135891810190611b8c565b60015b6113b5573d808015611389576040519150601f19603f3d011682016040523d82523d6000602084013e61138e565b606091505b5080516113ad5760405162461bcd60e51b815260040161047490611abf565b805181602001fd5b6001600160e01b031916630a85bd0160e11b149050610ddb565b506001949350505050565b8280546113e690611988565b90600052602060002090601f016020900481019282611408576000855561144e565b82601f1061142157805160ff191683800117855561144e565b8280016001018555821561144e579182015b8281111561144e578251825591602001919060010190611433565b5061145a92915061145e565b5090565b5b8082111561145a576000815560010161145f565b6001600160e01b031981168114610c7b57600080fd5b60006020828403121561149b57600080fd5b813561129381611473565b60005b838110156114c15781810151838201526020016114a9565b838111156109bc5750506000910152565b600081518084526114ea8160208601602086016114a6565b601f01601f19169290920160200192915050565b60208152600061129360208301846114d2565b60006020828403121561152357600080fd5b5035919050565b80356001600160a01b038116811461154157600080fd5b919050565b6000806040838503121561155957600080fd5b6115628361152a565b946020939093013593505050565b634e487b7160e01b600052604160045260246000fd5b604051601f8201601f1916810167ffffffffffffffff811182821017156115af576115af611570565b604052919050565b600067ffffffffffffffff8311156115d1576115d1611570565b6115e4601f8401601f1916602001611586565b90508281528383830111156115f857600080fd5b828260208301376000602084830101529392505050565b600082601f83011261162057600080fd5b611293838335602085016115b7565b6000806040838503121561164257600080fd5b82359150602083013567ffffffffffffffff81111561166057600080fd5b61166c8582860161160f565b9150509250929050565b60008060006060848603121561168b57600080fd5b6116948461152a565b92506116a26020850161152a565b9150604084013590509250925092565b6000602082840312156116c457600080fd5b813567ffffffffffffffff8111156116db57600080fd5b610ddb8482850161160f565b6000602082840312156116f957600080fd5b6112938261152a565b6000806040838503121561171557600080fd5b61171e8361152a565b91506020830135801515811461173357600080fd5b809150509250929050565b6000806000806080858703121561175457600080fd5b61175d8561152a565b935061176b6020860161152a565b925060408501359150606085013567ffffffffffffffff81111561178e57600080fd5b8501601f8101871361179f57600080fd5b6117ae878235602084016115b7565b91505092959194509250565b600080604083850312156117cd57600080fd5b6117d68361152a565b9150602083013567ffffffffffffffff81111561166057600080fd5b6000806040838503121561180557600080fd5b61180e8361152a565b915061181c6020840161152a565b90509250929050565b600067ffffffffffffffff82111561183f5761183f611570565b5060051b60200190565b600082601f83011261185a57600080fd5b8135602061186f61186a83611825565b611586565b82815260059290921b8401810191818101908684111561188e57600080fd5b8286015b848110156118ce57803567ffffffffffffffff8111156118b25760008081fd5b6118c08986838b010161160f565b845250918301918301611892565b509695505050505050565b600080604083850312156118ec57600080fd5b823567ffffffffffffffff8082111561190457600080fd5b818501915085601f83011261191857600080fd5b8135602061192861186a83611825565b82815260059290921b8401810191818101908984111561194757600080fd5b948201945b838610156119655785358252948201949082019061194c565b9650508601359250508082111561197b57600080fd5b5061166c85828601611849565b600181811c9082168061199c57607f821691505b602082108114156119bd57634e487b7160e01b600052602260045260246000fd5b50919050565b60208082526031908201527f4552433732313a207472616e736665722063616c6c6572206973206e6f74206f6040820152701ddb995c881b9bdc88185c1c1c9bdd9959607a1b606082015260800190565b6020808252818101527f4f776e61626c653a2063616c6c6572206973206e6f7420746865206f776e6572604082015260600190565b634e487b7160e01b600052601160045260246000fd5b6000600019821415611a7357611a73611a49565b5060010190565b634e487b7160e01b600052603260045260246000fd5b600082821015611aa257611aa2611a49565b500390565b60008219821115611aba57611aba611a49565b500190565b60208082526032908201527f4552433732313a207472616e7366657220746f206e6f6e20455243373231526560408201527131b2b4bb32b91034b6b83632b6b2b73a32b960711b606082015260800190565b634e487b7160e01b600052601260045260246000fd5b600082611b3657611b36611b11565b500490565b600082611b4a57611b4a611b11565b500690565b6001600160a01b0385811682528416602082015260408101839052608060608201819052600090611b82908301846114d2565b9695505050505050565b600060208284031215611b9e57600080fd5b81516112938161147356fe68747470733a2f2f6f70656e7365612d6372656174757265732d6170692e6865726f6b756170702e636f6d2f6170692f63726561747572652fa2646970667358221220667100b0571adca6c3b3605dd2c2a6a1ea3b546ed8de59850c3a4b94d7e738d064736f6c63430008090033",
  "immutableReferences": {},
  "source": "// SPDX-License-Identifier: MIT\r\n\r\npragma solidity ^0.8.1;\r\n\r\n    import \"@openzeppelin/contracts/token/ERC721/ERC721.sol\";\r\n    import \"@openzeppelin/contracts/access/Ownable.sol\";\r\n    import \"@openzeppelin/contracts/utils/math/SafeMath.sol\";\r\n\r\n    contract NFT is ERC721, Ownable {\r\n        using SafeMath for uint256;\r\n        using Strings for uint256;\r\n        uint256 private _currentTokenId = 0;\r\n        uint256 private _limitTokenCount = 999;\r\n        \r\n        // Optional mapping for token URIs\r\n        mapping (uint256 => string) private _tokenURIs;\r\n\r\n        // Base URI\r\n        string private _baseURIextended;\r\n\r\n\r\n        constructor(string memory _name, string memory _symbol)\r\n            ERC721(_name, _symbol)\r\n        {\r\n            // string memory tokenURI = \"https://ipfs.io/ipfs/bafybeidup2l6yqplc5whof7lu27oprggrkpvh6fwqastrfwymcp3bsgley/metadata.json\";\r\n            // for (uint256 i = 1; i < 1000; i++) {\r\n            //     uint256 newTokenId = _getNextTokenId();\r\n            //     require(newTokenId <= _limitTokenCount, \"Token is full to 999\");\r\n            //     _safeMint(address(0xe59ec378c5bd6e2CBEBCabF8F23fC323bFcD63C2), newTokenId);\r\n            //     //_setTokenURI(newTokenId, tokenURI);\r\n            //     _incrementTokenId();\r\n            // }\r\n        }\r\n\r\n        /**\r\n         * @dev calculates the next token ID based on value of _currentTokenId\r\n         * @return uint256 for the next token ID\r\n         */\r\n        function _getNextTokenId() private view returns (uint256) {\r\n            return _currentTokenId.add(1);\r\n        }\r\n\r\n        /**\r\n         * @dev increments the value of _currentTokenId\r\n         */\r\n        function _incrementTokenId() private {\r\n            _currentTokenId++;\r\n        }\r\n        \r\n        function setBaseURI(string memory baseURI_) external onlyOwner() {\r\n            _baseURIextended = baseURI_;\r\n        }\r\n        \r\n        function _setTokenURI(uint256 tokenId, string memory _tokenURI) internal virtual {\r\n            require(_exists(tokenId), \"ERC721Metadata: URI set of nonexistent token\");\r\n            _tokenURIs[tokenId] = _tokenURI;\r\n        }\r\n        \r\n        function setTokenURI(uint256 tokenId, string memory _tokenURI) public virtual {\r\n            require(_exists(tokenId), \"ERC721Metadata: URI set of nonexistent token\");\r\n            _tokenURIs[tokenId] = _tokenURI;\r\n        }\r\n        \r\n        function setMultiTokenURIs(uint256 [] memory tokenIds, string [] memory _tokenURIs) external onlyOwner() {\r\n            uint256 length = tokenIds.length;\r\n            for (uint256 i = 0; i < length; i++) {\r\n                setTokenURI(tokenIds[i], _tokenURIs[i]);\r\n            }\r\n        }\r\n        \r\n        function mintMultiNFT(address _to, uint256 amount) external onlyOwner() {\r\n            for (uint256 i = 1; i <= amount; i++) {\r\n                uint256 newTokenId = _getNextTokenId();\r\n                require(newTokenId <= _limitTokenCount, \"Token is full to 999\");\r\n                _safeMint(_to, newTokenId);\r\n                //_setTokenURI(newTokenId, tokenURI_);\r\n                _incrementTokenId();\r\n            }\r\n        }\r\n        \r\n        // function mintNFT(address _to, string memory tokenURI_) public payable {\r\n            \r\n        //     for (uint i = 0; i < 999; i++) {\r\n        //         uint mintIndex = totalSupply();\r\n        //         if (block.timestamp < REVEAL_TIMESTAMP) {\r\n        //             _mintedBeforeReveal[mintIndex] = true;\r\n        //         }\r\n        //         _safeMint(msg.sender, mintIndex);\r\n        //     }\r\n    \r\n        //     /**\r\n        //     * Source of randomness. Theoretical miner withhold manipulation possible but should be sufficient in a pragmatic sense\r\n        //     */\r\n        //     if (startingIndexBlock == 0 && (totalSupply() == MAX_NFT_SUPPLY || block.timestamp >= REVEAL_TIMESTAMP)) {\r\n        //         startingIndexBlock = block.number;\r\n        //     }\r\n        // }\r\n\r\n        function _baseURI() internal view virtual override returns (string memory) {\r\n            return \"https://opensea-creatures-api.herokuapp.com/api/creature/\";\r\n        }\r\n        \r\n        function tokenURI(uint256 tokenId) public view virtual override returns (string memory) {\r\n            require(_exists(tokenId), \"ERC721Metadata: URI query for nonexistent token\");\r\n\r\n            string memory _tokenURI = _tokenURIs[tokenId];\r\n            string memory base = _baseURI();\r\n            return _tokenURI;\r\n            \r\n            // If there is no base URI, return the token URI.\r\n            if (bytes(base).length == 0) {\r\n                return _tokenURI;\r\n            }\r\n            // If both are set, concatenate the baseURI and tokenURI (via abi.encodePacked).\r\n            if (bytes(_tokenURI).length > 0) {\r\n                return string(abi.encodePacked(base, _tokenURI));\r\n            }\r\n            // If there is a baseURI but no tokenURI, concatenate the tokenID to the baseURI.\r\n            return string(abi.encodePacked(base, tokenId.toString()));\r\n        }\r\n        \r\n        function mint(\r\n            address _to,\r\n            string memory tokenURI_\r\n        ) public {\r\n            uint256 newTokenId = _getNextTokenId();\r\n            require(newTokenId <= _limitTokenCount, \"Token is full to 999\");\r\n            _mint(_to, newTokenId);\r\n            _setTokenURI(newTokenId, tokenURI_);\r\n            _incrementTokenId();\r\n        }\r\n    }",
  "sourcePath": "E:\\Blockchain\\Greentoken-presale-project\\contracts\\nft.sol",
  "compiler": {
    "name": "solc",
    "version": "0.8.9+commit.e5eed63a.Emscripten.clang"
  },
  "schemaVersion": "3.4.3",
  "updatedAt": "2021-10-08T19:35:07.513Z",
  "devdoc": {
    "kind": "dev",
    "methods": {
      "approve(address,uint256)": {
        "details": "See {IERC721-approve}."
      },
      "balanceOf(address)": {
        "details": "See {IERC721-balanceOf}."
      },
      "getApproved(uint256)": {
        "details": "See {IERC721-getApproved}."
      },
      "isApprovedForAll(address,address)": {
        "details": "See {IERC721-isApprovedForAll}."
      },
      "name()": {
        "details": "See {IERC721Metadata-name}."
      },
      "owner()": {
        "details": "Returns the address of the current owner."
      },
      "ownerOf(uint256)": {
        "details": "See {IERC721-ownerOf}."
      },
      "renounceOwnership()": {
        "details": "Leaves the contract without owner. It will not be possible to call `onlyOwner` functions anymore. Can only be called by the current owner. NOTE: Renouncing ownership will leave the contract without an owner, thereby removing any functionality that is only available to the owner."
      },
      "safeTransferFrom(address,address,uint256)": {
        "details": "See {IERC721-safeTransferFrom}."
      },
      "safeTransferFrom(address,address,uint256,bytes)": {
        "details": "See {IERC721-safeTransferFrom}."
      },
      "setApprovalForAll(address,bool)": {
        "details": "See {IERC721-setApprovalForAll}."
      },
      "supportsInterface(bytes4)": {
        "details": "See {IERC165-supportsInterface}."
      },
      "symbol()": {
        "details": "See {IERC721Metadata-symbol}."
      },
      "tokenURI(uint256)": {
        "details": "See {IERC721Metadata-tokenURI}."
      },
      "transferFrom(address,address,uint256)": {
        "details": "See {IERC721-transferFrom}."
      },
      "transferOwnership(address)": {
        "details": "Transfers ownership of the contract to a new account (`newOwner`). Can only be called by the current owner."
      }
    },
    "version": 1
  },
  "userdoc": {
    "kind": "user",
    "methods": {},
    "version": 1
  }
}