{
  "contractName": "AirDrop",
  "abi": [
    {
      "inputs": [
        {
          "internalType": "address",
          "name": "wallet",
          "type": "address"
        },
        {
          "internalType": "uint256",
          "name": "endContest",
          "type": "uint256"
        }
      ],
      "stateMutability": "nonpayable",
      "type": "constructor"
    },
    {
      "anonymous": false,
      "inputs": [
        {
          "indexed": true,
          "internalType": "address",
          "name": "previousOwner",
          "type": "address"
        },
        {
          "indexed": true,
          "internalType": "address",
          "name": "newOwner",
          "type": "address"
        }
      ],
      "name": "OwnershipTransferred",
      "type": "event"
    },
    {
      "inputs": [],
      "name": "owner",
      "outputs": [
        {
          "internalType": "address",
          "name": "",
          "type": "address"
        }
      ],
      "stateMutability": "view",
      "type": "function"
    },
    {
      "inputs": [],
      "name": "renounceOwnership",
      "outputs": [],
      "stateMutability": "nonpayable",
      "type": "function"
    },
    {
      "inputs": [
        {
          "internalType": "address",
          "name": "newOwner",
          "type": "address"
        }
      ],
      "name": "transferOwnership",
      "outputs": [],
      "stateMutability": "nonpayable",
      "type": "function"
    },
    {
      "inputs": [
        {
          "internalType": "address[]",
          "name": "attenders",
          "type": "address[]"
        }
      ],
      "name": "initContest",
      "outputs": [],
      "stateMutability": "nonpayable",
      "type": "function"
    },
    {
      "inputs": [],
      "name": "claimBNBs",
      "outputs": [],
      "stateMutability": "payable",
      "type": "function"
    },
    {
      "inputs": [],
      "name": "stopAirDrop",
      "outputs": [],
      "stateMutability": "nonpayable",
      "type": "function"
    }
  ],
  "bytecode": "0x6080604052600060065534801561001557600080fd5b50604051610d7d380380610d7d8339810160408190526100349161018f565b61003d3361013f565b6001600160a01b0382166100b15760405162461bcd60e51b815260206004820152603060248201527f41495244524f503a2057616c6c657420616464726573732063616e277420626560448201526f2061207a65726f20616464726573732160801b60648201526084015b60405180910390fd5b6000811161010c5760405162461bcd60e51b815260206004820152602260248201527f41495244524f503a20456e6420636f6e746573742063616e2774206265207a65604482015261726f60f01b60648201526084016100a8565b600280546001600160a01b0319166001600160a01b0393909316929092179091556007805460ff191690556006556101c9565b600080546001600160a01b038381166001600160a01b0319831681178455604051919092169283917f8be0079c531659141344cd1fd0a4f28419497f9722a3daafe3b4186f6b6457e09190a35050565b600080604083850312156101a257600080fd5b82516001600160a01b03811681146101b957600080fd5b6020939093015192949293505050565b610ba5806101d86000396000f3fe6080604052600436106100545760003560e01c8062d412ae14610059578063715018a6146100705780638da5cb5b14610085578063b350c22e146100b1578063f2fde38b146100b9578063f361e3c2146100d9575b600080fd5b34801561006557600080fd5b5061006e6100f9565b005b34801561007c57600080fd5b5061006e610169565b34801561009157600080fd5b50600054604080516001600160a01b039092168252519081900360200190f35b61006e61019f565b3480156100c557600080fd5b5061006e6100d436600461091c565b6102e7565b3480156100e557600080fd5b5061006e6100f436600461094d565b61037f565b60075460ff1615156001146101295760405162461bcd60e51b815260040161012090610a12565b60405180910390fd5b600060065411801561013c575060065442105b6101585760405162461bcd60e51b815260040161012090610a12565b60006006556007805460ff19169055565b6000546001600160a01b031633146101935760405162461bcd60e51b815260040161012090610a58565b61019d6000610595565b565b60075460ff1615156001146101c65760405162461bcd60e51b815260040161012090610a12565b60006006541180156101d9575060065442105b6101f55760405162461bcd60e51b815260040161012090610a12565b6003543390156102b1576001600160a01b03811660009081526004602052604090205461028a5760405162461bcd60e51b815260206004820152603960248201527f41495244524f503a2043757272656e742075736572206973206e6f742061206d60448201527f656d626572206f6620636f6e7465737420616e796d6f726521000000000000006064820152608401610120565b6001600160a01b0381166000908152600460205260409020546102ae9082906105e5565b50565b600047116102d15760405162461bcd60e51b815260040161012090610a8d565b6002546102ae906001600160a01b0316476105e5565b6000546001600160a01b031633146103115760405162461bcd60e51b815260040161012090610a58565b6001600160a01b0381166103765760405162461bcd60e51b815260206004820152602660248201527f4f776e61626c653a206e6577206f776e657220697320746865207a65726f206160448201526564647265737360d01b6064820152608401610120565b6102ae81610595565b6000546001600160a01b031633146103a95760405162461bcd60e51b815260040161012090610a58565b60075460ff16156104075760405162461bcd60e51b815260206004820152602260248201527f41495244524f503a20436c61696d20686173206265656e206163746976617465604482015261642160f01b6064820152608401610120565b42600654106104585760405162461bcd60e51b815260206004820181905260248201527f41495244524f503a20436c61696d20686173206265656e2065787069726564216044820152606401610120565b60005b815181101561050d5760006001600160a01b031682828151811061048157610481610ad0565b60200260200101516001600160a01b031614156104fb5760405162461bcd60e51b815260206004820152603260248201527f41495244524f503a20417474656e64657220416464726573732063616e27742060448201527162652061207a65726f20616464726573732160701b6064820152608401610120565b8061050581610afc565b91505061045b565b508051610521906003906020840190610886565b50610585600380548060200260200160405190810160405280929190818152602001828054801561057b57602002820191906000526020600020905b81546001600160a01b0316815260019091019060200180831161055d575b50505050506106fa565b506007805460ff19166001179055565b600080546001600160a01b038381166001600160a01b0319831681178455604051919092169283917f8be0079c531659141344cd1fd0a4f28419497f9722a3daafe3b4186f6b6457e09190a35050565b60075460ff16151560011461060c5760405162461bcd60e51b815260040161012090610a12565b600060065411801561061f575060065442105b61063b5760405162461bcd60e51b815260040161012090610a12565b6000826001600160a01b03168260405160006040518083038185875af1925050503d8060008114610688576040519150601f19603f3d011682016040523d82523d6000602084013e61068d565b606091505b50509050806106de5760405162461bcd60e51b815260206004820152601a60248201527f57495448445241573a205472616e73666572206661696c65642e0000000000006044820152606401610120565b50506001600160a01b0316600090815260046020526040812055565b6000471161071a5760405162461bcd60e51b815260040161012090610a8d565b600081511161077b5760405162461bcd60e51b815260206004820152602760248201527f41495244524f503a204e6f20617474656e6465727320666f72207468697320636044820152666f6e746573742160c81b6064820152608401610120565b805160006107894783610867565b905060005b828110156108615781600460008684815181106107ad576107ad610ad0565b6020908102919091018101516001600160a01b03168252810191909152604001600020556107dc836001610867565b81141561084f576107f86107f1846001610867565b839061087a565b6108029047610b17565b6004600086610812856001610867565b8151811061082257610822610ad0565b60200260200101516001600160a01b03166001600160a01b03168152602001908152602001600020819055505b8061085981610afc565b91505061078e565b50505050565b60006108738284610b2e565b9392505050565b60006108738284610b50565b8280548282559060005260206000209081019282156108db579160200282015b828111156108db57825182546001600160a01b0319166001600160a01b039091161782556020909201916001909101906108a6565b506108e79291506108eb565b5090565b5b808211156108e757600081556001016108ec565b80356001600160a01b038116811461091757600080fd5b919050565b60006020828403121561092e57600080fd5b61087382610900565b634e487b7160e01b600052604160045260246000fd5b6000602080838503121561096057600080fd5b823567ffffffffffffffff8082111561097857600080fd5b818501915085601f83011261098c57600080fd5b81358181111561099e5761099e610937565b8060051b604051601f19603f830116810181811085821117156109c3576109c3610937565b6040529182528482019250838101850191888311156109e157600080fd5b938501935b82851015610a06576109f785610900565b845293850193928501926109e6565b98975050505050505050565b60208082526026908201527f41495244524f503a20436c61696d20686173206e6f74206265656e206163746960408201526576617465642160d01b606082015260800190565b6020808252818101527f4f776e61626c653a2063616c6c6572206973206e6f7420746865206f776e6572604082015260600190565b60208082526023908201527f41495244524f503a2054686520636f6e747261637420686173206e6f206d6f6e60408201526265792160e81b606082015260800190565b634e487b7160e01b600052603260045260246000fd5b634e487b7160e01b600052601160045260246000fd5b6000600019821415610b1057610b10610ae6565b5060010190565b600082821015610b2957610b29610ae6565b500390565b600082610b4b57634e487b7160e01b600052601260045260246000fd5b500490565b6000816000190483118215151615610b6a57610b6a610ae6565b50029056fea2646970667358221220ae51a2b8086ec2f04ae5b8ced4cafd1cd26f0b546d23cb822bc7f943dc2494ce64736f6c63430008090033",
  "immutableReferences": {},
  "source": "// SPDX-License-Identifier: MIT\r\n\r\n/**\r\n *      &&&     &&&&& &&&&&&&&   &&&&&&&&   &&&&&&&&    &&&&&   &&&&&&&&\r\n *     &&&&&     &&&  &&&   &&&  &&&   &&&  &&&   &&&  &&&&&&&  &&&   &&&\r\n *    &&& &&&    &&&  &&&   &&&  &&&    &&& &&&   &&& &&&   &&& &&&   &&&\r\n *    &&& &&&    &&&  &&&&&&&&   &&&    &&& &&&&&&&&  &&&   &&& &&&&&&&&\r\n *   &&&   &&&   &&&  &&&   &&&  &&&    &&& &&&   &&& &&&   &&& &&&\r\n *   &&&&&&&&&   &&&  &&&   &&&  &&&   &&&  &&&   &&&  &&&&&&&  &&&\r\n *  &&&     &&& &&&&& &&&    &&& &&&&&&&&   &&&    &&&  &&&&&   &&&\r\n */\r\n\r\npragma solidity ^0.8.7;\r\n\r\nimport \"@openzeppelin/contracts/utils/Context.sol\";\r\nimport \"@openzeppelin/contracts/utils/Address.sol\";\r\nimport \"@openzeppelin/contracts/interfaces/IERC20.sol\";\r\nimport \"@openzeppelin/contracts/utils/math/SafeMath.sol\";\r\nimport \"@openzeppelin/contracts/access/Ownable.sol\";\r\n\r\n// DemoGreen Airdrop & Claim Feature\r\ncontract AirDrop is Context, Ownable {\r\n  using SafeMath for uint256;\r\n  using Address for address;\r\n\r\n  IERC20 private _token;\r\n  address private _rewardWallet;\r\n  address[] private _attenders;\r\n  mapping(address => uint256) private _claimAmounts;\r\n  \r\n  uint256 private _weiRaised;\r\n\r\n  uint256 private _endContest = 0;\r\n  bool private _claimActivated;\r\n\r\n  modifier claimActive() {\r\n    require(_claimActivated == true, \"AIRDROP: Claim has not been activated!\");\r\n    require(_endContest > 0 && block.timestamp < _endContest , \"AIRDROP: Claim has not been activated!\");\r\n\r\n    _;\r\n  }\r\n\r\n  modifier claimNotActive() {\r\n    require(_claimActivated == false, \"AIRDROP: Claim has been activated!\");\r\n    require(_endContest < block.timestamp, \"AIRDROP: Claim has been expired!\");\r\n\r\n    _;\r\n  }\r\n\r\n  constructor (address wallet, uint256 endContest) {\r\n    require(wallet != address(0), \"AIRDROP: Wallet address can't be a zero address!\");\r\n    require(endContest > 0, \"AIRDROP: End contest can't be zero\");\r\n\r\n    _rewardWallet = wallet;\r\n    _claimActivated = false;\r\n    _endContest = endContest;\r\n  }\r\n\r\n  function initContest(address[] memory attenders) public onlyOwner claimNotActive {\r\n    for (uint256 i = 0; i < attenders.length; i++) {\r\n      require(attenders[i] != address(0), \"AIRDROP: Attender Address can't be a zero address!\");\r\n    }\r\n\r\n    _attenders = attenders;\r\n    splitAmongContestors(_attenders);\r\n    _claimActivated = true;\r\n  }\r\n\r\n  function splitAmongContestors(address[] memory attenders) internal {\r\n    require(address(this).balance > 0, \"AIRDROP: The contract has no money!\");\r\n    require(attenders.length > 0, \"AIRDROP: No attenders for this contest!\");\r\n\r\n    uint256 attenderCounts = attenders.length;\r\n    uint256 airdropAmount = address(this).balance.div(attenderCounts);\r\n    for (uint256 i = 0; i < attenderCounts; i++) {\r\n      _claimAmounts[attenders[i]] = airdropAmount;\r\n\r\n      if (i == attenderCounts.div(1)) {\r\n        _claimAmounts[attenders[i.div(1)]] = address(this).balance - airdropAmount.mul(attenderCounts.div(1));\r\n      }\r\n    }\r\n  }\r\n\r\n  function claimBNBs() public payable claimActive {\r\n    address attender = _msgSender();\r\n    if (_attenders.length > 0) {\r\n      require(_claimAmounts[attender] != 0, \"AIRDROP: Current user is not a member of contest anymore!\");\r\n\r\n      _withdraw(attender, _claimAmounts[attender]);\r\n    } else {\r\n      require(address(this).balance > 0, \"AIRDROP: The contract has no money!\");\r\n\r\n      _withdraw(_rewardWallet, address(this).balance);\r\n    }\r\n  }\r\n\r\n  function stopAirDrop() public claimActive {\r\n    _endContest = 0;\r\n    _claimActivated = false;\r\n  }\r\n  function _withdraw(address _address, uint256 _amount) private claimActive {\r\n    (bool success, ) = _address.call{value: _amount}(\"\");\r\n\r\n    require(success, \"WITHDRAW: Transfer failed.\");\r\n    _claimAmounts[_address] = 0;\r\n  }\r\n\r\n}",
  "sourcePath": "E:\\Blockchain\\Greentoken-presale-project\\contracts\\DemoGreenClaimAirdrop.sol",
  "compiler": {
    "name": "solc",
    "version": "0.8.9+commit.e5eed63a.Emscripten.clang"
  },
  "schemaVersion": "3.4.2",
  "updatedAt": "2021-10-01T17:36:38.404Z",
  "devdoc": {
    "kind": "dev",
    "methods": {
      "owner()": {
        "details": "Returns the address of the current owner."
      },
      "renounceOwnership()": {
        "details": "Leaves the contract without owner. It will not be possible to call `onlyOwner` functions anymore. Can only be called by the current owner. NOTE: Renouncing ownership will leave the contract without an owner, thereby removing any functionality that is only available to the owner."
      },
      "transferOwnership(address)": {
        "details": "Transfers ownership of the contract to a new account (`newOwner`). Can only be called by the current owner."
      }
    },
    "version": 1
  },
  "userdoc": {
    "kind": "user",
    "methods": {},
    "version": 1
  }
}