{
  "contractName": "DemoGreelPreSale",
  "abi": [
    {
      "inputs": [
        {
          "internalType": "uint256",
          "name": "rate",
          "type": "uint256"
        },
        {
          "internalType": "address",
          "name": "wallet",
          "type": "address"
        },
        {
          "internalType": "contract IERC20",
          "name": "token",
          "type": "address"
        }
      ],
      "stateMutability": "nonpayable",
      "type": "constructor"
    },
    {
      "anonymous": false,
      "inputs": [
        {
          "indexed": true,
          "internalType": "address",
          "name": "previousOwner",
          "type": "address"
        },
        {
          "indexed": true,
          "internalType": "address",
          "name": "newOwner",
          "type": "address"
        }
      ],
      "name": "OwnershipTransferred",
      "type": "event"
    },
    {
      "anonymous": false,
      "inputs": [
        {
          "indexed": true,
          "internalType": "address",
          "name": "purchaser",
          "type": "address"
        },
        {
          "indexed": true,
          "internalType": "address",
          "name": "beneficiary",
          "type": "address"
        },
        {
          "indexed": false,
          "internalType": "uint256",
          "name": "value",
          "type": "uint256"
        },
        {
          "indexed": false,
          "internalType": "uint256",
          "name": "amount",
          "type": "uint256"
        }
      ],
      "name": "TokensPurchased",
      "type": "event"
    },
    {
      "inputs": [],
      "name": "availableTokensICO",
      "outputs": [
        {
          "internalType": "uint256",
          "name": "",
          "type": "uint256"
        }
      ],
      "stateMutability": "view",
      "type": "function"
    },
    {
      "inputs": [],
      "name": "endICO",
      "outputs": [
        {
          "internalType": "uint256",
          "name": "",
          "type": "uint256"
        }
      ],
      "stateMutability": "view",
      "type": "function"
    },
    {
      "inputs": [],
      "name": "isOwner",
      "outputs": [
        {
          "internalType": "bool",
          "name": "",
          "type": "bool"
        }
      ],
      "stateMutability": "view",
      "type": "function"
    },
    {
      "inputs": [],
      "name": "maxPurchase",
      "outputs": [
        {
          "internalType": "uint256",
          "name": "",
          "type": "uint256"
        }
      ],
      "stateMutability": "view",
      "type": "function"
    },
    {
      "inputs": [],
      "name": "minPurchase",
      "outputs": [
        {
          "internalType": "uint256",
          "name": "",
          "type": "uint256"
        }
      ],
      "stateMutability": "view",
      "type": "function"
    },
    {
      "inputs": [],
      "name": "owner",
      "outputs": [
        {
          "internalType": "address",
          "name": "",
          "type": "address"
        }
      ],
      "stateMutability": "view",
      "type": "function"
    },
    {
      "inputs": [],
      "name": "renounceOwnership",
      "outputs": [],
      "stateMutability": "nonpayable",
      "type": "function"
    },
    {
      "inputs": [
        {
          "internalType": "address",
          "name": "newOwner",
          "type": "address"
        }
      ],
      "name": "transferOwnership",
      "outputs": [],
      "stateMutability": "nonpayable",
      "type": "function"
    },
    {
      "stateMutability": "payable",
      "type": "receive"
    },
    {
      "inputs": [
        {
          "internalType": "uint256",
          "name": "endDate",
          "type": "uint256"
        },
        {
          "internalType": "uint256",
          "name": "_minPurchase",
          "type": "uint256"
        },
        {
          "internalType": "uint256",
          "name": "_maxPurchase",
          "type": "uint256"
        },
        {
          "internalType": "uint256",
          "name": "_availableTokens",
          "type": "uint256"
        }
      ],
      "name": "startICO",
      "outputs": [],
      "stateMutability": "nonpayable",
      "type": "function"
    },
    {
      "inputs": [],
      "name": "stopICO",
      "outputs": [],
      "stateMutability": "nonpayable",
      "type": "function"
    },
    {
      "inputs": [
        {
          "internalType": "address",
          "name": "beneficiary",
          "type": "address"
        }
      ],
      "name": "buyTokens",
      "outputs": [],
      "stateMutability": "payable",
      "type": "function"
    },
    {
      "inputs": [],
      "name": "_burnRemainTokens",
      "outputs": [],
      "stateMutability": "nonpayable",
      "type": "function"
    },
    {
      "inputs": [],
      "name": "withdraw",
      "outputs": [],
      "stateMutability": "nonpayable",
      "type": "function"
    },
    {
      "inputs": [],
      "name": "getToken",
      "outputs": [
        {
          "internalType": "contract IERC20",
          "name": "",
          "type": "address"
        }
      ],
      "stateMutability": "view",
      "type": "function"
    },
    {
      "inputs": [],
      "name": "getWallet",
      "outputs": [
        {
          "internalType": "address",
          "name": "",
          "type": "address"
        }
      ],
      "stateMutability": "view",
      "type": "function"
    },
    {
      "inputs": [],
      "name": "getRate",
      "outputs": [
        {
          "internalType": "uint256",
          "name": "",
          "type": "uint256"
        }
      ],
      "stateMutability": "view",
      "type": "function"
    },
    {
      "inputs": [
        {
          "internalType": "uint256",
          "name": "newRate",
          "type": "uint256"
        }
      ],
      "name": "setRate",
      "outputs": [],
      "stateMutability": "nonpayable",
      "type": "function"
    },
    {
      "inputs": [
        {
          "internalType": "uint256",
          "name": "amount",
          "type": "uint256"
        }
      ],
      "name": "setAvailableTokens",
      "outputs": [],
      "stateMutability": "nonpayable",
      "type": "function"
    },
    {
      "inputs": [],
      "name": "weiRaised",
      "outputs": [
        {
          "internalType": "uint256",
          "name": "",
          "type": "uint256"
        }
      ],
      "stateMutability": "view",
      "type": "function"
    }
  ],
  "bytecode": "0x60806040523480156200001157600080fd5b506040516200139a3803806200139a83398101604081905262000034916200020a565b6000805460ff19166001178155620000493390565b60008054610100600160a81b0319166101006001600160a01b038416908102919091178255604051929350917f8be0079c531659141344cd1fd0a4f28419497f9722a3daafe3b4186f6b6457e0908290a35060008311620000f15760405162461bcd60e51b815260206004820152601360248201527f5072652d53616c653a207261746520697320300000000000000000000000000060448201526064015b60405180910390fd5b6001600160a01b038216620001555760405162461bcd60e51b8152602060048201526024808201527f5072652d53616c653a2077616c6c657420697320746865207a65726f206164646044820152637265737360e01b6064820152608401620000e8565b6001600160a01b038116620001b95760405162461bcd60e51b815260206004820152602360248201527f5072652d53616c653a20746f6b656e20697320746865207a65726f206164647260448201526265737360e81b6064820152608401620000e8565b600392909255600280546001600160a01b039283166001600160a01b0319918216179091556001805492909316911617905562000252565b6001600160a01b03811681146200020757600080fd5b50565b6000806000606084860312156200022057600080fd5b8351925060208401516200023481620001f1565b60408501519092506200024781620001f1565b809150509250925092565b61113880620002626000396000f3fe6080604052600436106101185760003560e01c8063715018a6116100a0578063a41a028b11610064578063a41a028b14610333578063c8e569a814610349578063ec8ac4d81461035e578063f2fde38b1461036c578063f6d893ec1461038c57600080fd5b8063715018a61461029a5780637f0e91d4146102af5780638da5cb5b146102c45780638f32d59b146102e7578063977b055b1461031d57600080fd5b80633ccfd60b116100e75780633ccfd60b14610225578063401c6cd41461023a5780634042b66f1461025a5780634f2484091461026f578063679aefce1461028557600080fd5b8063132996041461018c57806321df0da7146101c357806333b5b62e146101e157806334fcf4371461020557600080fd5b36610187576000600554118015610130575060055442105b1561014557610143336103ac565b6103ac565b005b60405162461bcd60e51b8152602060048201526012602482015271141c994b54d85b19481a5cc818db1bdcd95960721b60448201526064015b60405180910390fd5b600080fd5b34801561019857600080fd5b506002546001600160a01b03165b6040516001600160a01b0390911681526020015b60405180910390f35b3480156101cf57600080fd5b506001546001600160a01b03166101a6565b3480156101ed57600080fd5b506101f760065481565b6040519081526020016101ba565b34801561021157600080fd5b50610143610220366004610f43565b61050d565b34801561023157600080fd5b50610143610547565b34801561024657600080fd5b50610143610255366004610f5c565b610600565b34801561026657600080fd5b506004546101f7565b34801561027b57600080fd5b506101f760055481565b34801561029157600080fd5b506003546101f7565b3480156102a657600080fd5b5061014361082c565b3480156102bb57600080fd5b506101436108b0565b3480156102d057600080fd5b5060005461010090046001600160a01b03166101a6565b3480156102f357600080fd5b5061030d60005461010090046001600160a01b0316331490565b60405190151581526020016101ba565b34801561032957600080fd5b506101f760075481565b34801561033f57600080fd5b506101f760085481565b34801561035557600080fd5b506101436109f5565b61014361013e366004610f8e565b34801561037857600080fd5b50610143610387366004610f8e565b610a93565b34801561039857600080fd5b506101436103a7366004610f43565b610ad1565b60005460ff166103fe5760405162461bcd60e51b815260206004820152601f60248201527f5265656e7472616e637947756172643a207265656e7472616e742063616c6c00604482015260640161017e565b6000805460ff191690556005541580159061041a575060055442105b801561042857506000600854115b6104695760405162461bcd60e51b815260206004820152601260248201527149434f206d7573742062652061637469766560701b604482015260640161017e565b346104748282610b0b565b600061047f82610c74565b60045490915061048f9083610c9e565b6004556008546104a0908290610fcd565b6008556104ad8382610d04565b60408051838152602081018390526001600160a01b0385169133917f6faf93231a456e552dbc9961f58d9713ee4f2e69d15f1975b050ef0911053a7b910160405180910390a36104fb610d0e565b50506000805460ff1916600117905550565b61052660005461010090046001600160a01b0316331490565b6105425760405162461bcd60e51b815260040161017e90610fe4565b600355565b61056060005461010090046001600160a01b0316331490565b61057c5760405162461bcd60e51b815260040161017e90610fe4565b600047116105c45760405162461bcd60e51b8152602060048201526015602482015274436f6e747261637420686173206e6f206d6f6e657960581b604482015260640161017e565b6002546040516001600160a01b03909116904780156108fc02916000818181858888f193505050501580156105fd573d6000803e3d6000fd5b50565b61061960005461010090046001600160a01b0316331490565b6106355760405162461bcd60e51b815260040161017e90610fe4565b42600554106106865760405162461bcd60e51b815260206004820152601860248201527f49434f2073686f756c64206e6f74206265206163746976650000000000000000604482015260640161017e565b4284116106ce5760405162461bcd60e51b815260206004820152601660248201527506475726174696f6e2073686f756c64206265203e20360541b604482015260640161017e565b6000811180156107635750600160009054906101000a90046001600160a01b03166001600160a01b03166318160ddd6040518163ffffffff1660e01b815260040160206040518083038186803b15801561072757600080fd5b505afa15801561073b573d6000803e3d6000fd5b505050506040513d601f19601f8201168201806040525081019061075f9190611019565b8111155b6107c85760405162461bcd60e51b815260206004820152603060248201527f617661696c61626c65546f6b656e732073686f756c64206265203e203020616e60448201526f64203c3d20746f74616c537570706c7960801b606482015260840161017e565b600083116108185760405162461bcd60e51b815260206004820152601760248201527f5f6d696e50757263686173652073686f756c64203e2030000000000000000000604482015260640161017e565b600593909355600892909255600655600755565b61084560005461010090046001600160a01b0316331490565b6108615760405162461bcd60e51b815260040161017e90610fe4565b600080546040516101009091046001600160a01b0316907f8be0079c531659141344cd1fd0a4f28419497f9722a3daafe3b4186f6b6457e0908390a360008054610100600160a81b0319169055565b6108c960005461010090046001600160a01b0316331490565b6108e55760405162461bcd60e51b815260040161017e90610fe4565b6001546040516370a0823160e01b815230600482015261dead916000916001600160a01b03909116906370a082319060240160206040518083038186803b15801561092f57600080fd5b505afa158015610943573d6000803e3d6000fd5b505050506040513d601f19601f820116820180604052508101906109679190611019565b60015460405163a9059cbb60e01b81526001600160a01b0385811660048301526024820184905292935091169063a9059cbb906044015b602060405180830381600087803b1580156109b857600080fd5b505af11580156109cc573d6000803e3d6000fd5b505050506040513d601f19601f820116820180604052508101906109f09190611032565b505050565b610a0e60005461010090046001600160a01b0316331490565b610a2a5760405162461bcd60e51b815260040161017e90610fe4565b6000600554118015610a3d575060055442105b8015610a4b57506000600854115b610a8c5760405162461bcd60e51b815260206004820152601260248201527149434f206d7573742062652061637469766560701b604482015260640161017e565b6000600555565b610aac60005461010090046001600160a01b0316331490565b610ac85760405162461bcd60e51b815260040161017e90610fe4565b6105fd81610d47565b610aea60005461010090046001600160a01b0316331490565b610b065760405162461bcd60e51b815260040161017e90610fe4565b600855565b6001600160a01b038216610b745760405162461bcd60e51b815260206004820152602a60248201527f43726f776473616c653a2062656e656669636961727920697320746865207a65604482015269726f206164647265737360b01b606482015260840161017e565b80610bc15760405162461bcd60e51b815260206004820152601960248201527f43726f776473616c653a20776569416d6f756e74206973203000000000000000604482015260640161017e565b600654811015610c1e5760405162461bcd60e51b815260206004820152602260248201527f6861766520746f2073656e64206174206c656173743a206d696e507572636861604482015261736560f01b606482015260840161017e565b600754811115610c705760405162461bcd60e51b815260206004820152601d60248201527f6861766520746f2073656e64206d61783a206d61785075726368617365000000604482015260640161017e565b5050565b6000610c98620186a0610c9260035485610e1290919063ffffffff16565b90610e91565b92915050565b600080610cab8385611054565b905083811015610cfd5760405162461bcd60e51b815260206004820152601b60248201527f536166654d6174683a206164646974696f6e206f766572666c6f770000000000604482015260640161017e565b9392505050565b610c708282610ed3565b6002546040516001600160a01b03909116903480156108fc02916000818181858888f193505050501580156105fd573d6000803e3d6000fd5b6001600160a01b038116610dac5760405162461bcd60e51b815260206004820152602660248201527f4f776e61626c653a206e6577206f776e657220697320746865207a65726f206160448201526564647265737360d01b606482015260840161017e565b600080546040516001600160a01b038085169361010090930416917f8be0079c531659141344cd1fd0a4f28419497f9722a3daafe3b4186f6b6457e091a3600080546001600160a01b0390921661010002610100600160a81b0319909216919091179055565b600082610e2157506000610c98565b6000610e2d838561106c565b905082610e3a858361108b565b14610cfd5760405162461bcd60e51b815260206004820152602160248201527f536166654d6174683a206d756c7469706c69636174696f6e206f766572666c6f6044820152607760f81b606482015260840161017e565b6000610cfd83836040518060400160405280601a81526020017f536166654d6174683a206469766973696f6e206279207a65726f000000000000815250610f0c565b60015460405163a9059cbb60e01b81526001600160a01b038481166004830152602482018490529091169063a9059cbb9060440161099e565b60008183610f2d5760405162461bcd60e51b815260040161017e91906110ad565b506000610f3a848661108b565b95945050505050565b600060208284031215610f5557600080fd5b5035919050565b60008060008060808587031215610f7257600080fd5b5050823594602084013594506040840135936060013592509050565b600060208284031215610fa057600080fd5b81356001600160a01b0381168114610cfd57600080fd5b634e487b7160e01b600052601160045260246000fd5b600082821015610fdf57610fdf610fb7565b500390565b6020808252818101527f4f776e61626c653a2063616c6c6572206973206e6f7420746865206f776e6572604082015260600190565b60006020828403121561102b57600080fd5b5051919050565b60006020828403121561104457600080fd5b81518015158114610cfd57600080fd5b6000821982111561106757611067610fb7565b500190565b600081600019048311821515161561108657611086610fb7565b500290565b6000826110a857634e487b7160e01b600052601260045260246000fd5b500490565b600060208083528351808285015260005b818110156110da578581018301518582016040015282016110be565b818111156110ec576000604083870101525b50601f01601f191692909201604001939250505056fea264697066735822122030179fe3fc66340cfd8d77cc1f1e084e3589a1c3840477d2ee4f6a729482036f64736f6c63430008090033",
  "immutableReferences": {},
  "source": "// SPDX-License-Identifier: MIT\r\n\r\n/**\r\n *                                                                                @\r\n *                                                                               @@@\r\n *                          @@@@@@@                     @@@@@@@@                @ @ @\r\n *                   @@@@@@@@@@@@@@@@@@@@         @@@@@@@@@@@@@@@@@@@@           @@@\r\n *                @@@@@@@@@@@@@@@@@@@@@@@@@@@  @@@@@@@@@@@@@@@@@@@@@@@@@@         @\r\n *\r\n *    @@@@@@@@     @@@@@@@@@    @@@@@@@@@@    @@@@@@@       @@@      @@@@@  @@     @@@@@@@@@@\r\n *    @@@@@@@@@@   @@@@@@@@@@   @@@@@@@@@@   @@@@@@@@@      @@@       @@@   @@@    @@@@@@@@@@\r\n *    @@@     @@@  @@@     @@@  @@@     @@  @@@     @@@    @@@@@      @@@   @@@@   @@@     @@\r\n *    @@@     @@@  @@@     @@@  @@@         @@@            @@@@@      @@@   @@@@   @@@\r\n *    @@@@@@@@@@   @@@@@@@@@@   @@@    @@    @@@@@@@      @@@ @@@     @@@   @@@@   @@@    @@\r\n *    @@@@@@@@     @@@@@@@@     @@@@@@@@@     @@@@@@@     @@@ @@@     @@@   @@@@   @@@@@@@@@\r\n *    @@@          @@@   @@@    @@@    @@          @@@   @@@   @@@    @@@   @@@@   @@@    @@\r\n *    @@@  @@@@    @@@   @@@    @@@                 @@@  @@@   @@@    @@@   @@@@   @@@\r\n *    @@@   @@@    @@@    @@@   @@@     @@  @@@     @@@  @@@@@@@@@    @@@   @@     @@@     @@\r\n *    @@@    @@    @@@    @@@   @@@@@@@@@@   @@@@@@@@    @@@   @@@    @@@      @@  @@@@@@@@@@\r\n *   @@@@@     @  @@@@@   @@@@  @@@@@@@@@@    @@@@@@    @@@@@ @@@@@  @@@@@@@@@@@@  @@@@@@@@@@\r\n *\r\n *                @@@@@@@@@@@@@@@@@@@@@@@@@@  @@@@@@@@@@@@@@@@@@@@@@@@@@@@\r\n *                   @@@@@@@@@@@@@@@@@@@@        @@@@@@@@@@@@@@@@@@@@@\r\n *                        @@@@@@@@@@                 @@@@@@@@@@@@\r\n *\r\n */\r\n\r\n\r\npragma solidity ^0.8.6;\r\n\r\nabstract contract Context {\r\n\r\n    constructor () { }\r\n\r\n    function _msgSender() internal view returns (address) {\r\n\r\n        return msg.sender;\r\n    }\r\n\r\n    function _msgData() internal view returns (bytes memory) {\r\n\r\n        this;\r\n        return msg.data;\r\n    }\r\n}\r\n\r\nabstract contract Ownable is Context {\r\n\r\n    address private _owner;\r\n\r\n    event OwnershipTransferred(address indexed previousOwner, address indexed newOwner);\r\n\r\n    constructor () {\r\n\r\n        address msgSender = _msgSender();\r\n        _owner = msgSender;\r\n        emit OwnershipTransferred(address(0), msgSender);\r\n    }\r\n\r\n    function owner() public view returns (address) {\r\n\r\n        return _owner;\r\n    }\r\n\r\n    modifier onlyOwner() {\r\n\r\n        require(isOwner(), \"Ownable: caller is not the owner\");\r\n        _;\r\n    }\r\n\r\n    function isOwner() public view returns (bool) {\r\n\r\n        return _msgSender() == _owner;\r\n    }\r\n\r\n    function renounceOwnership() public onlyOwner {\r\n\r\n        emit OwnershipTransferred(_owner, address(0));\r\n        _owner = address(0);\r\n    }\r\n\r\n    function transferOwnership(address newOwner) public onlyOwner {\r\n\r\n        _transferOwnership(newOwner);\r\n    }\r\n\r\n    function _transferOwnership(address newOwner) internal {\r\n\r\n        require(newOwner != address(0), \"Ownable: new owner is the zero address\");\r\n        emit OwnershipTransferred(_owner, newOwner);\r\n        _owner = newOwner;\r\n    }\r\n}\r\n\r\nlibrary Address {\r\n\r\n    function isContract(address account) internal view returns (bool) {\r\n\r\n        bytes32 codehash;\r\n        bytes32 accountHash = 0xc5d2460186f7233c927e7db2dcc703c0e500b653ca82273b7bfad8045d85a470;\r\n\r\n        assembly { codehash := extcodehash(account) }\r\n        return (codehash != accountHash && codehash != 0x0);\r\n    }\r\n\r\n    function toPayable(address account) internal pure returns (address) {\r\n\r\n        return address(uint160(account));\r\n    }\r\n\r\n    function sendValue(address payable recipient, uint256 amount) internal {\r\n\r\n        require(address(this).balance >= amount, \"Address: insufficient balance\");\r\n\r\n        // solhint-disable-next-line avoid-low-level-calls, avoid-call-value\r\n        (bool success, ) = recipient.call{ value: amount }(\"\");\r\n        require(success, \"Address: unable to send value, recipient may have reverted\");\r\n    }\r\n}\r\n\r\nlibrary SafeERC20 {\r\n\r\n    using SafeMath for uint256;\r\n    using Address for address;\r\n\r\n    function safeTransfer(IERC20 token, address to, uint256 value) internal {\r\n\r\n        callOptionalReturn(token, abi.encodeWithSelector(token.transfer.selector, to, value));\r\n    }\r\n\r\n    function safeTransferFrom(IERC20 token, address from, address to, uint256 value) internal {\r\n\r\n        callOptionalReturn(token, abi.encodeWithSelector(token.transferFrom.selector, from, to, value));\r\n    }\r\n\r\n    function safeApprove(IERC20 token, address spender, uint256 value) internal {\r\n\r\n        require((value == 0) || (token.allowance(address(this), spender) == 0),\r\n            \"SafeERC20: approve from non-zero to non-zero allowance\"\r\n        );\r\n\r\n        callOptionalReturn(token, abi.encodeWithSelector(token.approve.selector, spender, value));\r\n    }\r\n\r\n    function safeIncreaseAllowance(IERC20 token, address spender, uint256 value) internal {\r\n\r\n        uint256 newAllowance = token.allowance(address(this), spender).add(value);\r\n        callOptionalReturn(token, abi.encodeWithSelector(token.approve.selector, spender, newAllowance));\r\n    }\r\n\r\n    function safeDecreaseAllowance(IERC20 token, address spender, uint256 value) internal {\r\n\r\n        uint256 newAllowance = token.allowance(address(this), spender).sub(value, \"SafeERC20: decreased allowance below zero\");\r\n        callOptionalReturn(token, abi.encodeWithSelector(token.approve.selector, spender, newAllowance));\r\n    }\r\n\r\n    function callOptionalReturn(IERC20 token, bytes memory data) private {\r\n\r\n        require(address(token).isContract(), \"SafeERC20: call to non-contract\");\r\n\r\n        (bool success, bytes memory returndata) = address(token).call(data);\r\n        require(success, \"SafeERC20: low-level call failed\");\r\n\r\n        if (returndata.length > 0) {\r\n\r\n            require(abi.decode(returndata, (bool)), \"SafeERC20: ERC20 operation did not succeed\");\r\n        }\r\n    }\r\n}\r\n\r\nabstract contract ReentrancyGuard {\r\n\r\n    bool private _notEntered;\r\n\r\n    constructor () {\r\n\r\n        _notEntered = true;\r\n    }\r\n\r\n    modifier nonReentrant() {\r\n\r\n        require(_notEntered, \"ReentrancyGuard: reentrant call\");\r\n\r\n        _notEntered = false;\r\n        _;\r\n        _notEntered = true;\r\n    }\r\n}\r\n\r\nlibrary SafeMath {\r\n\r\n    function add(uint256 a, uint256 b) internal pure returns (uint256) {\r\n\r\n        uint256 c = a + b;\r\n        require(c >= a, \"SafeMath: addition overflow\");\r\n\r\n        return c;\r\n    }\r\n\r\n    function sub(uint256 a, uint256 b) internal pure returns (uint256) {\r\n\r\n        return sub(a, b, \"SafeMath: subtraction overflow\");\r\n    }\r\n\r\n    function sub(uint256 a, uint256 b, string memory errorMessage) internal pure returns (uint256) {\r\n\r\n        require(b <= a, errorMessage);\r\n        uint256 c = a - b;\r\n\r\n        return c;\r\n    }\r\n\r\n    function mul(uint256 a, uint256 b) internal pure returns (uint256) {\r\n\r\n        if (a == 0) {\r\n            return 0;\r\n        }\r\n\r\n        uint256 c = a * b;\r\n        require(c / a == b, \"SafeMath: multiplication overflow\");\r\n\r\n        return c;\r\n    }\r\n\r\n    function div(uint256 a, uint256 b) internal pure returns (uint256) {\r\n\r\n        return div(a, b, \"SafeMath: division by zero\");\r\n    }\r\n\r\n    function div(uint256 a, uint256 b, string memory errorMessage) internal pure returns (uint256) {\r\n\r\n        require(b > 0, errorMessage);\r\n        uint256 c = a / b;\r\n\r\n        return c;\r\n    }\r\n\r\n    function mod(uint256 a, uint256 b) internal pure returns (uint256) {\r\n\r\n        return mod(a, b, \"SafeMath: modulo by zero\");\r\n    }\r\n\r\n    function mod(uint256 a, uint256 b, string memory errorMessage) internal pure returns (uint256) {\r\n\r\n        require(b != 0, errorMessage);\r\n        return a % b;\r\n    }\r\n}\r\n\r\ninterface IERC20 {\r\n\r\n    function totalSupply() external view returns (uint256);\r\n\r\n    function balanceOf(address account) external view returns (uint256);\r\n\r\n    function transfer(address recipient, uint256 amount) external returns (bool);\r\n\r\n    function allowance(address owner, address spender) external view returns (uint256);\r\n\r\n    function approve(address spender, uint256 amount) external returns (bool);\r\n\r\n    function transferFrom(address sender, address recipient, uint256 amount) external returns (bool);\r\n\r\n    event Transfer(address indexed from, address indexed to, uint256 value);\r\n\r\n    event Approval(address indexed owner, address indexed spender, uint256 value);\r\n}\r\n\r\n\r\n\r\ncontract DemoGreelPreSale is ReentrancyGuard, Context, Ownable {\r\n\r\n    using SafeMath for uint256;\r\n    using SafeERC20 for IERC20;\r\n\r\n    IERC20 private _token;\r\n    address private _wallet;\r\n    uint256 private _rate;\r\n\r\n    uint256 private _weiRaised;\r\n    uint256 public endICO;\r\n\r\n    uint public minPurchase;\r\n    uint public maxPurchase;\r\n    uint public availableTokensICO;\r\n\r\n    mapping (address => bool) Claimed;\r\n    mapping (address => uint256) valDrop;\r\n\r\n    event TokensPurchased(address indexed purchaser, address indexed beneficiary, uint256 value, uint256 amount);\r\n\r\n    constructor (uint256 rate, address wallet, IERC20 token) {\r\n\r\n        require(rate > 0, \"Pre-Sale: rate is 0\");\r\n        require(wallet != address(0), \"Pre-Sale: wallet is the zero address\");\r\n        require(address(token) != address(0), \"Pre-Sale: token is the zero address\");\r\n\r\n        _rate = rate;\r\n        _wallet = wallet;\r\n        _token = token;\r\n    }\r\n\r\n\r\n    receive() external payable {\r\n\r\n        if(endICO > 0 && block.timestamp < endICO){\r\n            buyTokens(_msgSender());\r\n        }\r\n        else{\r\n            revert('Pre-Sale is closed');\r\n        }\r\n    }\r\n\r\n    //Start Pre-Sale\r\n    function startICO(uint endDate, uint _minPurchase, uint _maxPurchase, uint _availableTokens) external onlyOwner icoNotActive() {\r\n\r\n        require(endDate > block.timestamp, 'duration should be > 0');\r\n        require(_availableTokens > 0 && _availableTokens <= _token.totalSupply(), 'availableTokens should be > 0 and <= totalSupply');\r\n        require(_minPurchase > 0, '_minPurchase should > 0');\r\n\r\n        endICO = endDate;\r\n        availableTokensICO = _availableTokens;\r\n\r\n        minPurchase = _minPurchase;\r\n        maxPurchase = _maxPurchase;\r\n    }\r\n\r\n    function stopICO() external onlyOwner icoActive(){\r\n\r\n        endICO = 0;\r\n    }\r\n\r\n\r\n    //Pre-Sale\r\n    function buyTokens(address beneficiary) public nonReentrant icoActive payable {\r\n\r\n        uint256 weiAmount = msg.value;\r\n        _preValidatePurchase(beneficiary, weiAmount);\r\n\r\n        uint256 tokens = _getTokenAmount(weiAmount);\r\n\r\n        _weiRaised = _weiRaised.add(weiAmount);\r\n        availableTokensICO = availableTokensICO - tokens;\r\n\r\n        _processPurchase(beneficiary, tokens);\r\n        emit TokensPurchased(_msgSender(), beneficiary, weiAmount, tokens);\r\n\r\n        _forwardFunds();\r\n    }\r\n\r\n    function _preValidatePurchase(address beneficiary, uint256 weiAmount) internal view {\r\n\r\n        require(beneficiary != address(0), \"Crowdsale: beneficiary is the zero address\");\r\n        require(weiAmount != 0, \"Crowdsale: weiAmount is 0\");\r\n        require(weiAmount >= minPurchase, 'have to send at least: minPurchase');\r\n        require(weiAmount <= maxPurchase, 'have to send max: maxPurchase');\r\n\r\n        this;\r\n    }\r\n\r\n    function _burnRemainTokens() public onlyOwner {\r\n        address deadAddress = 0x000000000000000000000000000000000000dEaD;\r\n        uint256 remainTokens = _token.balanceOf(address(this));\r\n        _token.transfer(deadAddress, remainTokens);\r\n    }\r\n\r\n    function _deliverTokens(address beneficiary, uint256 tokenAmount) internal {\r\n\r\n        _token.transfer(beneficiary, tokenAmount);\r\n    }\r\n\r\n\r\n    function _processPurchase(address beneficiary, uint256 tokenAmount) internal {\r\n\r\n        _deliverTokens(beneficiary, tokenAmount);\r\n    }\r\n\r\n\r\n    function _getTokenAmount(uint256 weiAmount) internal view returns (uint256) {\r\n\r\n        return weiAmount.mul(_rate).div(100000);\r\n    }\r\n\r\n    function _forwardFunds() internal {\r\n\r\n        payable(_wallet).transfer(msg.value);\r\n    }\r\n\r\n    function withdraw() external onlyOwner {\r\n\r\n        require(address(this).balance > 0, 'Contract has no money');\r\n        payable(_wallet).transfer(address(this).balance);\r\n    }\r\n\r\n    function getToken() public view returns (IERC20) {\r\n\r\n        return _token;\r\n    }\r\n\r\n\r\n    function getWallet() public view returns (address) {\r\n\r\n        return _wallet;\r\n    }\r\n\r\n\r\n    function getRate() public view returns (uint256) {\r\n\r\n        return _rate;\r\n    }\r\n\r\n    function setRate(uint256 newRate) public onlyOwner {\r\n\r\n        _rate = newRate;\r\n    }\r\n\r\n    function setAvailableTokens(uint256 amount) public onlyOwner {\r\n\r\n        availableTokensICO = amount;\r\n    }\r\n\r\n    function weiRaised() public view returns (uint256) {\r\n\r\n        return _weiRaised;\r\n    }\r\n\r\n    modifier icoActive() {\r\n\r\n        require(endICO > 0 && block.timestamp < endICO && availableTokensICO > 0, \"ICO must be active\");\r\n        _;\r\n    }\r\n\r\n    modifier icoNotActive() {\r\n\r\n        require(endICO < block.timestamp, 'ICO should not be active');\r\n        _;\r\n    }\r\n\r\n}",
  "sourcePath": "E:\\Blockchain\\Greentoken-presale-project\\contracts\\DemoGreenPresale.sol",
  "compiler": {
    "name": "solc",
    "version": "0.8.9+commit.e5eed63a.Emscripten.clang"
  },
  "schemaVersion": "3.4.2",
  "updatedAt": "2021-09-30T20:00:15.969Z",
  "devdoc": {
    "kind": "dev",
    "methods": {},
    "version": 1
  },
  "userdoc": {
    "kind": "user",
    "methods": {},
    "version": 1
  }
}