{
  "contractName": "DemoGreen",
  "abi": [
    {
      "inputs": [],
      "stateMutability": "nonpayable",
      "type": "constructor"
    },
    {
      "anonymous": false,
      "inputs": [
        {
          "indexed": false,
          "internalType": "bool",
          "name": "enabled",
          "type": "bool"
        }
      ],
      "name": "AntiWhalesEnabledUpdated",
      "type": "event"
    },
    {
      "anonymous": false,
      "inputs": [
        {
          "indexed": true,
          "internalType": "address",
          "name": "owner",
          "type": "address"
        },
        {
          "indexed": true,
          "internalType": "address",
          "name": "spender",
          "type": "address"
        },
        {
          "indexed": false,
          "internalType": "uint256",
          "name": "value",
          "type": "uint256"
        }
      ],
      "name": "Approval",
      "type": "event"
    },
    {
      "anonymous": false,
      "inputs": [
        {
          "indexed": false,
          "internalType": "bool",
          "name": "enabled",
          "type": "bool"
        }
      ],
      "name": "BuyBackEnabledUpdated",
      "type": "event"
    },
    {
      "anonymous": false,
      "inputs": [
        {
          "indexed": true,
          "internalType": "address",
          "name": "previousOwner",
          "type": "address"
        },
        {
          "indexed": true,
          "internalType": "address",
          "name": "newOwner",
          "type": "address"
        }
      ],
      "name": "OwnershipTransferred",
      "type": "event"
    },
    {
      "anonymous": false,
      "inputs": [
        {
          "indexed": false,
          "internalType": "uint256",
          "name": "tokenAmount",
          "type": "uint256"
        }
      ],
      "name": "RewardLiquidityProviders",
      "type": "event"
    },
    {
      "anonymous": false,
      "inputs": [
        {
          "indexed": false,
          "internalType": "uint256",
          "name": "tokensSwapped",
          "type": "uint256"
        },
        {
          "indexed": false,
          "internalType": "uint256",
          "name": "ethReceived",
          "type": "uint256"
        },
        {
          "indexed": false,
          "internalType": "uint256",
          "name": "tokensIntoLiqudity",
          "type": "uint256"
        }
      ],
      "name": "SwapAndLiquify",
      "type": "event"
    },
    {
      "anonymous": false,
      "inputs": [
        {
          "indexed": false,
          "internalType": "bool",
          "name": "enabled",
          "type": "bool"
        }
      ],
      "name": "SwapAndLiquifyEnabledUpdated",
      "type": "event"
    },
    {
      "anonymous": false,
      "inputs": [
        {
          "indexed": false,
          "internalType": "uint256",
          "name": "amountIn",
          "type": "uint256"
        },
        {
          "indexed": false,
          "internalType": "address[]",
          "name": "path",
          "type": "address[]"
        }
      ],
      "name": "SwapETHForTokens",
      "type": "event"
    },
    {
      "anonymous": false,
      "inputs": [
        {
          "indexed": false,
          "internalType": "uint256",
          "name": "amountIn",
          "type": "uint256"
        },
        {
          "indexed": false,
          "internalType": "address[]",
          "name": "path",
          "type": "address[]"
        }
      ],
      "name": "SwapTokensForETH",
      "type": "event"
    },
    {
      "anonymous": false,
      "inputs": [
        {
          "indexed": true,
          "internalType": "address",
          "name": "from",
          "type": "address"
        },
        {
          "indexed": true,
          "internalType": "address",
          "name": "to",
          "type": "address"
        },
        {
          "indexed": false,
          "internalType": "uint256",
          "name": "value",
          "type": "uint256"
        }
      ],
      "name": "Transfer",
      "type": "event"
    },
    {
      "inputs": [],
      "name": "_airdropAmount",
      "outputs": [
        {
          "internalType": "uint256",
          "name": "",
          "type": "uint256"
        }
      ],
      "stateMutability": "view",
      "type": "function"
    },
    {
      "inputs": [],
      "name": "_companyAmount",
      "outputs": [
        {
          "internalType": "uint256",
          "name": "",
          "type": "uint256"
        }
      ],
      "stateMutability": "view",
      "type": "function"
    },
    {
      "inputs": [],
      "name": "_marketplaceAmount",
      "outputs": [
        {
          "internalType": "uint256",
          "name": "",
          "type": "uint256"
        }
      ],
      "stateMutability": "view",
      "type": "function"
    },
    {
      "inputs": [],
      "name": "_maxTxAmount",
      "outputs": [
        {
          "internalType": "uint256",
          "name": "",
          "type": "uint256"
        }
      ],
      "stateMutability": "view",
      "type": "function"
    },
    {
      "inputs": [],
      "name": "_partnershipAmount",
      "outputs": [
        {
          "internalType": "uint256",
          "name": "",
          "type": "uint256"
        }
      ],
      "stateMutability": "view",
      "type": "function"
    },
    {
      "inputs": [],
      "name": "_presaleAmount",
      "outputs": [
        {
          "internalType": "uint256",
          "name": "",
          "type": "uint256"
        }
      ],
      "stateMutability": "view",
      "type": "function"
    },
    {
      "inputs": [],
      "name": "_rewardAmount",
      "outputs": [
        {
          "internalType": "uint256",
          "name": "",
          "type": "uint256"
        }
      ],
      "stateMutability": "view",
      "type": "function"
    },
    {
      "inputs": [],
      "name": "_swapFee",
      "outputs": [
        {
          "internalType": "uint256",
          "name": "",
          "type": "uint256"
        }
      ],
      "stateMutability": "view",
      "type": "function"
    },
    {
      "inputs": [],
      "name": "_taxFee",
      "outputs": [
        {
          "internalType": "uint256",
          "name": "",
          "type": "uint256"
        }
      ],
      "stateMutability": "view",
      "type": "function"
    },
    {
      "inputs": [],
      "name": "airdropAddress",
      "outputs": [
        {
          "internalType": "address payable",
          "name": "",
          "type": "address"
        }
      ],
      "stateMutability": "view",
      "type": "function"
    },
    {
      "inputs": [],
      "name": "antiBotEnabled",
      "outputs": [
        {
          "internalType": "bool",
          "name": "",
          "type": "bool"
        }
      ],
      "stateMutability": "view",
      "type": "function"
    },
    {
      "inputs": [],
      "name": "antiWhalesEnabled",
      "outputs": [
        {
          "internalType": "bool",
          "name": "",
          "type": "bool"
        }
      ],
      "stateMutability": "view",
      "type": "function"
    },
    {
      "inputs": [],
      "name": "buyBackEnabled",
      "outputs": [
        {
          "internalType": "bool",
          "name": "",
          "type": "bool"
        }
      ],
      "stateMutability": "view",
      "type": "function"
    },
    {
      "inputs": [],
      "name": "companyAddress",
      "outputs": [
        {
          "internalType": "address payable",
          "name": "",
          "type": "address"
        }
      ],
      "stateMutability": "view",
      "type": "function"
    },
    {
      "inputs": [],
      "name": "contestAddress",
      "outputs": [
        {
          "internalType": "address payable",
          "name": "",
          "type": "address"
        }
      ],
      "stateMutability": "view",
      "type": "function"
    },
    {
      "inputs": [],
      "name": "contestDivisor",
      "outputs": [
        {
          "internalType": "uint256",
          "name": "",
          "type": "uint256"
        }
      ],
      "stateMutability": "view",
      "type": "function"
    },
    {
      "inputs": [],
      "name": "deadAddress",
      "outputs": [
        {
          "internalType": "address",
          "name": "",
          "type": "address"
        }
      ],
      "stateMutability": "view",
      "type": "function"
    },
    {
      "inputs": [],
      "name": "getTime",
      "outputs": [
        {
          "internalType": "uint256",
          "name": "",
          "type": "uint256"
        }
      ],
      "stateMutability": "view",
      "type": "function"
    },
    {
      "inputs": [],
      "name": "getUnlockTime",
      "outputs": [
        {
          "internalType": "uint256",
          "name": "",
          "type": "uint256"
        }
      ],
      "stateMutability": "view",
      "type": "function"
    },
    {
      "inputs": [],
      "name": "greenAndCleanEnvironmentRewardDivisor",
      "outputs": [
        {
          "internalType": "uint256",
          "name": "",
          "type": "uint256"
        }
      ],
      "stateMutability": "view",
      "type": "function"
    },
    {
      "inputs": [
        {
          "internalType": "uint256",
          "name": "time",
          "type": "uint256"
        }
      ],
      "name": "lock",
      "outputs": [],
      "stateMutability": "nonpayable",
      "type": "function"
    },
    {
      "inputs": [],
      "name": "marketplaceAddress",
      "outputs": [
        {
          "internalType": "address payable",
          "name": "",
          "type": "address"
        }
      ],
      "stateMutability": "view",
      "type": "function"
    },
    {
      "inputs": [],
      "name": "owner",
      "outputs": [
        {
          "internalType": "address",
          "name": "",
          "type": "address"
        }
      ],
      "stateMutability": "view",
      "type": "function"
    },
    {
      "inputs": [],
      "name": "partnershipAddress",
      "outputs": [
        {
          "internalType": "address payable",
          "name": "",
          "type": "address"
        }
      ],
      "stateMutability": "view",
      "type": "function"
    },
    {
      "inputs": [],
      "name": "renounceOwnership",
      "outputs": [],
      "stateMutability": "nonpayable",
      "type": "function"
    },
    {
      "inputs": [],
      "name": "rewardAddress",
      "outputs": [
        {
          "internalType": "address payable",
          "name": "",
          "type": "address"
        }
      ],
      "stateMutability": "view",
      "type": "function"
    },
    {
      "inputs": [],
      "name": "swapAndLiquifyEnabled",
      "outputs": [
        {
          "internalType": "bool",
          "name": "",
          "type": "bool"
        }
      ],
      "stateMutability": "view",
      "type": "function"
    },
    {
      "inputs": [
        {
          "internalType": "address",
          "name": "newOwner",
          "type": "address"
        }
      ],
      "name": "transferOwnership",
      "outputs": [],
      "stateMutability": "nonpayable",
      "type": "function"
    },
    {
      "inputs": [],
      "name": "uniswapV2Pair",
      "outputs": [
        {
          "internalType": "address",
          "name": "",
          "type": "address"
        }
      ],
      "stateMutability": "view",
      "type": "function"
    },
    {
      "inputs": [],
      "name": "uniswapV2Router",
      "outputs": [
        {
          "internalType": "contract IUniswapV2Router02",
          "name": "",
          "type": "address"
        }
      ],
      "stateMutability": "view",
      "type": "function"
    },
    {
      "inputs": [],
      "name": "unlock",
      "outputs": [],
      "stateMutability": "nonpayable",
      "type": "function"
    },
    {
      "stateMutability": "payable",
      "type": "receive"
    },
    {
      "inputs": [],
      "name": "name",
      "outputs": [
        {
          "internalType": "string",
          "name": "",
          "type": "string"
        }
      ],
      "stateMutability": "view",
      "type": "function"
    },
    {
      "inputs": [],
      "name": "symbol",
      "outputs": [
        {
          "internalType": "string",
          "name": "",
          "type": "string"
        }
      ],
      "stateMutability": "view",
      "type": "function"
    },
    {
      "inputs": [],
      "name": "decimals",
      "outputs": [
        {
          "internalType": "uint8",
          "name": "",
          "type": "uint8"
        }
      ],
      "stateMutability": "view",
      "type": "function"
    },
    {
      "inputs": [],
      "name": "totalSupply",
      "outputs": [
        {
          "internalType": "uint256",
          "name": "",
          "type": "uint256"
        }
      ],
      "stateMutability": "view",
      "type": "function"
    },
    {
      "inputs": [
        {
          "internalType": "address",
          "name": "account",
          "type": "address"
        }
      ],
      "name": "balanceOf",
      "outputs": [
        {
          "internalType": "uint256",
          "name": "",
          "type": "uint256"
        }
      ],
      "stateMutability": "view",
      "type": "function"
    },
    {
      "inputs": [
        {
          "internalType": "address",
          "name": "recipient",
          "type": "address"
        },
        {
          "internalType": "uint256",
          "name": "amount",
          "type": "uint256"
        }
      ],
      "name": "transfer",
      "outputs": [
        {
          "internalType": "bool",
          "name": "",
          "type": "bool"
        }
      ],
      "stateMutability": "nonpayable",
      "type": "function"
    },
    {
      "inputs": [
        {
          "internalType": "address",
          "name": "owner",
          "type": "address"
        },
        {
          "internalType": "address",
          "name": "spender",
          "type": "address"
        }
      ],
      "name": "allowance",
      "outputs": [
        {
          "internalType": "uint256",
          "name": "",
          "type": "uint256"
        }
      ],
      "stateMutability": "view",
      "type": "function"
    },
    {
      "inputs": [
        {
          "internalType": "address",
          "name": "spender",
          "type": "address"
        },
        {
          "internalType": "uint256",
          "name": "amount",
          "type": "uint256"
        }
      ],
      "name": "approve",
      "outputs": [
        {
          "internalType": "bool",
          "name": "",
          "type": "bool"
        }
      ],
      "stateMutability": "nonpayable",
      "type": "function"
    },
    {
      "inputs": [
        {
          "internalType": "address",
          "name": "sender",
          "type": "address"
        },
        {
          "internalType": "address",
          "name": "recipient",
          "type": "address"
        },
        {
          "internalType": "uint256",
          "name": "amount",
          "type": "uint256"
        }
      ],
      "name": "transferFrom",
      "outputs": [
        {
          "internalType": "bool",
          "name": "",
          "type": "bool"
        }
      ],
      "stateMutability": "nonpayable",
      "type": "function"
    },
    {
      "inputs": [
        {
          "internalType": "address",
          "name": "spender",
          "type": "address"
        },
        {
          "internalType": "uint256",
          "name": "addedValue",
          "type": "uint256"
        }
      ],
      "name": "increaseAllowance",
      "outputs": [
        {
          "internalType": "bool",
          "name": "",
          "type": "bool"
        }
      ],
      "stateMutability": "nonpayable",
      "type": "function"
    },
    {
      "inputs": [
        {
          "internalType": "address",
          "name": "spender",
          "type": "address"
        },
        {
          "internalType": "uint256",
          "name": "subtractedValue",
          "type": "uint256"
        }
      ],
      "name": "decreaseAllowance",
      "outputs": [
        {
          "internalType": "bool",
          "name": "",
          "type": "bool"
        }
      ],
      "stateMutability": "nonpayable",
      "type": "function"
    },
    {
      "inputs": [
        {
          "internalType": "address",
          "name": "account",
          "type": "address"
        }
      ],
      "name": "isExcludedFromReward",
      "outputs": [
        {
          "internalType": "bool",
          "name": "",
          "type": "bool"
        }
      ],
      "stateMutability": "view",
      "type": "function"
    },
    {
      "inputs": [],
      "name": "totalFees",
      "outputs": [
        {
          "internalType": "uint256",
          "name": "",
          "type": "uint256"
        }
      ],
      "stateMutability": "view",
      "type": "function"
    },
    {
      "inputs": [],
      "name": "minimumTokensBeforeSwapAmount",
      "outputs": [
        {
          "internalType": "uint256",
          "name": "",
          "type": "uint256"
        }
      ],
      "stateMutability": "view",
      "type": "function"
    },
    {
      "inputs": [],
      "name": "buyBackUpperLimitAmount",
      "outputs": [
        {
          "internalType": "uint256",
          "name": "",
          "type": "uint256"
        }
      ],
      "stateMutability": "view",
      "type": "function"
    },
    {
      "inputs": [
        {
          "internalType": "uint256",
          "name": "tAmount",
          "type": "uint256"
        }
      ],
      "name": "deliver",
      "outputs": [],
      "stateMutability": "nonpayable",
      "type": "function"
    },
    {
      "inputs": [
        {
          "internalType": "uint256",
          "name": "tAmount",
          "type": "uint256"
        },
        {
          "internalType": "bool",
          "name": "deductTransferFee",
          "type": "bool"
        }
      ],
      "name": "reflectionFromToken",
      "outputs": [
        {
          "internalType": "uint256",
          "name": "",
          "type": "uint256"
        }
      ],
      "stateMutability": "view",
      "type": "function"
    },
    {
      "inputs": [
        {
          "internalType": "uint256",
          "name": "rAmount",
          "type": "uint256"
        }
      ],
      "name": "tokenFromReflection",
      "outputs": [
        {
          "internalType": "uint256",
          "name": "",
          "type": "uint256"
        }
      ],
      "stateMutability": "view",
      "type": "function"
    },
    {
      "inputs": [
        {
          "internalType": "address",
          "name": "account",
          "type": "address"
        }
      ],
      "name": "excludeFromReward",
      "outputs": [],
      "stateMutability": "nonpayable",
      "type": "function"
    },
    {
      "inputs": [
        {
          "internalType": "address",
          "name": "account",
          "type": "address"
        }
      ],
      "name": "includeInReward",
      "outputs": [],
      "stateMutability": "nonpayable",
      "type": "function"
    },
    {
      "inputs": [],
      "name": "transferGreenAndCleanEnvironmentRewardTokens",
      "outputs": [],
      "stateMutability": "nonpayable",
      "type": "function"
    },
    {
      "inputs": [],
      "name": "transferPartnershipAndLicensingAgentTokens",
      "outputs": [],
      "stateMutability": "nonpayable",
      "type": "function"
    },
    {
      "inputs": [],
      "name": "transferCompanyTokens",
      "outputs": [],
      "stateMutability": "nonpayable",
      "type": "function"
    },
    {
      "inputs": [],
      "name": "transferAirdropTokens",
      "outputs": [],
      "stateMutability": "nonpayable",
      "type": "function"
    },
    {
      "inputs": [],
      "name": "transferMarketplaceTokens",
      "outputs": [],
      "stateMutability": "nonpayable",
      "type": "function"
    },
    {
      "inputs": [
        {
          "internalType": "address",
          "name": "presaleAddress",
          "type": "address"
        }
      ],
      "name": "transferTokensToPresale",
      "outputs": [],
      "stateMutability": "nonpayable",
      "type": "function"
    },
    {
      "inputs": [
        {
          "internalType": "address",
          "name": "account",
          "type": "address"
        }
      ],
      "name": "isExcludedFromFee",
      "outputs": [
        {
          "internalType": "bool",
          "name": "",
          "type": "bool"
        }
      ],
      "stateMutability": "view",
      "type": "function"
    },
    {
      "inputs": [
        {
          "internalType": "address",
          "name": "account",
          "type": "address"
        }
      ],
      "name": "excludeFromFee",
      "outputs": [],
      "stateMutability": "nonpayable",
      "type": "function"
    },
    {
      "inputs": [
        {
          "internalType": "address",
          "name": "account",
          "type": "address"
        }
      ],
      "name": "includeInFee",
      "outputs": [],
      "stateMutability": "nonpayable",
      "type": "function"
    },
    {
      "inputs": [
        {
          "internalType": "address",
          "name": "account",
          "type": "address"
        }
      ],
      "name": "setAddressAsBlacklisted",
      "outputs": [],
      "stateMutability": "nonpayable",
      "type": "function"
    },
    {
      "inputs": [
        {
          "internalType": "address",
          "name": "account",
          "type": "address"
        }
      ],
      "name": "setAddressAsWhitelisted",
      "outputs": [],
      "stateMutability": "nonpayable",
      "type": "function"
    },
    {
      "inputs": [
        {
          "internalType": "uint256",
          "name": "taxFee",
          "type": "uint256"
        }
      ],
      "name": "setTaxFeePercent",
      "outputs": [],
      "stateMutability": "nonpayable",
      "type": "function"
    },
    {
      "inputs": [
        {
          "internalType": "uint256",
          "name": "swapFee",
          "type": "uint256"
        }
      ],
      "name": "setSwapFeePercent",
      "outputs": [],
      "stateMutability": "nonpayable",
      "type": "function"
    },
    {
      "inputs": [
        {
          "internalType": "uint256",
          "name": "maxTxAmount",
          "type": "uint256"
        }
      ],
      "name": "setMaxTxAmount",
      "outputs": [],
      "stateMutability": "nonpayable",
      "type": "function"
    },
    {
      "inputs": [
        {
          "internalType": "uint256",
          "name": "divisor",
          "type": "uint256"
        }
      ],
      "name": "setGreenAndCleanEnvironmentRewardDivisor",
      "outputs": [],
      "stateMutability": "nonpayable",
      "type": "function"
    },
    {
      "inputs": [
        {
          "internalType": "uint256",
          "name": "_minimumTokensBeforeSwap",
          "type": "uint256"
        }
      ],
      "name": "setNumTokensSellToAddToLiquidity",
      "outputs": [],
      "stateMutability": "nonpayable",
      "type": "function"
    },
    {
      "inputs": [
        {
          "internalType": "uint256",
          "name": "buyBackLimit",
          "type": "uint256"
        }
      ],
      "name": "setBuybackUpperLimit",
      "outputs": [],
      "stateMutability": "nonpayable",
      "type": "function"
    },
    {
      "inputs": [
        {
          "internalType": "address",
          "name": "_rewardAddress",
          "type": "address"
        }
      ],
      "name": "setGreenAndCleanEnvironmentRewardAddress",
      "outputs": [],
      "stateMutability": "nonpayable",
      "type": "function"
    },
    {
      "inputs": [
        {
          "internalType": "address",
          "name": "_contestAddress",
          "type": "address"
        }
      ],
      "name": "setContestAddress",
      "outputs": [],
      "stateMutability": "nonpayable",
      "type": "function"
    },
    {
      "inputs": [
        {
          "internalType": "address",
          "name": "_partnershipAddress",
          "type": "address"
        }
      ],
      "name": "setPartnershipAndLicensingAgentAddress",
      "outputs": [],
      "stateMutability": "nonpayable",
      "type": "function"
    },
    {
      "inputs": [
        {
          "internalType": "address",
          "name": "_companyAddress",
          "type": "address"
        }
      ],
      "name": "setCompanyFoundationAddress",
      "outputs": [],
      "stateMutability": "nonpayable",
      "type": "function"
    },
    {
      "inputs": [
        {
          "internalType": "address",
          "name": "_airdropAddress",
          "type": "address"
        }
      ],
      "name": "setAirdropAddress",
      "outputs": [],
      "stateMutability": "nonpayable",
      "type": "function"
    },
    {
      "inputs": [
        {
          "internalType": "address",
          "name": "_marketplaceAddress",
          "type": "address"
        }
      ],
      "name": "setMarketplaceAddress",
      "outputs": [],
      "stateMutability": "nonpayable",
      "type": "function"
    },
    {
      "inputs": [
        {
          "internalType": "bool",
          "name": "_enabled",
          "type": "bool"
        }
      ],
      "name": "setSwapAndLiquifyEnabled",
      "outputs": [],
      "stateMutability": "nonpayable",
      "type": "function"
    },
    {
      "inputs": [
        {
          "internalType": "bool",
          "name": "_enabled",
          "type": "bool"
        }
      ],
      "name": "setBuyBackEnabled",
      "outputs": [],
      "stateMutability": "nonpayable",
      "type": "function"
    },
    {
      "inputs": [
        {
          "internalType": "bool",
          "name": "_enabled",
          "type": "bool"
        }
      ],
      "name": "setAntiWhaleEnabled",
      "outputs": [],
      "stateMutability": "nonpayable",
      "type": "function"
    },
    {
      "inputs": [],
      "name": "prepareForPreSale",
      "outputs": [],
      "stateMutability": "nonpayable",
      "type": "function"
    },
    {
      "inputs": [],
      "name": "afterPreSale",
      "outputs": [],
      "stateMutability": "nonpayable",
      "type": "function"
    }
  ],
  "bytecode": "0x60e0604052600380546001600160a01b0319908116731b0155e319d0c77da13a1644b1d200794c18ec8717909155600480548216734c4b60d86cffbf2efaf98c927359525c0406ba3f179055600580548216733ed588ac5310e0d16bf98632ea7a8b472b9ca6dc17905560068054821673178077a67422168f0ba36ff73638b00ae86d083e17905560078054821673b5150f00795ac7c887d00a19be8f73b89025f9831790556008805490911673399abe01fa03ec00417c05193d7bc6c22e64c51e17905561dead60805269d3c21bcecceda1000000600f819055620000e89060001962000563565b620000f69060001962000586565b601055604080518082019091526009808252682232b6b7a3b932b2b760b91b60209092019182526200012b91601291620004bd565b5060408051808201909152600380825262444d4760e81b60209092019182526200015891601391620004bd565b506014805460ff1916600917905560056015819055601655600a601781905560185560026019556003601a5568a2a15d09519be00000601b55680ad78ebc5ac6200000601c55670de0b6b3a7640000601d5569152d02c7e14af6800000601e55690a968163f0a57b400000601f81905560208190556021819055602255693f870857a3e0e38000006023556024805464010101000064ffffffff0019909116179055426026553480156200020b57600080fd5b50600080546001600160a01b031916339081178255604051909182917f8be0079c531659141344cd1fd0a4f28419497f9722a3daafe3b4186f6b6457e0908290a3506010543360009081526009602090815260409182902092909255805163c45a015560e01b81529051737a250d5630b4cf539739df2c5dacb4c659f2488d92839263c45a01559260048083019392829003018186803b158015620002af57600080fd5b505afa158015620002c4573d6000803e3d6000fd5b505050506040513d601f19601f82011682018060405250810190620002ea9190620005ac565b6001600160a01b031663c9c6539630836001600160a01b031663ad5c46486040518163ffffffff1660e01b815260040160206040518083038186803b1580156200033357600080fd5b505afa15801562000348573d6000803e3d6000fd5b505050506040513d601f19601f820116820180604052508101906200036e9190620005ac565b6040516001600160e01b031960e085901b1681526001600160a01b03928316600482015291166024820152604401602060405180830381600087803b158015620003b757600080fd5b505af1158015620003cc573d6000803e3d6000fd5b505050506040513d601f19601f82011682018060405250810190620003f29190620005ac565b6001600160a01b0390811660c052811660a0526001600c60006200041e6000546001600160a01b031690565b6001600160a01b0316815260208082019290925260409081016000908120805494151560ff19958616179055308152600c909252902080549091166001179055620004663390565b6001600160a01b031660006001600160a01b03167fddf252ad1be2c89b69c2b068fc378daa952ba7f163c4a11628f55a4df523b3ef600f54604051620004ae91815260200190565b60405180910390a3506200061b565b828054620004cb90620005de565b90600052602060002090601f016020900481019282620004ef57600085556200053a565b82601f106200050a57805160ff19168380011785556200053a565b828001600101855582156200053a579182015b828111156200053a5782518255916020019190600101906200051d565b50620005489291506200054c565b5090565b5b808211156200054857600081556001016200054d565b6000826200058157634e487b7160e01b600052601260045260246000fd5b500690565b600082821015620005a757634e487b7160e01b600052601160045260246000fd5b500390565b600060208284031215620005bf57600080fd5b81516001600160a01b0381168114620005d757600080fd5b9392505050565b600181811c90821680620005f357607f821691505b602082108114156200061557634e487b7160e01b600052602260045260246000fd5b50919050565b60805160a05160c0516139a16200067c600039600081816107b901526126a601526000818161058a01528181612cc101528181612d8901528181612dc501528181612edc0152612fca0152600081816106370152612ff501526139a16000f3fe60806040526004361061046c5760003560e01c806370a082311161024a578063ab0eda9e11610139578063daa17f49116100b6578063ea2f0b371161007a578063ea2f0b3714610d7c578063ec28438a14610d9c578063f0f165af14610dbc578063f2fde38b14610ddc578063fe569ca314610dfc57600080fd5b8063daa17f4914610cb6578063dd46706414610cd6578063dd62ed3e14610cf6578063df976e1314610d3c578063e3ea137414610d5c57600080fd5b8063c49b9a80116100fd578063c49b9a8014610c13578063d1bf006f14610c33578063d3e1fe1414610c53578063d83a397614610c73578063d8c6404b14610c9457600080fd5b8063ab0eda9e14610b88578063b47cc55614610ba8578063bdc653ef14610bc8578063c0fe273b14610bdd578063c2749d9114610bfd57600080fd5b80638cf57cb9116101c7578063a20f2ddf1161018b578063a20f2ddf14610afd578063a457c2d714610b13578063a69df4b514610b33578063a9059cbb14610b48578063aa5f57ca14610b6857600080fd5b80638cf57cb914610a755780638d7cd99114610a955780638da5cb5b14610ab557806395d89b4114610ad3578063a073d37f14610ae857600080fd5b80637d1db4a51161020e5780637d1db4a5146109d057806382d2a4bb146109e65780638327815514610a0657806384413b6514610a1c57806388f8202014610a3c57600080fd5b806370a0823114610950578063715018a6146109705780637420c40b146109855780637573141b1461099b5780637950daf0146109bb57600080fd5b80633b124fe7116103665780635134f6ab116102e35780635adbbf8b116102a75780635adbbf8b146108c6578063602bc62b146108e65780636053a0e3146108fb57806361bb13f01461091b57806370135abd1461093b57600080fd5b80635134f6ab1461082557806352390c021461083a5780635342acb41461085a57806353e1ead914610893578063557ed1ba146108b357600080fd5b806347d6cd6b1161032a57806347d6cd6b1461079157806349bd5a5e146107a757806349db98fa146107db5780634a57f197146107f15780634a74bb021461080657600080fd5b80633b124fe7146106fb5780633bd5d173146107115780633d6d572214610731578063437823ec146107515780634549b0391461077157600080fd5b806318160ddd116103f457806329370cc6116103b857806329370cc6146106595780632d83811914610679578063313ce567146106995780633685d419146106bb57806339509351146106db57600080fd5b806318160ddd146105c45780631d530389146105d957806323b872dd146105ef578063254b57e71461060f57806327c8f8351461062557600080fd5b8063095ea7b31161043b578063095ea7b3146104ef5780630c9ba72f1461051f5780630de5d2561461053f57806313114a9d146105635780631694505e1461057857600080fd5b8063061c82d01461047857806306fdde031461049a57806307efbfdc146104c5578063083a4660146104da57600080fd5b3661047357005b600080fd5b34801561048457600080fd5b506104986104933660046134e0565b610e11565b005b3480156104a657600080fd5b506104af610e49565b6040516104bc91906134f9565b60405180910390f35b3480156104d157600080fd5b50610498610edb565b3480156104e657600080fd5b50610498610f28565b3480156104fb57600080fd5b5061050f61050a366004613563565b611007565b60405190151581526020016104bc565b34801561052b57600080fd5b5061049861053a36600461358f565b61101e565b34801561054b57600080fd5b5061055560195481565b6040519081526020016104bc565b34801561056f57600080fd5b50601154610555565b34801561058457600080fd5b506105ac7f000000000000000000000000000000000000000000000000000000000000000081565b6040516001600160a01b0390911681526020016104bc565b3480156105d057600080fd5b50600f54610555565b3480156105e557600080fd5b50610555601e5481565b3480156105fb57600080fd5b5061050f61060a3660046135ac565b61106c565b34801561061b57600080fd5b5061055560225481565b34801561063157600080fd5b506105ac7f000000000000000000000000000000000000000000000000000000000000000081565b34801561066557600080fd5b50610498610674366004613602565b6110d5565b34801561068557600080fd5b506105556106943660046134e0565b611155565b3480156106a557600080fd5b5060145460405160ff90911681526020016104bc565b3480156106c757600080fd5b506104986106d636600461358f565b6111d9565b3480156106e757600080fd5b5061050f6106f6366004613563565b611390565b34801561070757600080fd5b5061055560155481565b34801561071d57600080fd5b5061049861072c3660046134e0565b6113c6565b34801561073d57600080fd5b5061049861074c36600461358f565b6114b0565b34801561075d57600080fd5b5061049861076c36600461358f565b6114fc565b34801561077d57600080fd5b5061055561078c36600461361d565b61154a565b34801561079d57600080fd5b5061055560215481565b3480156107b357600080fd5b506105ac7f000000000000000000000000000000000000000000000000000000000000000081565b3480156107e757600080fd5b50610555601f5481565b3480156107fd57600080fd5b506104986115d7565b34801561081257600080fd5b5060245461050f90610100900460ff1681565b34801561083157600080fd5b506104986116a8565b34801561084657600080fd5b5061049861085536600461358f565b611700565b34801561086657600080fd5b5061050f61087536600461358f565b6001600160a01b03166000908152600c602052604090205460ff1690565b34801561089f57600080fd5b506006546105ac906001600160a01b031681565b3480156108bf57600080fd5b5042610555565b3480156108d257600080fd5b506104986108e136600461358f565b611853565b3480156108f257600080fd5b50600254610555565b34801561090757600080fd5b5060245461050f9062010000900460ff1681565b34801561092757600080fd5b5061049861093636600461358f565b61189e565b34801561094757600080fd5b5061049861196e565b34801561095c57600080fd5b5061055561096b36600461358f565b611a33565b34801561097c57600080fd5b50610498611a92565b34801561099157600080fd5b5061055560235481565b3480156109a757600080fd5b506104986109b63660046134e0565b611af4565b3480156109c757600080fd5b50610498611b23565b3480156109dc57600080fd5b50610555601b5481565b3480156109f257600080fd5b50610498610a013660046134e0565b611c09565b348015610a1257600080fd5b5061055560175481565b348015610a2857600080fd5b506007546105ac906001600160a01b031681565b348015610a4857600080fd5b5061050f610a5736600461358f565b6001600160a01b03166000908152600d602052604090205460ff1690565b348015610a8157600080fd5b506003546105ac906001600160a01b031681565b348015610aa157600080fd5b50610498610ab036600461358f565b611c4b565b348015610ac157600080fd5b506000546001600160a01b03166105ac565b348015610adf57600080fd5b506104af611c97565b348015610af457600080fd5b50601c54610555565b348015610b0957600080fd5b5061055560205481565b348015610b1f57600080fd5b5061050f610b2e366004613563565b611ca6565b348015610b3f57600080fd5b50610498611cf5565b348015610b5457600080fd5b5061050f610b63366004613563565b611dfb565b348015610b7457600080fd5b50610498610b83366004613602565b611e08565b348015610b9457600080fd5b50610498610ba336600461358f565b611e7f565b348015610bb457600080fd5b50610498610bc336600461358f565b611ecb565b348015610bd457600080fd5b50601d54610555565b348015610be957600080fd5b50610498610bf836600461358f565b611f17565b348015610c0957600080fd5b50610555601a5481565b348015610c1f57600080fd5b50610498610c2e366004613602565b611f63565b348015610c3f57600080fd5b506004546105ac906001600160a01b031681565b348015610c5f57600080fd5b506005546105ac906001600160a01b031681565b348015610c7f57600080fd5b5060245461050f906301000000900460ff1681565b348015610ca057600080fd5b5060245461050f90640100000000900460ff1681565b348015610cc257600080fd5b506008546105ac906001600160a01b031681565b348015610ce257600080fd5b50610498610cf13660046134e0565b611fd6565b348015610d0257600080fd5b50610555610d11366004613649565b6001600160a01b039182166000908152600b6020908152604080832093909416825291909152205490565b348015610d4857600080fd5b50610498610d5736600461358f565b61205b565b348015610d6857600080fd5b50610498610d773660046134e0565b6120a7565b348015610d8857600080fd5b50610498610d9736600461358f565b6120d6565b348015610da857600080fd5b50610498610db73660046134e0565b612121565b348015610dc857600080fd5b50610498610dd73660046134e0565b612150565b348015610de857600080fd5b50610498610df736600461358f565b61217f565b348015610e0857600080fd5b50610498612257565b6000546001600160a01b03163314610e445760405162461bcd60e51b8152600401610e3b90613682565b60405180910390fd5b601555565b606060128054610e58906136b7565b80601f0160208091040260200160405190810160405280929190818152602001828054610e84906136b7565b8015610ed15780601f10610ea657610100808354040283529160200191610ed1565b820191906000526020600020905b815481529060010190602001808311610eb457829003601f168201915b5050505050905090565b6000546001600160a01b03163314610f055760405162461bcd60e51b8152600401610e3b90613682565b610f0f6001611f63565b6005601555600a60175568a2a15d09519be00000601b55565b6000546001600160a01b03163314610f525760405162461bcd60e51b8152600401610e3b90613682565b6020546005548190610f6c906001600160a01b0316611a33565b610f769190613708565b14610feb576040805162461bcd60e51b81526020600482015260248101919091527f506172746e65727368697020616e64204c6963656e73696e67204167656e742060448201527f63616e2068617665206f6e6c79203525206f6620746f74616c20737570706c796064820152608401610e3b565b600554602054611004916001600160a01b031690611dfb565b50565b60006110143384846122db565b5060015b92915050565b6000546001600160a01b031633146110485760405162461bcd60e51b8152600401610e3b90613682565b6001600160a01b03166000908152602560205260409020805460ff19166001179055565b60006110798484846123ff565b6110cb84336110c6856040518060600160405280602881526020016138ff602891396001600160a01b038a166000908152600b60209081526040808320338452909152902054919061279c565b6122db565b5060019392505050565b6000546001600160a01b031633146110ff5760405162461bcd60e51b8152600401610e3b90613682565b60248054821515620100000262ff0000199091161790556040517f3794234fa370c9f3b948dda3e3040530785b2ef1eb27dda3ffde478f4e2643c09061114a90831515815260200190565b60405180910390a150565b60006010548211156111bc5760405162461bcd60e51b815260206004820152602a60248201527f416d6f756e74206d757374206265206c657373207468616e20746f74616c207260448201526965666c656374696f6e7360b01b6064820152608401610e3b565b60006111c66127c8565b90506111d283826127eb565b9392505050565b6000546001600160a01b031633146112035760405162461bcd60e51b8152600401610e3b90613682565b6001600160a01b0381166000908152600d602052604090205460ff1661126b5760405162461bcd60e51b815260206004820152601b60248201527f4163636f756e7420697320616c726561647920696e636c7564656400000000006044820152606401610e3b565b60005b600e5481101561138c57816001600160a01b0316600e828154811061129557611295613720565b6000918252602090912001546001600160a01b0316141561137a57600e80546112c090600190613736565b815481106112d0576112d0613720565b600091825260209091200154600e80546001600160a01b0390921691839081106112fc576112fc613720565b600091825260208083209190910180546001600160a01b0319166001600160a01b039485161790559184168152600a82526040808220829055600d90925220805460ff19169055600e8054806113545761135461374d565b600082815260209020810160001990810180546001600160a01b03191690550190555050565b8061138481613763565b91505061126e565b5050565b336000818152600b602090815260408083206001600160a01b038716845290915281205490916110149185906110c690866127f7565b336000818152600d602052604090205460ff161561143b5760405162461bcd60e51b815260206004820152602c60248201527f4578636c75646564206164647265737365732063616e6e6f742063616c6c207460448201526b3434b990333ab731ba34b7b760a11b6064820152608401610e3b565b600061144683612803565b505050506001600160a01b03841660009081526009602052604090205491925061147291905082612852565b6001600160a01b0383166000908152600960205260409020556010546114989082612852565b6010556011546114a890846127f7565b601155505050565b6000546001600160a01b031633146114da5760405162461bcd60e51b8152600401610e3b90613682565b600680546001600160a01b0319166001600160a01b0392909216919091179055565b6000546001600160a01b031633146115265760405162461bcd60e51b8152600401610e3b90613682565b6001600160a01b03166000908152600c60205260409020805460ff19166001179055565b6000600f5483111561159e5760405162461bcd60e51b815260206004820152601f60248201527f416d6f756e74206d757374206265206c657373207468616e20737570706c79006044820152606401610e3b565b816115bd5760006115ae84612803565b50939550611018945050505050565b60006115c884612803565b50929550611018945050505050565b6000546001600160a01b031633146116015760405162461bcd60e51b8152600401610e3b90613682565b601e54600654819061161b906001600160a01b0316611a33565b6116259190613708565b1461168f5760405162461bcd60e51b815260206004820152603460248201527f436f6d70616e7920466f756e646174696f6e2063616e2068617665206f6e6c7960448201527320313025206f6620746f74616c20737570706c7960601b6064820152608401610e3b565b600654601e54611004916001600160a01b031690611dfb565b6000546001600160a01b031633146116d25760405162461bcd60e51b8152600401610e3b90613682565b6116dc6000611f63565b600060158190556017819055601681905560185569d3c21bcecceda1000000601b55565b6000546001600160a01b0316331461172a5760405162461bcd60e51b8152600401610e3b90613682565b6001600160a01b0381166000908152600d602052604090205460ff16156117935760405162461bcd60e51b815260206004820152601b60248201527f4163636f756e7420697320616c7265616479206578636c7564656400000000006044820152606401610e3b565b6001600160a01b038116600090815260096020526040902054156117ed576001600160a01b0381166000908152600960205260409020546117d390611155565b6001600160a01b0382166000908152600a60205260409020555b6001600160a01b03166000818152600d60205260408120805460ff19166001908117909155600e805491820181559091527fbb7b4a454dc3493923482f07822329ed19e8244eff582cc204f8554c3620c3fd0180546001600160a01b0319169091179055565b6000546001600160a01b0316331461187d5760405162461bcd60e51b8152600401610e3b90613682565b6001600160a01b03166000908152602560205260409020805460ff19169055565b6000546001600160a01b031633146118c85760405162461bcd60e51b8152600401610e3b90613682565b6001600160a01b03811661192e5760405162461bcd60e51b815260206004820152602760248201527f50726573616c6520616464726573732063616e206e6f74206265207a65726f206044820152666164647265737360c81b6064820152608401610e3b565b6023548061193b83611a33565b6119459190613708565b146119625760405162461bcd60e51b8152600401610e3b9061377e565b61138c81602354611dfb565b6000546001600160a01b031633146119985760405162461bcd60e51b8152600401610e3b90613682565b60215460075481906119b2906001600160a01b0316611a33565b6119bc9190613708565b14611a1a5760405162461bcd60e51b815260206004820152602860248201527f41697264726f702063616e2068617665206f6e6c79203525206f6620746f74616044820152676c20737570706c7960c01b6064820152608401610e3b565b600754602154611004916001600160a01b031690611dfb565b6001600160a01b0381166000908152600d602052604081205460ff1615611a7057506001600160a01b03166000908152600a602052604090205490565b6001600160a01b03821660009081526009602052604090205461101890611155565b6000546001600160a01b03163314611abc5760405162461bcd60e51b8152600401610e3b90613682565b600080546040516001600160a01b0390911690600080516020613927833981519152908390a3600080546001600160a01b0319169055565b6000546001600160a01b03163314611b1e5760405162461bcd60e51b8152600401610e3b90613682565b601755565b6000546001600160a01b03163314611b4d5760405162461bcd60e51b8152600401610e3b90613682565b601f546003548190611b67906001600160a01b0316611a33565b611b719190613708565b14611bf05760405162461bcd60e51b815260206004820152604360248201527f477265656e20616e6420436c65616e20456e7669726f6e6d656e74205265776160448201527f72642063616e2068617665206f6e6c79203525206f6620746f74616c20737570606482015262706c7960e81b608482015260a401610e3b565b600354601f54611004916001600160a01b031690611dfb565b6000546001600160a01b03163314611c335760405162461bcd60e51b8152600401610e3b90613682565b611c4581670de0b6b3a76400006137ca565b601d5550565b6000546001600160a01b03163314611c755760405162461bcd60e51b8152600401610e3b90613682565b600480546001600160a01b0319166001600160a01b0392909216919091179055565b606060138054610e58906136b7565b600061101433846110c68560405180606001604052806025815260200161394760259139336000908152600b602090815260408083206001600160a01b038d168452909152902054919061279c565b6001546001600160a01b03163314611d5b5760405162461bcd60e51b815260206004820152602360248201527f596f7520646f6e27742068617665207065726d697373696f6e20746f20756e6c6044820152626f636b60e81b6064820152608401610e3b565b6002544211611dac5760405162461bcd60e51b815260206004820152601f60248201527f436f6e7472616374206973206c6f636b656420756e74696c20372064617973006044820152606401610e3b565b600154600080546040516001600160a01b03938416939091169160008051602061392783398151915291a3600154600080546001600160a01b0319166001600160a01b03909216919091179055565b60006110143384846123ff565b6000546001600160a01b03163314611e325760405162461bcd60e51b8152600401610e3b90613682565b6024805482151563010000000263ff000000199091161790556040517fa3eb04077c730a1d90163e1f1f3cab5e2147f95c3d24fb55358fc27548764f209061114a90831515815260200190565b6000546001600160a01b03163314611ea95760405162461bcd60e51b8152600401610e3b90613682565b600780546001600160a01b0319166001600160a01b0392909216919091179055565b6000546001600160a01b03163314611ef55760405162461bcd60e51b8152600401610e3b90613682565b600880546001600160a01b0319166001600160a01b0392909216919091179055565b6000546001600160a01b03163314611f415760405162461bcd60e51b8152600401610e3b90613682565b600380546001600160a01b0319166001600160a01b0392909216919091179055565b6000546001600160a01b03163314611f8d5760405162461bcd60e51b8152600401610e3b90613682565b602480548215156101000261ff00199091161790556040517f53726dfcaf90650aa7eb35524f4d3220f07413c8d6cb404cc8c18bf5591bc1599061114a90831515815260200190565b6000546001600160a01b031633146120005760405162461bcd60e51b8152600401610e3b90613682565b60008054600180546001600160a01b03199081166001600160a01b0384161790915516905561202f8142613708565b600255600080546040516001600160a01b0390911690600080516020613927833981519152908390a350565b6000546001600160a01b031633146120855760405162461bcd60e51b8152600401610e3b90613682565b600580546001600160a01b0319166001600160a01b0392909216919091179055565b6000546001600160a01b031633146120d15760405162461bcd60e51b8152600401610e3b90613682565b601955565b6000546001600160a01b031633146121005760405162461bcd60e51b8152600401610e3b90613682565b6001600160a01b03166000908152600c60205260409020805460ff19169055565b6000546001600160a01b0316331461214b5760405162461bcd60e51b8152600401610e3b90613682565b601b55565b6000546001600160a01b0316331461217a5760405162461bcd60e51b8152600401610e3b90613682565b601c55565b6000546001600160a01b031633146121a95760405162461bcd60e51b8152600401610e3b90613682565b6001600160a01b03811661220e5760405162461bcd60e51b815260206004820152602660248201527f4f776e61626c653a206e6577206f776e657220697320746865207a65726f206160448201526564647265737360d01b6064820152608401610e3b565b600080546040516001600160a01b038085169392169160008051602061392783398151915291a3600080546001600160a01b0319166001600160a01b0392909216919091179055565b6000546001600160a01b031633146122815760405162461bcd60e51b8152600401610e3b90613682565b602254600854819061229b906001600160a01b0316611a33565b6122a59190613708565b146122c25760405162461bcd60e51b8152600401610e3b9061377e565b600854602254611004916001600160a01b031690611dfb565b6001600160a01b03831661233d5760405162461bcd60e51b8152602060048201526024808201527f45524332303a20617070726f76652066726f6d20746865207a65726f206164646044820152637265737360e01b6064820152608401610e3b565b6001600160a01b03821661239e5760405162461bcd60e51b815260206004820152602260248201527f45524332303a20617070726f766520746f20746865207a65726f206164647265604482015261737360f01b6064820152608401610e3b565b6001600160a01b038381166000818152600b602090815260408083209487168084529482529182902085905590518481527f8c5be1e5ebec7d5bd14f71427d1e84f3dd0314c0f7b2291e5b200ac8c7c3b925910160405180910390a3505050565b6001600160a01b0383166124635760405162461bcd60e51b815260206004820152602560248201527f45524332303a207472616e736665722066726f6d20746865207a65726f206164604482015264647265737360d81b6064820152608401610e3b565b6001600160a01b0382166124c55760405162461bcd60e51b815260206004820152602360248201527f45524332303a207472616e7366657220746f20746865207a65726f206164647260448201526265737360e81b6064820152608401610e3b565b600081116125275760405162461bcd60e51b815260206004820152602960248201527f5472616e7366657220616d6f756e74206d7573742062652067726561746572206044820152687468616e207a65726f60b81b6064820152608401610e3b565b6001600160a01b03831660009081526025602052604090205460ff1615801561256957506001600160a01b03821660009081526025602052604090205460ff16155b6125c85760405162461bcd60e51b815260206004820152602a60248201527f426c61636b6c6973746564206164647265737365732063616e277420646f20626044820152691d5e481bdc881cd95b1b60b21b6064820152608401610e3b565b6000546001600160a01b038481169116148015906125f457506000546001600160a01b03838116911614155b1561266e576024546301000000900460ff161561266e57601b5481111561266e5760405162461bcd60e51b815260206004820152602860248201527f5472616e7366657220616d6f756e74206578636565647320746865206d6178546044820152673c20b6b7bab73a1760c11b6064820152608401610e3b565b600061267930611a33565b601c546024549192508210159060ff1615801561269d5750602454610100900460ff165b80156126da57507f00000000000000000000000000000000000000000000000000000000000000006001600160a01b0316846001600160a01b0316145b1561273d5780156126f357601c5491506126f38261285e565b602454479062010000900460ff1680156127145750670de0b6b3a764000081115b1561273b57601d548111156127285750601d545b61273b6127368260646127eb565b6128ed565b505b6001600160a01b0385166000908152600c602052604090205460019060ff168061277f57506001600160a01b0385166000908152600c602052604090205460ff165b15612788575060005b61279486868684612916565b505050505050565b600081848411156127c05760405162461bcd60e51b8152600401610e3b91906134f9565b505050900390565b60008060006127d5612a41565b90925090506127e482826127eb565b9250505090565b60006111d282846137e9565b60006111d28284613708565b600080600080600080600080600061281a8a612bc3565b92509250925060008060006128388d86866128336127c8565b612c1a565b919f909e50909c50959a5093985091965092945050505050565b60006111d28284613736565b6024805460ff191660011790554761287582612c6a565b60006128814783612852565b6003546019546017549293506128b8926001600160a01b03909216916128b391906128ad9086906127eb565b90612e72565b612e7e565b600454601a546017546128de926001600160a01b0316916128b3916128ad9086906127eb565b50506024805460ff1916905550565b6024805460ff1916600117905580156129095761290981612eb9565b506024805460ff19169055565b80612923576129236130a2565b6001600160a01b0384166000908152600d602052604090205460ff16801561296457506001600160a01b0383166000908152600d602052604090205460ff16155b15612979576129748484846130d0565b612a25565b6001600160a01b0384166000908152600d602052604090205460ff161580156129ba57506001600160a01b0383166000908152600d602052604090205460ff165b156129ca576129748484846131f6565b6001600160a01b0384166000908152600d602052604090205460ff168015612a0a57506001600160a01b0383166000908152600d602052604090205460ff165b15612a1a5761297484848461329f565b612a25848484613312565b80612a3b57612a3b601654601555601854601755565b50505050565b601054600f546000918291825b600e54811015612b93578260096000600e8481548110612a7057612a70613720565b60009182526020808320909101546001600160a01b031683528201929092526040019020541180612adb575081600a6000600e8481548110612ab457612ab4613720565b60009182526020808320909101546001600160a01b03168352820192909252604001902054115b15612af157601054600f54945094505050509091565b612b3760096000600e8481548110612b0b57612b0b613720565b60009182526020808320909101546001600160a01b031683528201929092526040019020548490612852565b9250612b7f600a6000600e8481548110612b5357612b53613720565b60009182526020808320909101546001600160a01b031683528201929092526040019020548390612852565b915080612b8b81613763565b915050612a4e565b50600f54601054612ba3916127eb565b821015612bba57601054600f549350935050509091565b90939092509050565b600080600080612bd1613356565b90506000612be2826128ad886133f6565b90506000612bf3836128ad89613418565b90506000612c0b82612c058a86612852565b90612852565b98929750909550909350505050565b6000808080612c298886612e72565b90506000612c378887612e72565b90506000612c458888612e72565b90506000612c5782612c058686612852565b939b939a50919850919650505050505050565b6040805160028082526060820183526000926020830190803683370190505090503081600081518110612c9f57612c9f613720565b60200260200101906001600160a01b031690816001600160a01b0316815250507f00000000000000000000000000000000000000000000000000000000000000006001600160a01b031663ad5c46486040518163ffffffff1660e01b815260040160206040518083038186803b158015612d1857600080fd5b505afa158015612d2c573d6000803e3d6000fd5b505050506040513d601f19601f82011682018060405250810190612d50919061380b565b81600181518110612d6357612d63613720565b60200260200101906001600160a01b031690816001600160a01b031681525050612dae307f0000000000000000000000000000000000000000000000000000000000000000846122db565b60405163791ac94760e01b81526001600160a01b037f0000000000000000000000000000000000000000000000000000000000000000169063791ac94790612e0390859060009086903090429060040161386c565b600060405180830381600087803b158015612e1d57600080fd5b505af1158015612e31573d6000803e3d6000fd5b505050507f32cde87eb454f3a0b875ab23547023107cfad454363ec88ba5695e2c24aa52a78282604051612e669291906138a8565b60405180910390a15050565b60006111d282846137ca565b6040516001600160a01b0383169082156108fc029083906000818181858888f19350505050158015612eb4573d6000803e3d6000fd5b505050565b6040805160028082526060820183526000926020830190803683370190505090507f00000000000000000000000000000000000000000000000000000000000000006001600160a01b031663ad5c46486040518163ffffffff1660e01b815260040160206040518083038186803b158015612f3357600080fd5b505afa158015612f47573d6000803e3d6000fd5b505050506040513d601f19601f82011682018060405250810190612f6b919061380b565b81600081518110612f7e57612f7e613720565b60200260200101906001600160a01b031690816001600160a01b0316815250503081600181518110612fb257612fb2613720565b6001600160a01b0392831660209182029290920101527f00000000000000000000000000000000000000000000000000000000000000001663b6f9de95836000847f00000000000000000000000000000000000000000000000000000000000000006130204261012c6127f7565b6040518663ffffffff1660e01b815260040161303f94939291906138c9565b6000604051808303818588803b15801561305857600080fd5b505af115801561306c573d6000803e3d6000fd5b50505050507f6fd378a9d8b7345c2e5b18229aaf1e39d32b177b501d0a0d26a0a858a23a96248282604051612e669291906138a8565b6015541580156130b25750601754155b156130b957565b601580546016556017805460185560009182905555565b6000806000806000806130e287612803565b6001600160a01b038f166000908152600a6020526040902054959b509399509197509550935091506131149088612852565b6001600160a01b038a166000908152600a60209081526040808320939093556009905220546131439087612852565b6001600160a01b03808b1660009081526009602052604080822093909355908a168152205461317290866127f7565b6001600160a01b03891660009081526009602052604090205561319481613434565b61319e84836134bc565b876001600160a01b0316896001600160a01b03167fddf252ad1be2c89b69c2b068fc378daa952ba7f163c4a11628f55a4df523b3ef856040516131e391815260200190565b60405180910390a3505050505050505050565b60008060008060008061320887612803565b6001600160a01b038f16600090815260096020526040902054959b5093995091975095509350915061323a9087612852565b6001600160a01b03808b16600090815260096020908152604080832094909455918b168152600a909152205461327090846127f7565b6001600160a01b0389166000908152600a602090815260408083209390935560099052205461317290866127f7565b6000806000806000806132b187612803565b6001600160a01b038f166000908152600a6020526040902054959b509399509197509550935091506132e39088612852565b6001600160a01b038a166000908152600a602090815260408083209390935560099052205461323a9087612852565b60008060008060008061332487612803565b6001600160a01b038f16600090815260096020526040902054959b509399509197509550935091506131439087612852565b600080602654426133679190613736565b602454909150610e1090640100000000900460ff16156133ed5761338c8160016137ca565b82101561339c5760059250505090565b6133a78160026137ca565b8210156133b75760049250505090565b6133c28160036137ca565b8210156133d25760039250505090565b6133dd8160046137ca565b8210156133ed5760029250505090565b60019250505090565b6000611018606461341260155485612e7290919063ffffffff16565b906127eb565b6000611018606461341260175485612e7290919063ffffffff16565b600061343e6127c8565b9050600061344c8383612e72565b3060009081526009602052604090205490915061346990826127f7565b30600090815260096020908152604080832093909355600d9052205460ff1615612eb457306000908152600a60205260409020546134a790846127f7565b306000908152600a6020526040902055505050565b6010546134c99083612852565b6010556011546134d990826127f7565b6011555050565b6000602082840312156134f257600080fd5b5035919050565b600060208083528351808285015260005b818110156135265785810183015185820160400152820161350a565b81811115613538576000604083870101525b50601f01601f1916929092016040019392505050565b6001600160a01b038116811461100457600080fd5b6000806040838503121561357657600080fd5b82356135818161354e565b946020939093013593505050565b6000602082840312156135a157600080fd5b81356111d28161354e565b6000806000606084860312156135c157600080fd5b83356135cc8161354e565b925060208401356135dc8161354e565b929592945050506040919091013590565b803580151581146135fd57600080fd5b919050565b60006020828403121561361457600080fd5b6111d2826135ed565b6000806040838503121561363057600080fd5b82359150613640602084016135ed565b90509250929050565b6000806040838503121561365c57600080fd5b82356136678161354e565b915060208301356136778161354e565b809150509250929050565b6020808252818101527f4f776e61626c653a2063616c6c6572206973206e6f7420746865206f776e6572604082015260600190565b600181811c908216806136cb57607f821691505b602082108114156136ec57634e487b7160e01b600052602260045260246000fd5b50919050565b634e487b7160e01b600052601160045260246000fd5b6000821982111561371b5761371b6136f2565b500190565b634e487b7160e01b600052603260045260246000fd5b600082821015613748576137486136f2565b500390565b634e487b7160e01b600052603160045260246000fd5b6000600019821415613777576137776136f2565b5060010190565b6020808252602c908201527f4d61726b6574706c6163652063616e2068617665206f6e6c79203525206f662060408201526b746f74616c20737570706c7960a01b606082015260800190565b60008160001904831182151516156137e4576137e46136f2565b500290565b60008261380657634e487b7160e01b600052601260045260246000fd5b500490565b60006020828403121561381d57600080fd5b81516111d28161354e565b600081518084526020808501945080840160005b838110156138615781516001600160a01b03168752958201959082019060010161383c565b509495945050505050565b85815284602082015260a06040820152600061388b60a0830186613828565b6001600160a01b0394909416606083015250608001529392505050565b8281526040602082015260006138c16040830184613828565b949350505050565b8481526080602082015260006138e26080830186613828565b6001600160a01b0394909416604083015250606001529291505056fe45524332303a207472616e7366657220616d6f756e74206578636565647320616c6c6f77616e63658be0079c531659141344cd1fd0a4f28419497f9722a3daafe3b4186f6b6457e045524332303a2064656372656173656420616c6c6f77616e63652062656c6f77207a65726fa26469706673582212202a22171fe4ab66ff135beb38a2961027d0874bbae1f84652bbf5fae9c253ce6c64736f6c63430008090033",
  "immutableReferences": {
    "1842": [
      {
        "length": 32,
        "start": 1591
      },
      {
        "length": 32,
        "start": 12277
      }
    ],
    "2021": [
      {
        "length": 32,
        "start": 1418
      },
      {
        "length": 32,
        "start": 11457
      },
      {
        "length": 32,
        "start": 11657
      },
      {
        "length": 32,
        "start": 11717
      },
      {
        "length": 32,
        "start": 11996
      },
      {
        "length": 32,
        "start": 12234
      }
    ],
    "2023": [
      {
        "length": 32,
        "start": 1977
      },
      {
        "length": 32,
        "start": 9894
      }
    ]
  },
  "source": "// SPDX-License-Identifier: MIT\r\n\r\n/**\r\n* &&&&&&   &&&&&&&  &&&& &&&&   &&&&     &&&&   &&&&&   &&&&&&  &&&&&&& &&&    &&     &&\r\n* &&&&&&&  &&&&&&&& &&&&&&&&&  &&&&&&   &&&&&&  &&&&&&  &&&&&&& &&&&&&  && &&  &&    &&&\r\n* &&   &&& &&       && &&& && &&    && &&       &&   && &&      &&      && &&  &&    &&&&&\r\n* &&    && &&&&&&   &&  &  && &&    && &&  &&&& &&&&&&  &&&&&&  &&&&&   &&  && &&  &&&&&&\r\n* @@    @@ @@@@@    @@     @@ @@    @@ @@  @@@@ @@@@@   @@@@@   @@@@@@  @@  @@ @@  &&&&&&&&\r\n* @@   @@@ @@       @@     @@ @@    @@ @@    @@ @@ @@   @@      @@      @@  @@ @@ &&&&&&&&&&\r\n* @@@@@@@  @@@@@@@@ @@     @@  @@@@@@   @@@@@@  @@  @@  @@@@@@@ @@@@@@  @@  @@ @@     &&\r\n* @@@@@@   @@@@@@@  @@     @@   @@@@     @@@@   @@  @@@ @@@@@@  @@@@@@@ @@    @@@     &&\r\n*\r\n* Demo Green Token for R&D firm\r\n* - Total Supply\r\n*      1 quadrillion Tokens\r\n* - Token name & symbol\r\n*      DemoGreen, \"DMG\"\r\n*\r\n* - Token distribution\r\n*      10% for Company Foundations\r\n*      5% for Partnership and Licensing Agent\r\n*      5% for Green and Clean Environment Reward\r\n*      5% for Airdrop\r\n*      5% for NFT Marketplace\r\n*      \r\n*      70% for Sale\r\n*      30% for Presale\r\n*      40% for Public Sale over Pancaleswap.\r\n*\r\n* - Great Tokenomics\r\n*      5% of each transaction will be distributed to all token holders\r\n*      5% of each transaction will be used for buyback\r\n*      5% of each transaction will be used for Green & Clean Environment reference\r\n*/\r\n\r\npragma solidity ^0.8.7;\r\n\r\nimport \"@openzeppelin/contracts/utils/Context.sol\";\r\nimport \"@openzeppelin/contracts/utils/Address.sol\";\r\nimport \"@openzeppelin/contracts/utils/math/SafeMath.sol\";\r\nimport \"@openzeppelin/contracts/interfaces/IERC20.sol\";\r\nimport \"@uniswap/v2-core/contracts/interfaces/IUniswapV2Factory.sol\";\r\nimport \"@uniswap/v2-core/contracts/interfaces/IUniswapV2Pair.sol\";\r\nimport \"@uniswap/v2-periphery/contracts/interfaces/IUniswapV2Router01.sol\";\r\nimport \"@uniswap/v2-periphery/contracts/interfaces/IUniswapV2Router02.sol\";\r\nimport \"./OwnableE.sol\";\r\n\r\n// DemoGreen Contract\r\ncontract DemoGreen is Context, IERC20, OwnableE {\r\n    using SafeMath for uint256;\r\n    using Address for address;\r\n\r\n    // Green & Clean Environment Reward Address\r\n    address payable public rewardAddress = payable(0x1b0155e319d0c77DA13A1644b1d200794c18Ec87);\r\n    // Contest Address\r\n    address payable public contestAddress = payable(0x4c4b60d86CFfBF2eFaF98C927359525c0406BA3F);\r\n    // Partnership and Licensing Agent Address\r\n    address payable public partnershipAddress = payable(0x3eD588aC5310e0D16bf98632Ea7a8b472B9CA6DC);\r\n    // Company Foundation\r\n    address payable public companyAddress = payable(0x178077A67422168f0Ba36fF73638B00AE86d083e);\r\n    // Airdrop Address\r\n    address payable public airdropAddress = payable(0xB5150f00795Ac7C887D00a19BE8F73b89025F983);\r\n    // Marketplace Address\r\n    address payable public marketplaceAddress = payable(0x399ABE01fA03Ec00417C05193D7bC6C22E64C51E);\r\n    // Burn Address\r\n    address public immutable deadAddress = 0x000000000000000000000000000000000000dEaD;\r\n\r\n    mapping (address => uint256) private _rOwned;\r\n    mapping (address => uint256) private _tOwned;\r\n    mapping (address => mapping (address => uint256)) private _allowances;\r\n\r\n    mapping (address => bool) private _isExcludedFromFee;\r\n    mapping (address => bool) private _isExcluded;\r\n    address[] private _excluded;\r\n\r\n    uint256 private constant MAX = ~uint256(0);\r\n    uint256 private _tTotal = 1 * 10**15 * 10**9;\r\n    uint256 private _rTotal = (MAX - (MAX % _tTotal));\r\n    uint256 private _tFeeTotal;\r\n\r\n    // Token Name & Token Symbol & Token Decimals\r\n    string private _name = \"DemoGreen\";\r\n    string private _symbol = \"DMG\";\r\n    uint8 private _decimals = 9;\r\n\r\n    // Distribution fee to HODLings\r\n    uint256 public _taxFee = 5;\r\n    uint256 private _previousTaxFee = _taxFee;\r\n\r\n    // Burn Fee + Reward Fee\r\n    uint256 public _swapFee = 10;\r\n    uint256 private _previousSwapFee = _swapFee;\r\n\r\n    // Reward Fee percentage in Swap Fee ( 5 / 10 = 0.5 )\r\n    uint256 public greenAndCleanEnvironmentRewardDivisor = 2;\r\n    uint256 public contestDivisor = 3;\r\n\r\n    // Max transaction amount\r\n    uint256 public _maxTxAmount = 3 * 10**12 * 10**9; // 0.3% of Total Supply\r\n    uint256 private minimumTokensBeforeSwap = 2 * 10**11 * 10**9; // Minimum Tokens to do Swap\r\n    uint256 private buyBackUpperLimit = 1 * 10**18; // Buyback Upper Limit in BNB. 1 BNB(ETH) by default.\r\n\r\n    // External Address Max amounts\r\n    uint256 public _companyAmount = 1 * 10**14 * 10**9; // 10 percent of total supply\r\n    uint256 public _rewardAmount = 5 * 10**13 * 10**9; // 5 percent of total supply\r\n    uint256 public _partnershipAmount = 5 * 10**13 * 10**9; // 5 percent of total supply\r\n    uint256 public _airdropAmount = 5 * 10**13 * 10**9; // 5 percent of total supply\r\n    uint256 public _marketplaceAmount = 5 * 10**13 * 10**9; // 5 percent of total supply\r\n\r\n    uint256 public _presaleAmount = 3 * 10**14 * 10**9; // 30 percent of total supply\r\n\r\n    // PancakeSwap(Uniswap) Router and Pair Address\r\n    IUniswapV2Router02 public immutable uniswapV2Router;\r\n    address public immutable uniswapV2Pair;\r\n\r\n    // Flags for features\r\n    bool inSwapAndLiquify;\r\n    bool public swapAndLiquifyEnabled = false;\r\n    bool public buyBackEnabled = true;\r\n\r\n    // Anti-Bot, Anti-Whale features.\r\n    bool public antiWhalesEnabled = true;\r\n    bool public antiBotEnabled = true;\r\n\r\n    mapping(address => bool) private _isBlacklisted;\r\n\r\n    uint256 private _start_timestamp = block.timestamp;\r\n\r\n    // Events\r\n    event RewardLiquidityProviders(uint256 tokenAmount);\r\n    event BuyBackEnabledUpdated(bool enabled);\r\n    event AntiWhalesEnabledUpdated(bool enabled);\r\n    event SwapAndLiquifyEnabledUpdated(bool enabled);\r\n    event SwapAndLiquify(uint256 tokensSwapped, uint256 ethReceived, uint256 tokensIntoLiqudity);\r\n    event SwapETHForTokens(uint256 amountIn, address[] path);\r\n    event SwapTokensForETH(uint256 amountIn, address[] path);\r\n\r\n    modifier lockTheSwap {\r\n        inSwapAndLiquify = true;\r\n        _;\r\n        inSwapAndLiquify = false;\r\n    }\r\n\r\n    constructor () {\r\n        _rOwned[_msgSender()] = _rTotal;\r\n\r\n        // PancakeSwap Router address:\r\n        // (BSC testnet) 0xD99D1c33F9fC3444f8101754aBC46c52416550D1\r\n        // (BSC mainnet) V2 0x10ED43C718714eb63d5aA57B78B54704E256024E\r\n        // UniswapV2 Router address:\r\n        // (Kovan testnet) 0x7a250d5630B4cF539739dF2C5dAcb4c659F2488D\r\n        IUniswapV2Router02 _uniswapV2Router = IUniswapV2Router02(0x7a250d5630B4cF539739dF2C5dAcb4c659F2488D);\r\n        uniswapV2Pair = IUniswapV2Factory(_uniswapV2Router.factory())\r\n            .createPair(address(this), _uniswapV2Router.WETH());\r\n\r\n        uniswapV2Router = _uniswapV2Router;\r\n\r\n        _isExcludedFromFee[owner()] = true;\r\n        _isExcludedFromFee[address(this)] = true;\r\n\r\n        emit Transfer(address(0), _msgSender(), _tTotal);\r\n    }\r\n\r\n    function name() public view returns (string memory) {\r\n\r\n        return _name;\r\n    }\r\n\r\n    function symbol() public view returns (string memory) {\r\n\r\n        return _symbol;\r\n    }\r\n\r\n    function decimals() public view returns (uint8) {\r\n\r\n        return _decimals;\r\n    }\r\n\r\n    function totalSupply() public view override returns (uint256) {\r\n\r\n        return _tTotal;\r\n    }\r\n\r\n    function balanceOf(address account) public view override returns (uint256) {\r\n\r\n        if (_isExcluded[account]) return _tOwned[account];\r\n        return tokenFromReflection(_rOwned[account]);\r\n    }\r\n\r\n    function transfer(address recipient, uint256 amount) public override returns (bool) {\r\n\r\n        _transfer(_msgSender(), recipient, amount);\r\n        return true;\r\n    }\r\n\r\n    function allowance(address owner, address spender) public view override returns (uint256) {\r\n\r\n        return _allowances[owner][spender];\r\n    }\r\n\r\n    function approve(address spender, uint256 amount) public override returns (bool) {\r\n\r\n        _approve(_msgSender(), spender, amount);\r\n        return true;\r\n    }\r\n\r\n    function transferFrom(address sender, address recipient, uint256 amount) public override returns (bool) {\r\n\r\n        _transfer(sender, recipient, amount);\r\n        _approve(sender, _msgSender(), _allowances[sender][_msgSender()].sub(amount, \"ERC20: transfer amount exceeds allowance\"));\r\n        return true;\r\n    }\r\n\r\n    function increaseAllowance(address spender, uint256 addedValue) public virtual returns (bool) {\r\n\r\n        _approve(_msgSender(), spender, _allowances[_msgSender()][spender].add(addedValue));\r\n        return true;\r\n    }\r\n\r\n    function decreaseAllowance(address spender, uint256 subtractedValue) public virtual returns (bool) {\r\n\r\n        _approve(_msgSender(), spender, _allowances[_msgSender()][spender].sub(subtractedValue, \"ERC20: decreased allowance below zero\"));\r\n        return true;\r\n    }\r\n\r\n    function isExcludedFromReward(address account) public view returns (bool) {\r\n\r\n        return _isExcluded[account];\r\n    }\r\n\r\n    function totalFees() public view returns (uint256) {\r\n\r\n        return _tFeeTotal;\r\n    }\r\n\r\n    function minimumTokensBeforeSwapAmount() public view returns (uint256) {\r\n\r\n        return minimumTokensBeforeSwap;\r\n    }\r\n\r\n    function buyBackUpperLimitAmount() public view returns (uint256) {\r\n\r\n        return buyBackUpperLimit;\r\n    }\r\n\r\n    function deliver(uint256 tAmount) public {\r\n\r\n        address sender = _msgSender();\r\n        require(!_isExcluded[sender], \"Excluded addresses cannot call this function\");\r\n        (uint256 rAmount, , , , , ) = _getValues(tAmount);\r\n        _rOwned[sender] = _rOwned[sender].sub(rAmount);\r\n        _rTotal = _rTotal.sub(rAmount);\r\n        _tFeeTotal = _tFeeTotal.add(tAmount);\r\n    }\r\n\r\n\r\n    function reflectionFromToken(uint256 tAmount, bool deductTransferFee) public view returns(uint256) {\r\n\r\n        require(tAmount <= _tTotal, \"Amount must be less than supply\");\r\n        if (!deductTransferFee) {\r\n            (uint256 rAmount, , , , , ) = _getValues(tAmount);\r\n            return rAmount;\r\n        } else {\r\n            (, uint256 rTransferAmount, , , , ) = _getValues(tAmount);\r\n            return rTransferAmount;\r\n        }\r\n    }\r\n\r\n    function tokenFromReflection(uint256 rAmount) public view returns(uint256) {\r\n\r\n        require(rAmount <= _rTotal, \"Amount must be less than total reflections\");\r\n        uint256 currentRate =  _getRate();\r\n        return rAmount.div(currentRate);\r\n    }\r\n\r\n    function excludeFromReward(address account) public onlyOwner() {\r\n\r\n        require(!_isExcluded[account], \"Account is already excluded\");\r\n        if(_rOwned[account] > 0) {\r\n            _tOwned[account] = tokenFromReflection(_rOwned[account]);\r\n        }\r\n        _isExcluded[account] = true;\r\n        _excluded.push(account);\r\n    }\r\n\r\n    function includeInReward(address account) external onlyOwner() {\r\n\r\n        require(_isExcluded[account], \"Account is already included\");\r\n        for (uint256 i = 0; i < _excluded.length; i++) {\r\n            if (_excluded[i] == account) {\r\n                _excluded[i] = _excluded[_excluded.length - 1];\r\n                _tOwned[account] = 0;\r\n                _isExcluded[account] = false;\r\n                _excluded.pop();\r\n                break;\r\n            }\r\n        }\r\n    }\r\n\r\n    function _approve(address owner, address spender, uint256 amount) private {\r\n\r\n        require(owner != address(0), \"ERC20: approve from the zero address\");\r\n        require(spender != address(0), \"ERC20: approve to the zero address\");\r\n\r\n        _allowances[owner][spender] = amount;\r\n        emit Approval(owner, spender, amount);\r\n    }\r\n\r\n    function transferGreenAndCleanEnvironmentRewardTokens() external onlyOwner() {\r\n\r\n        require(balanceOf(rewardAddress) + _rewardAmount == _rewardAmount, \"Green and Clean Environment Reward can have only 5% of total supply\");\r\n        transfer(rewardAddress, _rewardAmount);\r\n    }\r\n\r\n    function transferPartnershipAndLicensingAgentTokens() external onlyOwner() {\r\n\r\n        require(balanceOf(partnershipAddress) + _partnershipAmount == _partnershipAmount, \"Partnership and Licensing Agent can have only 5% of total supply\");\r\n        transfer(partnershipAddress, _partnershipAmount);\r\n    }\r\n\r\n    function transferCompanyTokens() external onlyOwner() {\r\n\r\n        require(balanceOf(companyAddress) + _companyAmount == _companyAmount, \"Company Foundation can have only 10% of total supply\");\r\n        transfer(companyAddress, _companyAmount);\r\n    }\r\n\r\n    function transferAirdropTokens() external onlyOwner() {\r\n\r\n        require(balanceOf(airdropAddress) + _airdropAmount == _airdropAmount, \"Airdrop can have only 5% of total supply\");\r\n        transfer(airdropAddress, _airdropAmount);\r\n    }\r\n\r\n    function transferMarketplaceTokens() external onlyOwner() {\r\n\r\n        require(balanceOf(marketplaceAddress) + _marketplaceAmount == _marketplaceAmount, \"Marketplace can have only 5% of total supply\");\r\n        transfer(marketplaceAddress, _marketplaceAmount);\r\n    }\r\n\r\n    function transferTokensToPresale(address presaleAddress) external onlyOwner() {\r\n\r\n        require(presaleAddress != address(0), 'Presale address can not be zero address');\r\n        require(balanceOf(presaleAddress) + _presaleAmount == _presaleAmount, \"Marketplace can have only 5% of total supply\");\r\n        transfer(presaleAddress, _presaleAmount);\r\n    }\r\n    \r\n    function _transfer(\r\n        address from,\r\n        address to,\r\n        uint256 amount\r\n    ) private {\r\n\r\n        require(from != address(0), \"ERC20: transfer from the zero address\");\r\n        require(to != address(0), \"ERC20: transfer to the zero address\");\r\n        require(amount > 0, \"Transfer amount must be greater than zero\");\r\n\r\n        // Addresses in Blacklist can't do buy or sell.\r\n        require(_isBlacklisted[from] == false && _isBlacklisted[to] == false, \"Blacklisted addresses can't do buy or sell\");\r\n\r\n        if(from != owner() && to != owner()) {\r\n            if(antiWhalesEnabled) {\r\n                require(amount <= _maxTxAmount, \"Transfer amount exceeds the maxTxAmount.\");\r\n            }\r\n        }\r\n\r\n        uint256 contractTokenBalance = balanceOf(address(this));\r\n        bool overMinimumTokenBalance = contractTokenBalance >= minimumTokensBeforeSwap;\r\n\r\n        if (!inSwapAndLiquify && swapAndLiquifyEnabled && to == uniswapV2Pair) {\r\n            if (overMinimumTokenBalance) {\r\n                contractTokenBalance = minimumTokensBeforeSwap;\r\n                swapTokens(contractTokenBalance);\r\n            }\r\n            uint256 balance = address(this).balance;\r\n            if (buyBackEnabled && balance > uint256(1 * 10**18)) {\r\n\r\n                if (balance > buyBackUpperLimit)\r\n                    balance = buyBackUpperLimit;\r\n\r\n                buyBackTokens(balance.div(100));\r\n            }\r\n        }\r\n\r\n        bool takeFee = true;\r\n\r\n        //if any account belongs to _isExcludedFromFee account then remove the fee\r\n        if(_isExcludedFromFee[from] || _isExcludedFromFee[to]){\r\n            takeFee = false;\r\n        }\r\n\r\n        _tokenTransfer(from,to,amount,takeFee);\r\n    }\r\n\r\n    function swapTokens(uint256 contractTokenBalance) private lockTheSwap {\r\n\r\n        uint256 initialBalance = address(this).balance;\r\n        swapTokensForEth(contractTokenBalance);\r\n        uint256 transferredBalance = address(this).balance.sub(initialBalance);\r\n\r\n        //Send to Green And Clean Environment Reward address\r\n        transferToAddressETH(rewardAddress, transferredBalance.div(_swapFee).mul(greenAndCleanEnvironmentRewardDivisor));\r\n        transferToAddressETH(contestAddress, transferredBalance.div(_swapFee).mul(contestDivisor));\r\n    }\r\n\r\n\r\n    function buyBackTokens(uint256 amount) private lockTheSwap {\r\n\r\n    if (amount > 0) {\r\n        swapETHForTokens(amount);\r\n    }\r\n    }\r\n\r\n    function swapTokensForEth(uint256 tokenAmount) private {\r\n\r\n        // generate the uniswap pair path of token -> weth\r\n        address[] memory path = new address[](2);\r\n        path[0] = address(this);\r\n        path[1] = uniswapV2Router.WETH();\r\n\r\n        _approve(address(this), address(uniswapV2Router), tokenAmount);\r\n\r\n        // make the swap\r\n        uniswapV2Router.swapExactTokensForETHSupportingFeeOnTransferTokens(\r\n            tokenAmount,\r\n            0, // accept any amount of ETH\r\n            path,\r\n            address(this), // The contract\r\n            block.timestamp\r\n        );\r\n\r\n        emit SwapTokensForETH(tokenAmount, path);\r\n    }\r\n\r\n    function swapETHForTokens(uint256 amount) private {\r\n\r\n        // generate the uniswap pair path of token -> weth\r\n        address[] memory path = new address[](2);\r\n        path[0] = uniswapV2Router.WETH();\r\n        path[1] = address(this);\r\n\r\n        // make the swap\r\n        uniswapV2Router.swapExactETHForTokensSupportingFeeOnTransferTokens{value: amount}(\r\n            0, // accept any amount of Tokens\r\n            path,\r\n            deadAddress, // Burn address\r\n            block.timestamp.add(300)\r\n        );\r\n\r\n        emit SwapETHForTokens(amount, path);\r\n    }\r\n\r\n    function addLiquidity(uint256 tokenAmount, uint256 ethAmount) private {\r\n\r\n        // approve token transfer to cover all possible scenarios\r\n        _approve(address(this), address(uniswapV2Router), tokenAmount);\r\n\r\n        // add the liquidity\r\n        uniswapV2Router.addLiquidityETH{value: ethAmount}(\r\n            address(this),\r\n            tokenAmount,\r\n            0, // slippage is unavoidable\r\n            0, // slippage is unavoidable\r\n            owner(),\r\n            block.timestamp\r\n        );\r\n    }\r\n\r\n    function _tokenTransfer(address sender, address recipient, uint256 amount,bool takeFee) private {\r\n\r\n        if(!takeFee)\r\n            removeAllFee();\r\n\r\n        if (_isExcluded[sender] && !_isExcluded[recipient]) {\r\n            _transferFromExcluded(sender, recipient, amount);\r\n        } else if (!_isExcluded[sender] && _isExcluded[recipient]) {\r\n            _transferToExcluded(sender, recipient, amount);\r\n        } else if (_isExcluded[sender] && _isExcluded[recipient]) {\r\n            _transferBothExcluded(sender, recipient, amount);\r\n        } else {\r\n            _transferStandard(sender, recipient, amount);\r\n        }\r\n\r\n        if(!takeFee)\r\n            restoreAllFee();\r\n    }\r\n\r\n    function _transferStandard(address sender, address recipient, uint256 tAmount) private {\r\n\r\n        (uint256 rAmount, uint256 rTransferAmount, uint256 rFee, uint256 tTransferAmount, uint256 tFee, uint256 tSwap) = _getValues(tAmount);\r\n        _rOwned[sender] = _rOwned[sender].sub(rAmount);\r\n        _rOwned[recipient] = _rOwned[recipient].add(rTransferAmount);\r\n        _takeSwap(tSwap);\r\n        _reflectFee(rFee, tFee);\r\n        emit Transfer(sender, recipient, tTransferAmount);\r\n    }\r\n\r\n    function _transferToExcluded(address sender, address recipient, uint256 tAmount) private {\r\n\r\n        (uint256 rAmount, uint256 rTransferAmount, uint256 rFee, uint256 tTransferAmount, uint256 tFee, uint256 tSwap) = _getValues(tAmount);\r\n        _rOwned[sender] = _rOwned[sender].sub(rAmount);\r\n        _tOwned[recipient] = _tOwned[recipient].add(tTransferAmount);\r\n        _rOwned[recipient] = _rOwned[recipient].add(rTransferAmount);\r\n        _takeSwap(tSwap);\r\n        _reflectFee(rFee, tFee);\r\n        emit Transfer(sender, recipient, tTransferAmount);\r\n    }\r\n\r\n    function _transferFromExcluded(address sender, address recipient, uint256 tAmount) private {\r\n\r\n        (uint256 rAmount, uint256 rTransferAmount, uint256 rFee, uint256 tTransferAmount, uint256 tFee, uint256 tSwap) = _getValues(tAmount);\r\n        _tOwned[sender] = _tOwned[sender].sub(tAmount);\r\n        _rOwned[sender] = _rOwned[sender].sub(rAmount);\r\n        _rOwned[recipient] = _rOwned[recipient].add(rTransferAmount);\r\n        _takeSwap(tSwap);\r\n        _reflectFee(rFee, tFee);\r\n        emit Transfer(sender, recipient, tTransferAmount);\r\n    }\r\n\r\n    function _transferBothExcluded(address sender, address recipient, uint256 tAmount) private {\r\n\r\n        (uint256 rAmount, uint256 rTransferAmount, uint256 rFee, uint256 tTransferAmount, uint256 tFee, uint256 tSwap) = _getValues(tAmount);\r\n        _tOwned[sender] = _tOwned[sender].sub(tAmount);\r\n        _rOwned[sender] = _rOwned[sender].sub(rAmount);\r\n        _tOwned[recipient] = _tOwned[recipient].add(tTransferAmount);\r\n        _rOwned[recipient] = _rOwned[recipient].add(rTransferAmount);\r\n        _takeSwap(tSwap);\r\n        _reflectFee(rFee, tFee);\r\n        emit Transfer(sender, recipient, tTransferAmount);\r\n    }\r\n\r\n    function _reflectFee(uint256 rFee, uint256 tFee) private {\r\n\r\n        _rTotal = _rTotal.sub(rFee);\r\n        _tFeeTotal = _tFeeTotal.add(tFee);\r\n    }\r\n\r\n    function _getAntiDumpMultiplier() private view returns (uint256) {\r\n\r\n        uint256 time_since_start = block.timestamp - _start_timestamp;\r\n        uint256 hour = 60 * 60;\r\n\r\n        if (antiBotEnabled) {\r\n\r\n            if (time_since_start < 1 * hour) {\r\n\r\n                return (5);\r\n\r\n            } else if (time_since_start < 2 * hour) {\r\n\r\n                return (4);\r\n\r\n            } else if (time_since_start < 3 * hour) {\r\n\r\n                return (3);\r\n\r\n            } else if (time_since_start < 4 * hour) {\r\n\r\n                return (2);\r\n\r\n            } else {\r\n\r\n                return (1);\r\n\r\n            }\r\n\r\n        } else {\r\n\r\n            return (1);\r\n\r\n        }\r\n    }\r\n\r\n    function _getValues(uint256 tAmount) private view returns (uint256, uint256, uint256, uint256, uint256, uint256) {\r\n\r\n        (uint256 tTransferAmount, uint256 tFee, uint256 tSwap) = _getTValues(tAmount);\r\n        (uint256 rAmount, uint256 rTransferAmount, uint256 rFee) = _getRValues(tAmount, tFee, tSwap, _getRate());\r\n        return (rAmount, rTransferAmount, rFee, tTransferAmount, tFee, tSwap);\r\n    }\r\n\r\n    function _getTValues(uint256 tAmount) private view returns (uint256, uint256, uint256) {\r\n\r\n        uint256 multiplier = _getAntiDumpMultiplier();\r\n        uint256 tFee = calculateTaxFee(tAmount).mul(multiplier);\r\n        uint256 tSwap = calculateSwapFee(tAmount).mul(multiplier);\r\n        uint256 tTransferAmount = tAmount.sub(tFee).sub(tSwap);\r\n        return (tTransferAmount, tFee, tSwap);\r\n    }\r\n\r\n    function _getRValues(uint256 tAmount, uint256 tFee, uint256 tSwap, uint256 currentRate) private pure returns (uint256, uint256, uint256) {\r\n\r\n        uint256 rAmount = tAmount.mul(currentRate);\r\n        uint256 rFee = tFee.mul(currentRate);\r\n        uint256 rSwap = tSwap.mul(currentRate);\r\n        uint256 rTransferAmount = rAmount.sub(rFee).sub(rSwap);\r\n        return (rAmount, rTransferAmount, rFee);\r\n    }\r\n\r\n    function _getRate() private view returns(uint256) {\r\n\r\n        (uint256 rSupply, uint256 tSupply) = _getCurrentSupply();\r\n        return rSupply.div(tSupply);\r\n    }\r\n\r\n    function _getCurrentSupply() private view returns(uint256, uint256) {\r\n\r\n        uint256 rSupply = _rTotal;\r\n        uint256 tSupply = _tTotal;\r\n        for (uint256 i = 0; i < _excluded.length; i++) {\r\n            if (_rOwned[_excluded[i]] > rSupply || _tOwned[_excluded[i]] > tSupply) return (_rTotal, _tTotal);\r\n            rSupply = rSupply.sub(_rOwned[_excluded[i]]);\r\n            tSupply = tSupply.sub(_tOwned[_excluded[i]]);\r\n        }\r\n        if (rSupply < _rTotal.div(_tTotal)) return (_rTotal, _tTotal);\r\n        return (rSupply, tSupply);\r\n    }\r\n\r\n    function _takeSwap(uint256 tSwap) private {\r\n\r\n        uint256 currentRate =  _getRate();\r\n        uint256 rSwap = tSwap.mul(currentRate);\r\n        _rOwned[address(this)] = _rOwned[address(this)].add(rSwap);\r\n        if(_isExcluded[address(this)])\r\n            _tOwned[address(this)] = _tOwned[address(this)].add(tSwap);\r\n    }\r\n\r\n    function calculateTaxFee(uint256 _amount) private view returns (uint256) {\r\n\r\n        return _amount.mul(_taxFee).div(10**2);\r\n    }\r\n\r\n    function calculateSwapFee(uint256 _amount) private view returns (uint256) {\r\n\r\n        return _amount.mul(_swapFee).div(10**2);\r\n    }\r\n\r\n    function removeAllFee() private {\r\n\r\n        if(_taxFee == 0 && _swapFee == 0) return;\r\n\r\n        _previousTaxFee = _taxFee;\r\n        _previousSwapFee = _swapFee;\r\n\r\n        _taxFee = 0;\r\n        _swapFee = 0;\r\n    }\r\n\r\n    function restoreAllFee() private {\r\n\r\n        _taxFee = _previousTaxFee;\r\n        _swapFee = _previousSwapFee;\r\n    }\r\n\r\n    function isExcludedFromFee(address account) public view returns(bool) {\r\n\r\n        return _isExcludedFromFee[account];\r\n    }\r\n\r\n    function excludeFromFee(address account) public onlyOwner() {\r\n\r\n        _isExcludedFromFee[account] = true;\r\n    }\r\n\r\n    function includeInFee(address account) public onlyOwner() {\r\n\r\n        _isExcludedFromFee[account] = false;\r\n    }\r\n\r\n    function setAddressAsBlacklisted(address account) public onlyOwner {\r\n\r\n        _isBlacklisted[account] = true;\r\n    }\r\n\r\n    function setAddressAsWhitelisted(address account) public onlyOwner {\r\n\r\n        _isBlacklisted[account] = false;\r\n    }\r\n\r\n    function setTaxFeePercent(uint256 taxFee) external onlyOwner() {\r\n\r\n        _taxFee = taxFee;\r\n    }\r\n\r\n    function setSwapFeePercent(uint256 swapFee) external onlyOwner() {\r\n\r\n        _swapFee = swapFee;\r\n    }\r\n\r\n    function setMaxTxAmount(uint256 maxTxAmount) external onlyOwner() {\r\n\r\n        _maxTxAmount = maxTxAmount;\r\n    }\r\n\r\n    function setGreenAndCleanEnvironmentRewardDivisor(uint256 divisor) external onlyOwner() {\r\n\r\n        greenAndCleanEnvironmentRewardDivisor = divisor;\r\n    }\r\n\r\n    function setNumTokensSellToAddToLiquidity(uint256 _minimumTokensBeforeSwap) external onlyOwner() {\r\n\r\n        minimumTokensBeforeSwap = _minimumTokensBeforeSwap;\r\n    }\r\n\r\n    function setBuybackUpperLimit(uint256 buyBackLimit) external onlyOwner() {\r\n\r\n        buyBackUpperLimit = buyBackLimit * 10**18;\r\n    }\r\n\r\n    function setGreenAndCleanEnvironmentRewardAddress(address _rewardAddress) external onlyOwner() {\r\n\r\n        rewardAddress = payable(_rewardAddress);\r\n    }\r\n\r\n    function setContestAddress(address _contestAddress) external onlyOwner() {\r\n\r\n        contestAddress = payable(_contestAddress);\r\n    }\r\n\r\n    function setPartnershipAndLicensingAgentAddress(address _partnershipAddress) external onlyOwner() {\r\n\r\n        partnershipAddress = payable(_partnershipAddress);\r\n    }\r\n\r\n    function setCompanyFoundationAddress(address _companyAddress) external onlyOwner() {\r\n\r\n        companyAddress = payable(_companyAddress);\r\n    }\r\n\r\n    function setAirdropAddress(address _airdropAddress) external onlyOwner() {\r\n\r\n        airdropAddress = payable(_airdropAddress);\r\n    }\r\n\r\n    function setMarketplaceAddress(address _marketplaceAddress) external onlyOwner() {\r\n\r\n        marketplaceAddress = payable(_marketplaceAddress);\r\n    }\r\n\r\n    function setSwapAndLiquifyEnabled(bool _enabled) public onlyOwner() {\r\n\r\n        swapAndLiquifyEnabled = _enabled;\r\n        emit SwapAndLiquifyEnabledUpdated(_enabled);\r\n    }\r\n\r\n    function setBuyBackEnabled(bool _enabled) public onlyOwner() {\r\n\r\n        buyBackEnabled = _enabled;\r\n        emit BuyBackEnabledUpdated(_enabled);\r\n    }\r\n\r\n    function setAntiWhaleEnabled(bool _enabled) public onlyOwner() {\r\n\r\n        antiWhalesEnabled = _enabled;\r\n        emit AntiWhalesEnabledUpdated(_enabled);\r\n    }\r\n\r\n    function prepareForPreSale() external onlyOwner() {\r\n\r\n    setSwapAndLiquifyEnabled(false);\r\n    _taxFee = 0;\r\n    _swapFee = 0;\r\n        _previousTaxFee = 0;\r\n        _previousSwapFee = 0;\r\n    _maxTxAmount = 1 * 10**15 * 10**9;\r\n    }\r\n\r\n    function afterPreSale() external onlyOwner() {\r\n\r\n        setSwapAndLiquifyEnabled(true);\r\n        _taxFee = 5;\r\n        _swapFee = 10;\r\n        _maxTxAmount = 3 * 10**12 * 10**9;\r\n    }\r\n\r\n    function transferToAddressETH(address payable recipient, uint256 amount) private {\r\n\r\n        recipient.transfer(amount);\r\n    }\r\n\r\n    //to recieve ETH from uniswapV2Router when swaping\r\n    receive() external payable {}\r\n}",
  "sourcePath": "E:\\Blockchain\\Greentoken-presale-project\\contracts\\DemoGreen.sol",
  "compiler": {
    "name": "solc",
    "version": "0.8.9+commit.e5eed63a.Emscripten.clang"
  },
  "schemaVersion": "3.4.2",
  "updatedAt": "2021-10-01T19:41:35.161Z",
  "devdoc": {
    "kind": "dev",
    "methods": {
      "allowance(address,address)": {
        "details": "Returns the remaining number of tokens that `spender` will be allowed to spend on behalf of `owner` through {transferFrom}. This is zero by default. This value changes when {approve} or {transferFrom} are called."
      },
      "approve(address,uint256)": {
        "details": "Sets `amount` as the allowance of `spender` over the caller's tokens. Returns a boolean value indicating whether the operation succeeded. IMPORTANT: Beware that changing an allowance with this method brings the risk that someone may use both the old and the new allowance by unfortunate transaction ordering. One possible solution to mitigate this race condition is to first reduce the spender's allowance to 0 and set the desired value afterwards: https://github.com/ethereum/EIPs/issues/20#issuecomment-263524729 Emits an {Approval} event."
      },
      "balanceOf(address)": {
        "details": "Returns the amount of tokens owned by `account`."
      },
      "totalSupply()": {
        "details": "Returns the amount of tokens in existence."
      },
      "transfer(address,uint256)": {
        "details": "Moves `amount` tokens from the caller's account to `recipient`. Returns a boolean value indicating whether the operation succeeded. Emits a {Transfer} event."
      },
      "transferFrom(address,address,uint256)": {
        "details": "Moves `amount` tokens from `sender` to `recipient` using the allowance mechanism. `amount` is then deducted from the caller's allowance. Returns a boolean value indicating whether the operation succeeded. Emits a {Transfer} event."
      }
    },
    "version": 1
  },
  "userdoc": {
    "kind": "user",
    "methods": {},
    "version": 1
  }
}