{
  "contractName": "Public_PreSale",
  "abi": [
    {
      "inputs": [
        {
          "internalType": "uint256",
          "name": "rate",
          "type": "uint256"
        },
        {
          "internalType": "address",
          "name": "wallet",
          "type": "address"
        },
        {
          "internalType": "contract IERC20",
          "name": "token",
          "type": "address"
        }
      ],
      "stateMutability": "nonpayable",
      "type": "constructor"
    },
    {
      "anonymous": false,
      "inputs": [
        {
          "indexed": true,
          "internalType": "address",
          "name": "previousOwner",
          "type": "address"
        },
        {
          "indexed": true,
          "internalType": "address",
          "name": "newOwner",
          "type": "address"
        }
      ],
      "name": "OwnershipTransferred",
      "type": "event"
    },
    {
      "anonymous": false,
      "inputs": [
        {
          "indexed": true,
          "internalType": "address",
          "name": "purchaser",
          "type": "address"
        },
        {
          "indexed": true,
          "internalType": "address",
          "name": "beneficiary",
          "type": "address"
        },
        {
          "indexed": false,
          "internalType": "uint256",
          "name": "value",
          "type": "uint256"
        },
        {
          "indexed": false,
          "internalType": "uint256",
          "name": "amount",
          "type": "uint256"
        }
      ],
      "name": "TokensPurchased",
      "type": "event"
    },
    {
      "inputs": [],
      "name": "availableTokensICO",
      "outputs": [
        {
          "internalType": "uint256",
          "name": "",
          "type": "uint256"
        }
      ],
      "stateMutability": "view",
      "type": "function"
    },
    {
      "inputs": [],
      "name": "endICO",
      "outputs": [
        {
          "internalType": "uint256",
          "name": "",
          "type": "uint256"
        }
      ],
      "stateMutability": "view",
      "type": "function"
    },
    {
      "inputs": [],
      "name": "maxPurchase",
      "outputs": [
        {
          "internalType": "uint256",
          "name": "",
          "type": "uint256"
        }
      ],
      "stateMutability": "view",
      "type": "function"
    },
    {
      "inputs": [],
      "name": "minPurchase",
      "outputs": [
        {
          "internalType": "uint256",
          "name": "",
          "type": "uint256"
        }
      ],
      "stateMutability": "view",
      "type": "function"
    },
    {
      "inputs": [],
      "name": "owner",
      "outputs": [
        {
          "internalType": "address",
          "name": "",
          "type": "address"
        }
      ],
      "stateMutability": "view",
      "type": "function"
    },
    {
      "inputs": [],
      "name": "renounceOwnership",
      "outputs": [],
      "stateMutability": "nonpayable",
      "type": "function"
    },
    {
      "inputs": [
        {
          "internalType": "address",
          "name": "newOwner",
          "type": "address"
        }
      ],
      "name": "transferOwnership",
      "outputs": [],
      "stateMutability": "nonpayable",
      "type": "function"
    },
    {
      "inputs": [],
      "name": "unlockableTime",
      "outputs": [
        {
          "internalType": "uint256",
          "name": "",
          "type": "uint256"
        }
      ],
      "stateMutability": "view",
      "type": "function"
    },
    {
      "stateMutability": "payable",
      "type": "receive"
    },
    {
      "inputs": [
        {
          "internalType": "uint256",
          "name": "endDate",
          "type": "uint256"
        }
      ],
      "name": "lock",
      "outputs": [],
      "stateMutability": "nonpayable",
      "type": "function"
    },
    {
      "inputs": [],
      "name": "unlock",
      "outputs": [],
      "stateMutability": "nonpayable",
      "type": "function"
    },
    {
      "inputs": [
        {
          "internalType": "uint256",
          "name": "endDate",
          "type": "uint256"
        },
        {
          "internalType": "uint256",
          "name": "_minPurchase",
          "type": "uint256"
        },
        {
          "internalType": "uint256",
          "name": "_maxPurchase",
          "type": "uint256"
        },
        {
          "internalType": "uint256",
          "name": "_availableTokens",
          "type": "uint256"
        }
      ],
      "name": "startICO",
      "outputs": [],
      "stateMutability": "nonpayable",
      "type": "function"
    },
    {
      "inputs": [],
      "name": "stopICO",
      "outputs": [],
      "stateMutability": "nonpayable",
      "type": "function"
    },
    {
      "inputs": [
        {
          "internalType": "address",
          "name": "beneficiary",
          "type": "address"
        }
      ],
      "name": "buyTokens",
      "outputs": [],
      "stateMutability": "payable",
      "type": "function"
    },
    {
      "inputs": [],
      "name": "withdraw",
      "outputs": [],
      "stateMutability": "nonpayable",
      "type": "function"
    },
    {
      "inputs": [],
      "name": "getTokenAddress",
      "outputs": [
        {
          "internalType": "contract IERC20",
          "name": "",
          "type": "address"
        }
      ],
      "stateMutability": "view",
      "type": "function"
    },
    {
      "inputs": [],
      "name": "getWalletAddress",
      "outputs": [
        {
          "internalType": "address",
          "name": "",
          "type": "address"
        }
      ],
      "stateMutability": "view",
      "type": "function"
    },
    {
      "inputs": [],
      "name": "getRate",
      "outputs": [
        {
          "internalType": "uint256",
          "name": "",
          "type": "uint256"
        }
      ],
      "stateMutability": "view",
      "type": "function"
    },
    {
      "inputs": [
        {
          "internalType": "uint256",
          "name": "newRate",
          "type": "uint256"
        }
      ],
      "name": "setRate",
      "outputs": [],
      "stateMutability": "nonpayable",
      "type": "function"
    },
    {
      "inputs": [
        {
          "internalType": "uint256",
          "name": "amount",
          "type": "uint256"
        }
      ],
      "name": "setAvailableTokens",
      "outputs": [],
      "stateMutability": "nonpayable",
      "type": "function"
    },
    {
      "inputs": [],
      "name": "weiRaised",
      "outputs": [
        {
          "internalType": "uint256",
          "name": "",
          "type": "uint256"
        }
      ],
      "stateMutability": "view",
      "type": "function"
    }
  ],
  "bytecode": "0x608060405260006007553480156200001657600080fd5b50604051620012613803806200126183398101604081905262000039916200020a565b600160005562000049336200019f565b600083116200009f5760405162461bcd60e51b815260206004820152601360248201527f5072652d53616c653a207261746520697320300000000000000000000000000060448201526064015b60405180910390fd5b6001600160a01b038216620001035760405162461bcd60e51b8152602060048201526024808201527f5072652d53616c653a2077616c6c657420697320746865207a65726f206164646044820152637265737360e01b606482015260840162000096565b6001600160a01b038116620001675760405162461bcd60e51b815260206004820152602360248201527f5072652d53616c653a20746f6b656e20697320746865207a65726f206164647260448201526265737360e81b606482015260840162000096565b600492909255600380546001600160a01b039283166001600160a01b0319918216179091556002805492909316911617905562000252565b600180546001600160a01b038381166001600160a01b0319831681179093556040519116919082907f8be0079c531659141344cd1fd0a4f28419497f9722a3daafe3b4186f6b6457e090600090a35050565b6001600160a01b03811681146200020757600080fd5b50565b6000806000606084860312156200022057600080fd5b8351925060208401516200023481620001f1565b60408501519092506200024781620001f1565b809150509250925092565b610fff80620002626000396000f3fe6080604052600436106101235760003560e01c80638da5cb5b116100a0578063dd46706411610064578063dd4670641461032e578063ec8ac4d81461034e578063f2fde38b1461035c578063f6d893ec1461037c578063f6e3650a1461039c57600080fd5b80638da5cb5b146102ba578063977b055b146102d8578063a41a028b146102ee578063a69df4b514610304578063c8e569a81461031957600080fd5b8063401c6cd4116100e7578063401c6cd4146102455780634042b66f146102655780634f2484091461027a578063679aefce14610290578063715018a6146102a557600080fd5b806304d2dec61461019757806310fe9ae8146101ce57806333b5b62e146101ec57806334fcf437146102105780633ccfd60b1461023057600080fd5b3661019257600060065411801561013b575060065442105b156101505761014e336103b2565b6103b2565b005b60405162461bcd60e51b8152602060048201526012602482015271141c994b54d85b19481a5cc818db1bdcd95960721b60448201526064015b60405180910390fd5b600080fd5b3480156101a357600080fd5b506003546001600160a01b03165b6040516001600160a01b0390911681526020015b60405180910390f35b3480156101da57600080fd5b506002546001600160a01b03166101b1565b3480156101f857600080fd5b5061020260085481565b6040519081526020016101c5565b34801561021c57600080fd5b5061014e61022b366004610e5f565b610507565b34801561023c57600080fd5b5061014e610536565b34801561025157600080fd5b5061014e610260366004610e78565b6105e4565b34801561027157600080fd5b50600554610202565b34801561028657600080fd5b5061020260065481565b34801561029c57600080fd5b50600454610202565b3480156102b157600080fd5b5061014e6108b2565b3480156102c657600080fd5b506001546001600160a01b03166101b1565b3480156102e457600080fd5b5061020260095481565b3480156102fa57600080fd5b50610202600a5481565b34801561031057600080fd5b5061014e6108e8565b34801561032557600080fd5b5061014e610919565b34801561033a57600080fd5b5061014e610349366004610e5f565b6109ac565b61014e610149366004610eaa565b34801561036857600080fd5b5061014e610377366004610eaa565b610abc565b34801561038857600080fd5b5061014e610397366004610e5f565b610b54565b3480156103a857600080fd5b5061020260075481565b600260005414156104055760405162461bcd60e51b815260206004820152601f60248201527f5265656e7472616e637947756172643a207265656e7472616e742063616c6c006044820152606401610189565b60026000556006541580159061041c575060065442105b801561042a57506000600a54115b61046b5760405162461bcd60e51b815260206004820152601260248201527149434f206d7573742062652061637469766560701b6044820152606401610189565b346104768282610b83565b600061048182610cec565b6005549091506104919083610d14565b600555600a546104a2908290610ee9565b600a556104af8382610d27565b60408051838152602081018390526001600160a01b0385169133917f6faf93231a456e552dbc9961f58d9713ee4f2e69d15f1975b050ef0911053a7b910160405180910390a36104fd610d31565b5050600160005550565b6001546001600160a01b031633146105315760405162461bcd60e51b815260040161018990610f00565b600455565b6001546001600160a01b031633146105605760405162461bcd60e51b815260040161018990610f00565b600047116105a85760405162461bcd60e51b8152602060048201526015602482015274436f6e747261637420686173206e6f206d6f6e657960581b6044820152606401610189565b6003546040516001600160a01b03909116904780156108fc02916000818181858888f193505050501580156105e1573d6000803e3d6000fd5b50565b6001546001600160a01b0316331461060e5760405162461bcd60e51b815260040161018990610f00565b426006541061065f5760405162461bcd60e51b815260206004820152601860248201527f49434f2073686f756c64206e6f742062652061637469766500000000000000006044820152606401610189565b600754156106c45760405162461bcd60e51b815260206004820152602c60248201527f49434f3a20546f6b656e7320696e2074686520636f6e7472616374206861642060448201526b3132b2b7103637b1b5b2b21760a11b6064820152608401610189565b4284116107255760405162461bcd60e51b815260206004820152602960248201527f49434f3a204475726174696f6e2073686f756c642062652067726561746572206044820152687468616e207a65726f60b81b6064820152608401610189565b6000811180156107ba5750600260009054906101000a90046001600160a01b03166001600160a01b03166318160ddd6040518163ffffffff1660e01b815260040160206040518083038186803b15801561077e57600080fd5b505afa158015610792573d6000803e3d6000fd5b505050506040513d601f19601f820116820180604052508101906107b69190610f35565b8111155b6108385760405162461bcd60e51b815260206004820152604360248201527f49434f3a20617661696c61626c65546f6b656e732073686f756c64206265206760448201527f726561746572207468616e207a65726f20616e64203c3d20746f74616c537570606482015262706c7960e81b608482015260a401610189565b6000831161089e5760405162461bcd60e51b815260206004820152602d60248201527f49434f3a205f6d696e50757263686173652073686f756c64206265206772656160448201526c746572207468616e207a65726f60981b6064820152608401610189565b600693909355600a92909255600855600955565b6001546001600160a01b031633146108dc5760405162461bcd60e51b815260040161018990610f00565b6108e66000610d6a565b565b6001546001600160a01b031633146109125760405162461bcd60e51b815260040161018990610f00565b6000600755565b6001546001600160a01b031633146109435760405162461bcd60e51b815260040161018990610f00565b6000600654118015610956575060065442105b801561096457506000600a54115b6109a55760405162461bcd60e51b815260206004820152601260248201527149434f206d7573742062652061637469766560701b6044820152606401610189565b6000600655565b6001546001600160a01b031633146109d65760405162461bcd60e51b815260040161018990610f00565b60075415610a365760405162461bcd60e51b815260206004820152602760248201527f4c4f434b3a207468697320636f6e747261637420616c7265616479206c6f636b60448201526620746f6b656e7360c81b6064820152608401610189565b610a4362093a8042610f4e565b8111610ab75760405162461bcd60e51b815260206004820152603760248201527f4c4f434b3a20656e64446174652073686f756c64206265206d6f72652074686160448201527f6e2031207765656b206c617465722066726f6d206e6f770000000000000000006064820152608401610189565b600755565b6001546001600160a01b03163314610ae65760405162461bcd60e51b815260040161018990610f00565b6001600160a01b038116610b4b5760405162461bcd60e51b815260206004820152602660248201527f4f776e61626c653a206e6577206f776e657220697320746865207a65726f206160448201526564647265737360d01b6064820152608401610189565b6105e181610d6a565b6001546001600160a01b03163314610b7e5760405162461bcd60e51b815260040161018990610f00565b600a55565b6001600160a01b038216610bec5760405162461bcd60e51b815260206004820152602a60248201527f43726f776473616c653a2062656e656669636961727920697320746865207a65604482015269726f206164647265737360b01b6064820152608401610189565b80610c395760405162461bcd60e51b815260206004820152601960248201527f43726f776473616c653a20776569416d6f756e742069732030000000000000006044820152606401610189565b600854811015610c965760405162461bcd60e51b815260206004820152602260248201527f6861766520746f2073656e64206174206c656173743a206d696e507572636861604482015261736560f01b6064820152608401610189565b600954811115610ce85760405162461bcd60e51b815260206004820152601d60248201527f6861766520746f2073656e64206d61783a206d617850757263686173650000006044820152606401610189565b5050565b6000610d0e6064610d0860045485610dbc90919063ffffffff16565b90610dc8565b92915050565b6000610d208284610f4e565b9392505050565b610ce88282610dd4565b6003546040516001600160a01b03909116903480156108fc02916000818181858888f193505050501580156105e1573d6000803e3d6000fd5b600180546001600160a01b038381166001600160a01b0319831681179093556040519116919082907f8be0079c531659141344cd1fd0a4f28419497f9722a3daafe3b4186f6b6457e090600090a35050565b6000610d208284610f66565b6000610d208284610f85565b60025460405163a9059cbb60e01b81526001600160a01b038481166004830152602482018490529091169063a9059cbb90604401602060405180830381600087803b158015610e2257600080fd5b505af1158015610e36573d6000803e3d6000fd5b505050506040513d601f19601f82011682018060405250810190610e5a9190610fa7565b505050565b600060208284031215610e7157600080fd5b5035919050565b60008060008060808587031215610e8e57600080fd5b5050823594602084013594506040840135936060013592509050565b600060208284031215610ebc57600080fd5b81356001600160a01b0381168114610d2057600080fd5b634e487b7160e01b600052601160045260246000fd5b600082821015610efb57610efb610ed3565b500390565b6020808252818101527f4f776e61626c653a2063616c6c6572206973206e6f7420746865206f776e6572604082015260600190565b600060208284031215610f4757600080fd5b5051919050565b60008219821115610f6157610f61610ed3565b500190565b6000816000190483118215151615610f8057610f80610ed3565b500290565b600082610fa257634e487b7160e01b600052601260045260246000fd5b500490565b600060208284031215610fb957600080fd5b81518015158114610d2057600080fdfea264697066735822122054c356133f9ca795e548e71ff60425b2281b649f8231118d311beba02072019e64736f6c63430008090033",
  "immutableReferences": {},
  "source": "// SPDX-License-Identifier: MIT\r\n\r\n/**\r\n *                                                                                @\r\n *                                                                               @@@\r\n *                          @@@@@@@                     @@@@@@@@                @ @ @\r\n *                   @@@@@@@@@@@@@@@@@@@@         @@@@@@@@@@@@@@@@@@@@           @@@\r\n *                @@@@@@@@@@@@@@@@@@@@@@@@@@@  @@@@@@@@@@@@@@@@@@@@@@@@@@         @\r\n *\r\n *    @@@@@@@@     @@@@@@@@@    @@@@@@@@@@    @@@@@@@       @@@      @@@@@  @@     @@@@@@@@@@\r\n *    @@@@@@@@@@   @@@@@@@@@@   @@@@@@@@@@   @@@@@@@@@      @@@       @@@   @@@    @@@@@@@@@@\r\n *    @@@     @@@  @@@     @@@  @@@     @@  @@@     @@@    @@@@@      @@@   @@@@   @@@     @@\r\n *    @@@     @@@  @@@     @@@  @@@         @@@            @@@@@      @@@   @@@@   @@@\r\n *    @@@@@@@@@@   @@@@@@@@@@   @@@    @@    @@@@@@@      @@@ @@@     @@@   @@@@   @@@    @@\r\n *    @@@@@@@@     @@@@@@@@     @@@@@@@@@     @@@@@@@     @@@ @@@     @@@   @@@@   @@@@@@@@@\r\n *    @@@          @@@   @@@    @@@    @@          @@@   @@@   @@@    @@@   @@@@   @@@    @@\r\n *    @@@  @@@@    @@@   @@@    @@@                 @@@  @@@   @@@    @@@   @@@@   @@@\r\n *    @@@   @@@    @@@    @@@   @@@     @@  @@@     @@@  @@@@@@@@@    @@@   @@     @@@     @@\r\n *    @@@    @@    @@@    @@@   @@@@@@@@@@   @@@@@@@@    @@@   @@@    @@@      @@  @@@@@@@@@@\r\n *   @@@@@     @  @@@@@   @@@@  @@@@@@@@@@    @@@@@@    @@@@@ @@@@@  @@@@@@@@@@@@  @@@@@@@@@@\r\n *\r\n *                @@@@@@@@@@@@@@@@@@@@@@@@@@  @@@@@@@@@@@@@@@@@@@@@@@@@@@@\r\n *                   @@@@@@@@@@@@@@@@@@@@        @@@@@@@@@@@@@@@@@@@@@\r\n *                        @@@@@@@@@@                 @@@@@@@@@@@@\r\n *\r\n */\r\n\r\npragma solidity ^0.8.7;\r\n\r\nimport \"@openzeppelin/contracts/utils/Context.sol\";\r\nimport \"@openzeppelin/contracts/access/Ownable.sol\";\r\nimport \"@openzeppelin/contracts/utils/Address.sol\";\r\nimport \"@openzeppelin/contracts/token/ERC20/utils/SafeERC20.sol\";\r\nimport \"@openzeppelin/contracts/security/ReentrancyGuard.sol\";\r\nimport \"@openzeppelin/contracts/utils/math/SafeMath.sol\";\r\nimport \"@openzeppelin/contracts/interfaces/IERC20.sol\";\r\n\r\ncontract Public_PreSale is ReentrancyGuard, Context, Ownable {\r\n\r\n    using SafeMath for uint256;\r\n    using SafeERC20 for IERC20;\r\n\r\n    uint256 private constant MIN_LOCKTIME = 1 weeks;\r\n\r\n    IERC20 private _token;\r\n    address private _wallet;\r\n    uint256 private _rate;\r\n\r\n    uint256 private _weiRaised;\r\n    uint256 public endICO;\r\n\r\n    uint256 public unlockableTime = 0;\r\n\r\n    uint public minPurchase;\r\n    uint public maxPurchase;\r\n    uint public availableTokensICO;\r\n\r\n    mapping (address => bool) Claimed;\r\n    mapping (address => uint256) valDrop;\r\n\r\n    event TokensPurchased(address indexed purchaser, address indexed beneficiary, uint256 value, uint256 amount);\r\n\r\n    modifier icoActive() {\r\n\r\n        require(endICO > 0 && block.timestamp < endICO && availableTokensICO > 0, \"ICO must be active\");\r\n        _;\r\n    }\r\n\r\n    modifier icoNotActive() {\r\n\r\n        require(endICO < block.timestamp, 'ICO should not be active');\r\n        _;\r\n    }\r\n\r\n    constructor (uint256 rate, address wallet, IERC20 token) {\r\n\r\n        require(rate > 0, \"Pre-Sale: rate is 0\");\r\n        require(wallet != address(0), \"Pre-Sale: wallet is the zero address\");\r\n        require(address(token) != address(0), \"Pre-Sale: token is the zero address\");\r\n\r\n        _rate = rate;\r\n        _wallet = wallet;\r\n        _token = token;\r\n    }\r\n\r\n    function lock(uint256 endDate) public onlyOwner {\r\n        require(unlockableTime == 0, \"LOCK: this contract already lock tokens\");\r\n        require(endDate > block.timestamp + MIN_LOCKTIME, \"LOCK: endDate should be more than 1 week later from now\");\r\n\r\n        unlockableTime = endDate;\r\n    }\r\n\r\n    function unlock() public onlyOwner {\r\n        unlockableTime = 0;\r\n    }\r\n\r\n    //Start Pre-Sale\r\n    function startICO(uint endDate, uint _minPurchase, uint _maxPurchase, uint _availableTokens) external onlyOwner icoNotActive() {\r\n\r\n        require(unlockableTime == 0, \"ICO: Tokens in the contract had been locked.\");\r\n        require(endDate > block.timestamp, 'ICO: Duration should be greater than zero');\r\n        require(_availableTokens > 0 && _availableTokens <= _token.totalSupply(), 'ICO: availableTokens should be greater than zero and <= totalSupply');\r\n        require(_minPurchase > 0, 'ICO: _minPurchase should be greater than zero');\r\n\r\n        endICO = endDate;\r\n        availableTokensICO = _availableTokens;\r\n\r\n        minPurchase = _minPurchase;\r\n        maxPurchase = _maxPurchase;\r\n    }\r\n\r\n    function stopICO() external onlyOwner icoActive(){\r\n\r\n        endICO = 0;\r\n    }\r\n\r\n    function buyTokens(address beneficiary) public nonReentrant icoActive payable {\r\n\r\n        uint256 weiAmount = msg.value;\r\n\r\n        _preValidatePurchase(beneficiary, weiAmount);\r\n        uint256 tokens = _getTokenAmount(weiAmount);\r\n\r\n        _weiRaised = _weiRaised.add(weiAmount);\r\n        availableTokensICO = availableTokensICO - tokens;\r\n\r\n        _processPurchase(beneficiary, tokens);\r\n        emit TokensPurchased(_msgSender(), beneficiary, weiAmount, tokens);\r\n\r\n        _forwardFunds();\r\n    }\r\n\r\n    function _preValidatePurchase(address beneficiary, uint256 weiAmount) internal view {\r\n\r\n        require(beneficiary != address(0), \"Crowdsale: beneficiary is the zero address\");\r\n        require(weiAmount != 0, \"Crowdsale: weiAmount is 0\");\r\n        require(weiAmount >= minPurchase, 'have to send at least: minPurchase');\r\n        require(weiAmount <= maxPurchase, 'have to send max: maxPurchase');\r\n\r\n        this;\r\n    }\r\n\r\n    function _deliverTokens(address beneficiary, uint256 tokenAmount) internal {\r\n\r\n        _token.transfer(beneficiary, tokenAmount);\r\n    }\r\n\r\n    function _processPurchase(address beneficiary, uint256 tokenAmount) internal {\r\n\r\n        _deliverTokens(beneficiary, tokenAmount);\r\n    }\r\n\r\n    function _getTokenAmount(uint256 weiAmount) internal view returns (uint256) {\r\n\r\n        return weiAmount.mul(_rate).div(100);\r\n    }\r\n\r\n    function _forwardFunds() internal {\r\n\r\n        payable(_wallet).transfer(msg.value);\r\n    }\r\n\r\n    function withdraw() external onlyOwner {\r\n\r\n        require(address(this).balance > 0, 'Contract has no money');\r\n        payable(_wallet).transfer(address(this).balance);\r\n    }\r\n\r\n    function getTokenAddress() public view returns (IERC20) {\r\n\r\n        return _token;\r\n    }\r\n\r\n\r\n    function getWalletAddress() public view returns (address) {\r\n\r\n        return _wallet;\r\n    }\r\n\r\n\r\n    function getRate() public view returns (uint256) {\r\n\r\n        return _rate;\r\n    }\r\n\r\n    function setRate(uint256 newRate) public onlyOwner {\r\n\r\n        _rate = newRate;\r\n    }\r\n\r\n    function setAvailableTokens(uint256 amount) public onlyOwner {\r\n\r\n        availableTokensICO = amount;\r\n    }\r\n\r\n    function weiRaised() public view returns (uint256) {\r\n\r\n        return _weiRaised;\r\n    }\r\n\r\n    receive() external payable {\r\n\r\n        if(endICO > 0 && block.timestamp < endICO){\r\n            buyTokens(_msgSender());\r\n        }\r\n        else{\r\n            revert('Pre-Sale is closed');\r\n        }\r\n    }\r\n}",
  "sourcePath": "E:\\Blockchain\\Greentoken-presale-project\\contracts\\DemoGreenPresale.sol",
  "compiler": {
    "name": "solc",
    "version": "0.8.9+commit.e5eed63a.Emscripten.clang"
  },
  "schemaVersion": "3.4.2",
  "updatedAt": "2021-09-30T14:36:46.157Z",
  "devdoc": {
    "kind": "dev",
    "methods": {
      "owner()": {
        "details": "Returns the address of the current owner."
      },
      "renounceOwnership()": {
        "details": "Leaves the contract without owner. It will not be possible to call `onlyOwner` functions anymore. Can only be called by the current owner. NOTE: Renouncing ownership will leave the contract without an owner, thereby removing any functionality that is only available to the owner."
      },
      "transferOwnership(address)": {
        "details": "Transfers ownership of the contract to a new account (`newOwner`). Can only be called by the current owner."
      }
    },
    "version": 1
  },
  "userdoc": {
    "kind": "user",
    "methods": {},
    "version": 1
  }
}